{
  "_format": "hh-sol-artifact-1",
  "contractName": "Provider",
  "sourceName": "Contracts/Provider.sol",
  "abi": [
    {
      "inputs": [
        {
          "internalType": "address",
          "name": "_owner",
          "type": "address"
        }
      ],
      "stateMutability": "nonpayable",
      "type": "constructor"
    },
    {
      "anonymous": false,
      "inputs": [
        {
          "indexed": false,
          "internalType": "address",
          "name": "provider",
          "type": "address"
        },
        {
          "indexed": false,
          "internalType": "string",
          "name": "name",
          "type": "string"
        },
        {
          "indexed": false,
          "internalType": "string",
          "name": "contactInfo",
          "type": "string"
        }
      ],
      "name": "ProviderRegistered",
      "type": "event"
    },
    {
      "inputs": [
        {
          "internalType": "address",
          "name": "_provider",
          "type": "address"
        },
        {
          "internalType": "uint256",
          "name": "_serviceID",
          "type": "uint256"
        }
      ],
      "name": "createService",
      "outputs": [],
      "stateMutability": "nonpayable",
      "type": "function"
    },
    {
      "inputs": [
        {
          "internalType": "address",
          "name": "_provider",
          "type": "address"
        }
      ],
      "name": "getProviderServices",
      "outputs": [
        {
          "internalType": "uint256[]",
          "name": "",
          "type": "uint256[]"
        }
      ],
      "stateMutability": "view",
      "type": "function"
    },
    {
      "inputs": [],
      "name": "owner",
      "outputs": [
        {
          "internalType": "address",
          "name": "",
          "type": "address"
        }
      ],
      "stateMutability": "view",
      "type": "function"
    },
    {
      "inputs": [
        {
          "internalType": "address",
          "name": "",
          "type": "address"
        }
      ],
      "name": "providers",
      "outputs": [
        {
          "internalType": "string",
          "name": "name",
          "type": "string"
        },
        {
          "internalType": "string",
          "name": "contactInfo",
          "type": "string"
        }
      ],
      "stateMutability": "view",
      "type": "function"
    },
    {
      "inputs": [
        {
          "internalType": "string",
          "name": "_name",
          "type": "string"
        },
        {
          "internalType": "string",
          "name": "_contactInfo",
          "type": "string"
        }
      ],
      "name": "registerProvider",
      "outputs": [],
      "stateMutability": "nonpayable",
      "type": "function"
    },
    {
      "inputs": [],
      "name": "twoerr",
      "outputs": [
        {
          "internalType": "address",
          "name": "",
          "type": "address"
        }
      ],
      "stateMutability": "view",
      "type": "function"
    }
  ],
  "bytecode": "0x608060405234801561001057600080fd5b506040516110973803806110978339818101604052810190610032919061011c565b336000806101000a81548173ffffffffffffffffffffffffffffffffffffffff021916908373ffffffffffffffffffffffffffffffffffffffff16021790555080600160006101000a81548173ffffffffffffffffffffffffffffffffffffffff021916908373ffffffffffffffffffffffffffffffffffffffff16021790555050610149565b600080fd5b600073ffffffffffffffffffffffffffffffffffffffff82169050919050565b60006100e9826100be565b9050919050565b6100f9816100de565b811461010457600080fd5b50565b600081519050610116816100f0565b92915050565b600060208284031215610132576101316100b9565b5b600061014084828501610107565b91505092915050565b610f3f806101586000396000f3fe608060405234801561001057600080fd5b50600436106100625760003560e01c80630787bc271461006757806374ca8971146100985780637a564df6146100b45780637e44b052146100d05780638da5cb5b146100ee5780639747ac5f1461010c575b600080fd5b610081600480360381019061007c91906106ed565b61013c565b60405161008f9291906107aa565b60405180910390f35b6100b260048036038101906100ad9190610916565b610270565b005b6100ce60048036038101906100c991906109c4565b61042f565b005b6100d861052d565b6040516100e59190610a13565b60405180910390f35b6100f6610551565b6040516101039190610a13565b60405180910390f35b610126600480360381019061012191906106ed565b610577565b6040516101339190610aec565b60405180910390f35b600260205280600052604060002060009150905080600001805461015f90610b3d565b80601f016020809104026020016040519081016040528092919081815260200182805461018b90610b3d565b80156101d85780601f106101ad576101008083540402835291602001916101d8565b820191906000526020600020905b8154815290600101906020018083116101bb57829003601f168201915b5050505050908060010180546101ed90610b3d565b80601f016020809104026020016040519081016040528092919081815260200182805461021990610b3d565b80156102665780601f1061023b57610100808354040283529160200191610266565b820191906000526020600020905b81548152906001019060200180831161024957829003601f168201915b5050505050905082565b6000600260003373ffffffffffffffffffffffffffffffffffffffff1673ffffffffffffffffffffffffffffffffffffffff16815260200190815260200160002060000180546102bf90610b3d565b905014610301576040517f08c379a00000000000000000000000000000000000000000000000000000000081526004016102f890610bba565b60405180910390fd5b6040518060600160405280838152602001828152602001600067ffffffffffffffff811115610333576103326107eb565b5b6040519080825280602002602001820160405280156103615781602001602082028036833780820191505090505b50815250600260003373ffffffffffffffffffffffffffffffffffffffff1673ffffffffffffffffffffffffffffffffffffffff16815260200190815260200160002060008201518160000190816103b99190610d86565b5060208201518160010190816103cf9190610d86565b5060408201518160020190805190602001906103ec929190610611565b509050507f6b1aa1e318762b7b04f60cd1d318222049b2c70c1c7daad0af5276d5f3b2525a33838360405161042393929190610e58565b60405180910390a15050565b6000600260008473ffffffffffffffffffffffffffffffffffffffff1673ffffffffffffffffffffffffffffffffffffffff168152602001908152602001600020600001805461047e90610b3d565b9050116104c0576040517f08c379a00000000000000000000000000000000000000000000000000000000081526004016104b790610ee9565b60405180910390fd5b600260008373ffffffffffffffffffffffffffffffffffffffff1673ffffffffffffffffffffffffffffffffffffffff1681526020019081526020016000206002018190806001815401808255809150506001900390600052602060002001600090919091909150555050565b60008054906101000a900473ffffffffffffffffffffffffffffffffffffffff1681565b600160009054906101000a900473ffffffffffffffffffffffffffffffffffffffff1681565b6060600260008373ffffffffffffffffffffffffffffffffffffffff1673ffffffffffffffffffffffffffffffffffffffff16815260200190815260200160002060020180548060200260200160405190810160405280929190818152602001828054801561060557602002820191906000526020600020905b8154815260200190600101908083116105f1575b50505050509050919050565b82805482825590600052602060002090810192821561064d579160200282015b8281111561064c578251825591602001919060010190610631565b5b50905061065a919061065e565b5090565b5b8082111561067757600081600090555060010161065f565b5090565b6000604051905090565b600080fd5b600080fd5b600073ffffffffffffffffffffffffffffffffffffffff82169050919050565b60006106ba8261068f565b9050919050565b6106ca816106af565b81146106d557600080fd5b50565b6000813590506106e7816106c1565b92915050565b60006020828403121561070357610702610685565b5b6000610711848285016106d8565b91505092915050565b600081519050919050565b600082825260208201905092915050565b60005b83811015610754578082015181840152602081019050610739565b60008484015250505050565b6000601f19601f8301169050919050565b600061077c8261071a565b6107868185610725565b9350610796818560208601610736565b61079f81610760565b840191505092915050565b600060408201905081810360008301526107c48185610771565b905081810360208301526107d88184610771565b90509392505050565b600080fd5b600080fd5b7f4e487b7100000000000000000000000000000000000000000000000000000000600052604160045260246000fd5b61082382610760565b810181811067ffffffffffffffff82111715610842576108416107eb565b5b80604052505050565b600061085561067b565b9050610861828261081a565b919050565b600067ffffffffffffffff821115610881576108806107eb565b5b61088a82610760565b9050602081019050919050565b82818337600083830152505050565b60006108b96108b484610866565b61084b565b9050828152602081018484840111156108d5576108d46107e6565b5b6108e0848285610897565b509392505050565b600082601f8301126108fd576108fc6107e1565b5b813561090d8482602086016108a6565b91505092915050565b6000806040838503121561092d5761092c610685565b5b600083013567ffffffffffffffff81111561094b5761094a61068a565b5b610957858286016108e8565b925050602083013567ffffffffffffffff8111156109785761097761068a565b5b610984858286016108e8565b9150509250929050565b6000819050919050565b6109a18161098e565b81146109ac57600080fd5b50565b6000813590506109be81610998565b92915050565b600080604083850312156109db576109da610685565b5b60006109e9858286016106d8565b92505060206109fa858286016109af565b9150509250929050565b610a0d816106af565b82525050565b6000602082019050610a286000830184610a04565b92915050565b600081519050919050565b600082825260208201905092915050565b6000819050602082019050919050565b610a638161098e565b82525050565b6000610a758383610a5a565b60208301905092915050565b6000602082019050919050565b6000610a9982610a2e565b610aa38185610a39565b9350610aae83610a4a565b8060005b83811015610adf578151610ac68882610a69565b9750610ad183610a81565b925050600181019050610ab2565b5085935050505092915050565b60006020820190508181036000830152610b068184610a8e565b905092915050565b7f4e487b7100000000000000000000000000000000000000000000000000000000600052602260045260246000fd5b60006002820490506001821680610b5557607f821691505b602082108103610b6857610b67610b0e565b5b50919050565b7f50726f766964657220616c726561647920726567697374657265640000000000600082015250565b6000610ba4601b83610725565b9150610baf82610b6e565b602082019050919050565b60006020820190508181036000830152610bd381610b97565b9050919050565b60008190508160005260206000209050919050565b60006020601f8301049050919050565b600082821b905092915050565b600060088302610c3c7fffffffffffffffffffffffffffffffffffffffffffffffffffffffffffffffff82610bff565b610c468683610bff565b95508019841693508086168417925050509392505050565b6000819050919050565b6000610c83610c7e610c798461098e565b610c5e565b61098e565b9050919050565b6000819050919050565b610c9d83610c68565b610cb1610ca982610c8a565b848454610c0c565b825550505050565b600090565b610cc6610cb9565b610cd1818484610c94565b505050565b5b81811015610cf557610cea600082610cbe565b600181019050610cd7565b5050565b601f821115610d3a57610d0b81610bda565b610d1484610bef565b81016020851015610d23578190505b610d37610d2f85610bef565b830182610cd6565b50505b505050565b600082821c905092915050565b6000610d5d60001984600802610d3f565b1980831691505092915050565b6000610d768383610d4c565b9150826002028217905092915050565b610d8f8261071a565b67ffffffffffffffff811115610da857610da76107eb565b5b610db28254610b3d565b610dbd828285610cf9565b600060209050601f831160018114610df05760008415610dde578287015190505b610de88582610d6a565b865550610e50565b601f198416610dfe86610bda565b60005b82811015610e2657848901518255600182019150602085019450602081019050610e01565b86831015610e435784890151610e3f601f891682610d4c565b8355505b6001600288020188555050505b505050505050565b6000606082019050610e6d6000830186610a04565b8181036020830152610e7f8185610771565b90508181036040830152610e938184610771565b9050949350505050565b7f50726f7669646572206e6f742072656769737465726564000000000000000000600082015250565b6000610ed3601783610725565b9150610ede82610e9d565b602082019050919050565b60006020820190508181036000830152610f0281610ec6565b905091905056fea264697066735822122092744e33683eabe60266c4e4ef184b116c57d47c1c37f95bf9374c1a30712a0d64736f6c634300081c0033",
  "linkReferences": {},
  "deployedLinkReferences": {}
}