{
  "_format": "hh-sol-artifact-1",
  "contractName": "Provider",
  "sourceName": "Contracts/Provider.sol",
  "abi": [
    {
      "inputs": [
        {
          "internalType": "address",
          "name": "_owner",
          "type": "address"
        }
      ],
      "stateMutability": "nonpayable",
      "type": "constructor"
    },
    {
      "anonymous": false,
      "inputs": [
        {
          "indexed": false,
          "internalType": "address",
          "name": "provider",
          "type": "address"
        },
        {
          "indexed": false,
          "internalType": "string",
          "name": "name",
          "type": "string"
        },
        {
          "indexed": false,
          "internalType": "string",
          "name": "contactInfo",
          "type": "string"
        }
      ],
      "name": "ProviderRegistered",
      "type": "event"
    },
    {
      "inputs": [
        {
          "internalType": "address",
          "name": "_provider",
          "type": "address"
        },
        {
          "internalType": "uint256",
          "name": "_serviceID",
          "type": "uint256"
        }
      ],
      "name": "createService",
      "outputs": [],
      "stateMutability": "nonpayable",
      "type": "function"
    },
    {
      "inputs": [
        {
          "internalType": "address",
          "name": "_provider",
          "type": "address"
        }
      ],
      "name": "getProviderServices",
      "outputs": [
        {
          "internalType": "uint256[]",
          "name": "",
          "type": "uint256[]"
        }
      ],
      "stateMutability": "view",
      "type": "function"
    },
    {
      "inputs": [],
      "name": "owner",
      "outputs": [
        {
          "internalType": "address",
          "name": "",
          "type": "address"
        }
      ],
      "stateMutability": "view",
      "type": "function"
    },
    {
      "inputs": [
        {
          "internalType": "address",
          "name": "",
          "type": "address"
        }
      ],
      "name": "providers",
      "outputs": [
        {
          "internalType": "string",
          "name": "name",
          "type": "string"
        },
        {
          "internalType": "string",
          "name": "contactInfo",
          "type": "string"
        }
      ],
      "stateMutability": "view",
      "type": "function"
    },
    {
      "inputs": [
        {
          "internalType": "string",
          "name": "_name",
          "type": "string"
        },
        {
          "internalType": "string",
          "name": "_contactInfo",
          "type": "string"
        }
      ],
      "name": "registerProvider",
      "outputs": [],
      "stateMutability": "nonpayable",
      "type": "function"
    },
    {
      "inputs": [],
      "name": "twoerr",
      "outputs": [
        {
          "internalType": "address",
          "name": "",
          "type": "address"
        }
      ],
      "stateMutability": "view",
      "type": "function"
    }
  ],
  "bytecode": "0x608060405234801561001057600080fd5b50604051610f9a380380610f9a8339818101604052810190610032919061011c565b336000806101000a81548173ffffffffffffffffffffffffffffffffffffffff021916908373ffffffffffffffffffffffffffffffffffffffff16021790555080600160006101000a81548173ffffffffffffffffffffffffffffffffffffffff021916908373ffffffffffffffffffffffffffffffffffffffff16021790555050610149565b600080fd5b600073ffffffffffffffffffffffffffffffffffffffff82169050919050565b60006100e9826100be565b9050919050565b6100f9816100de565b811461010457600080fd5b50565b600081519050610116816100f0565b92915050565b600060208284031215610132576101316100b9565b5b600061014084828501610107565b91505092915050565b610e42806101586000396000f3fe608060405234801561001057600080fd5b50600436106100625760003560e01c80630787bc271461006757806374ca8971146100985780637a564df6146100b45780637e44b052146100d05780638da5cb5b146100ee5780639747ac5f1461010c575b600080fd5b610081600480360381019061007c919061065c565b61013c565b60405161008f929190610719565b60405180910390f35b6100b260048036038101906100ad9190610885565b610270565b005b6100ce60048036038101906100c99190610933565b61042f565b005b6100d861049c565b6040516100e59190610982565b60405180910390f35b6100f66104c0565b6040516101039190610982565b60405180910390f35b6101266004803603810190610121919061065c565b6104e6565b6040516101339190610a5b565b60405180910390f35b600260205280600052604060002060009150905080600001805461015f90610aac565b80601f016020809104026020016040519081016040528092919081815260200182805461018b90610aac565b80156101d85780601f106101ad576101008083540402835291602001916101d8565b820191906000526020600020905b8154815290600101906020018083116101bb57829003601f168201915b5050505050908060010180546101ed90610aac565b80601f016020809104026020016040519081016040528092919081815260200182805461021990610aac565b80156102665780601f1061023b57610100808354040283529160200191610266565b820191906000526020600020905b81548152906001019060200180831161024957829003601f168201915b5050505050905082565b6000600260003373ffffffffffffffffffffffffffffffffffffffff1673ffffffffffffffffffffffffffffffffffffffff16815260200190815260200160002060000180546102bf90610aac565b905014610301576040517f08c379a00000000000000000000000000000000000000000000000000000000081526004016102f890610b29565b60405180910390fd5b6040518060600160405280838152602001828152602001600067ffffffffffffffff8111156103335761033261075a565b5b6040519080825280602002602001820160405280156103615781602001602082028036833780820191505090505b50815250600260003373ffffffffffffffffffffffffffffffffffffffff1673ffffffffffffffffffffffffffffffffffffffff16815260200190815260200160002060008201518160000190816103b99190610cf5565b5060208201518160010190816103cf9190610cf5565b5060408201518160020190805190602001906103ec929190610580565b509050507f6b1aa1e318762b7b04f60cd1d318222049b2c70c1c7daad0af5276d5f3b2525a33838360405161042393929190610dc7565b60405180910390a15050565b600260008373ffffffffffffffffffffffffffffffffffffffff1673ffffffffffffffffffffffffffffffffffffffff1681526020019081526020016000206002018190806001815401808255809150506001900390600052602060002001600090919091909150555050565b60008054906101000a900473ffffffffffffffffffffffffffffffffffffffff1681565b600160009054906101000a900473ffffffffffffffffffffffffffffffffffffffff1681565b6060600260008373ffffffffffffffffffffffffffffffffffffffff1673ffffffffffffffffffffffffffffffffffffffff16815260200190815260200160002060020180548060200260200160405190810160405280929190818152602001828054801561057457602002820191906000526020600020905b815481526020019060010190808311610560575b50505050509050919050565b8280548282559060005260206000209081019282156105bc579160200282015b828111156105bb5782518255916020019190600101906105a0565b5b5090506105c991906105cd565b5090565b5b808211156105e65760008160009055506001016105ce565b5090565b6000604051905090565b600080fd5b600080fd5b600073ffffffffffffffffffffffffffffffffffffffff82169050919050565b6000610629826105fe565b9050919050565b6106398161061e565b811461064457600080fd5b50565b60008135905061065681610630565b92915050565b600060208284031215610672576106716105f4565b5b600061068084828501610647565b91505092915050565b600081519050919050565b600082825260208201905092915050565b60005b838110156106c35780820151818401526020810190506106a8565b60008484015250505050565b6000601f19601f8301169050919050565b60006106eb82610689565b6106f58185610694565b93506107058185602086016106a5565b61070e816106cf565b840191505092915050565b6000604082019050818103600083015261073381856106e0565b9050818103602083015261074781846106e0565b90509392505050565b600080fd5b600080fd5b7f4e487b7100000000000000000000000000000000000000000000000000000000600052604160045260246000fd5b610792826106cf565b810181811067ffffffffffffffff821117156107b1576107b061075a565b5b80604052505050565b60006107c46105ea565b90506107d08282610789565b919050565b600067ffffffffffffffff8211156107f0576107ef61075a565b5b6107f9826106cf565b9050602081019050919050565b82818337600083830152505050565b6000610828610823846107d5565b6107ba565b90508281526020810184848401111561084457610843610755565b5b61084f848285610806565b509392505050565b600082601f83011261086c5761086b610750565b5b813561087c848260208601610815565b91505092915050565b6000806040838503121561089c5761089b6105f4565b5b600083013567ffffffffffffffff8111156108ba576108b96105f9565b5b6108c685828601610857565b925050602083013567ffffffffffffffff8111156108e7576108e66105f9565b5b6108f385828601610857565b9150509250929050565b6000819050919050565b610910816108fd565b811461091b57600080fd5b50565b60008135905061092d81610907565b92915050565b6000806040838503121561094a576109496105f4565b5b600061095885828601610647565b92505060206109698582860161091e565b9150509250929050565b61097c8161061e565b82525050565b60006020820190506109976000830184610973565b92915050565b600081519050919050565b600082825260208201905092915050565b6000819050602082019050919050565b6109d2816108fd565b82525050565b60006109e483836109c9565b60208301905092915050565b6000602082019050919050565b6000610a088261099d565b610a1281856109a8565b9350610a1d836109b9565b8060005b83811015610a4e578151610a3588826109d8565b9750610a40836109f0565b925050600181019050610a21565b5085935050505092915050565b60006020820190508181036000830152610a7581846109fd565b905092915050565b7f4e487b7100000000000000000000000000000000000000000000000000000000600052602260045260246000fd5b60006002820490506001821680610ac457607f821691505b602082108103610ad757610ad6610a7d565b5b50919050565b7f50726f766964657220616c726561647920726567697374657265640000000000600082015250565b6000610b13601b83610694565b9150610b1e82610add565b602082019050919050565b60006020820190508181036000830152610b4281610b06565b9050919050565b60008190508160005260206000209050919050565b60006020601f8301049050919050565b600082821b905092915050565b600060088302610bab7fffffffffffffffffffffffffffffffffffffffffffffffffffffffffffffffff82610b6e565b610bb58683610b6e565b95508019841693508086168417925050509392505050565b6000819050919050565b6000610bf2610bed610be8846108fd565b610bcd565b6108fd565b9050919050565b6000819050919050565b610c0c83610bd7565b610c20610c1882610bf9565b848454610b7b565b825550505050565b600090565b610c35610c28565b610c40818484610c03565b505050565b5b81811015610c6457610c59600082610c2d565b600181019050610c46565b5050565b601f821115610ca957610c7a81610b49565b610c8384610b5e565b81016020851015610c92578190505b610ca6610c9e85610b5e565b830182610c45565b50505b505050565b600082821c905092915050565b6000610ccc60001984600802610cae565b1980831691505092915050565b6000610ce58383610cbb565b9150826002028217905092915050565b610cfe82610689565b67ffffffffffffffff811115610d1757610d1661075a565b5b610d218254610aac565b610d2c828285610c68565b600060209050601f831160018114610d5f5760008415610d4d578287015190505b610d578582610cd9565b865550610dbf565b601f198416610d6d86610b49565b60005b82811015610d9557848901518255600182019150602085019450602081019050610d70565b86831015610db25784890151610dae601f891682610cbb565b8355505b6001600288020188555050505b505050505050565b6000606082019050610ddc6000830186610973565b8181036020830152610dee81856106e0565b90508181036040830152610e0281846106e0565b905094935050505056fea26469706673582212205e16be41b6eedf895fc75e8794a3fa828a4c88c32f6c9aef635b4c759fd3348a64736f6c634300081c0033",
  "linkReferences": {},
  "deployedLinkReferences": {}
}