{
  "_format": "hh-sol-artifact-1",
  "contractName": "PriceConverter",
  "sourceName": "Contracts/Conversion.sol",
  "abi": [
    {
      "inputs": [
        {
          "internalType": "address",
          "name": "_priceFeed",
          "type": "address"
        }
      ],
      "stateMutability": "nonpayable",
      "type": "constructor"
    },
    {
      "stateMutability": "payable",
      "type": "fallback"
    },
    {
      "inputs": [
        {
          "internalType": "uint256",
          "name": "amountInUSD",
          "type": "uint256"
        }
      ],
      "name": "getConversionRateFromUSD",
      "outputs": [
        {
          "internalType": "uint256",
          "name": "",
          "type": "uint256"
        }
      ],
      "stateMutability": "view",
      "type": "function"
    },
    {
      "inputs": [
        {
          "internalType": "uint256",
          "name": "amountInETH",
          "type": "uint256"
        }
      ],
      "name": "getConversionRateToUSD",
      "outputs": [
        {
          "internalType": "uint256",
          "name": "",
          "type": "uint256"
        }
      ],
      "stateMutability": "view",
      "type": "function"
    },
    {
      "stateMutability": "payable",
      "type": "receive"
    }
  ],
  "bytecode": "0x608060405234801561001057600080fd5b50604051610618380380610618833981810160405281019061003291906100db565b806000806101000a81548173ffffffffffffffffffffffffffffffffffffffff021916908373ffffffffffffffffffffffffffffffffffffffff16021790555050610108565b600080fd5b600073ffffffffffffffffffffffffffffffffffffffff82169050919050565b60006100a88261007d565b9050919050565b6100b88161009d565b81146100c357600080fd5b50565b6000815190506100d5816100af565b92915050565b6000602082840312156100f1576100f0610078565b5b60006100ff848285016100c6565b91505092915050565b610501806101176000396000f3fe60806040526004361061002d5760003560e01c806375373860146100305780638b7cbc7e1461006d5761002e565b5b005b34801561003c57600080fd5b506100576004803603810190610052919061029b565b6100aa565b60405161006491906102d7565b60405180910390f35b34801561007957600080fd5b50610094600480360381019061008f919061029b565b610185565b6040516100a191906102d7565b60405180910390f35b60008060008054906101000a900473ffffffffffffffffffffffffffffffffffffffff1673ffffffffffffffffffffffffffffffffffffffff1663feaf968c6040518163ffffffff1660e01b815260040160a060405180830381865afa158015610118573d6000803e3d6000fd5b505050506040513d601f19601f8201168201806040525081019061013c919061037f565b50505091505060006402540be400826101559190610429565b90506000670de0b6b3a7640000828661016e9190610429565b610178919061049a565b9050809350505050919050565b60008060008054906101000a900473ffffffffffffffffffffffffffffffffffffffff1673ffffffffffffffffffffffffffffffffffffffff1663feaf968c6040518163ffffffff1660e01b815260040160a060405180830381865afa1580156101f3573d6000803e3d6000fd5b505050506040513d601f19601f82011682018060405250810190610217919061037f565b50505091505060006402540be400826102309190610429565b9050600081670de0b6b3a7640000866102499190610429565b610253919061049a565b9050809350505050919050565b600080fd5b6000819050919050565b61027881610265565b811461028357600080fd5b50565b6000813590506102958161026f565b92915050565b6000602082840312156102b1576102b0610260565b5b60006102bf84828501610286565b91505092915050565b6102d181610265565b82525050565b60006020820190506102ec60008301846102c8565b92915050565b600069ffffffffffffffffffff82169050919050565b610311816102f2565b811461031c57600080fd5b50565b60008151905061032e81610308565b92915050565b6000819050919050565b61034781610334565b811461035257600080fd5b50565b6000815190506103648161033e565b92915050565b6000815190506103798161026f565b92915050565b600080600080600060a0868803121561039b5761039a610260565b5b60006103a98882890161031f565b95505060206103ba88828901610355565b94505060406103cb8882890161036a565b93505060606103dc8882890161036a565b92505060806103ed8882890161031f565b9150509295509295909350565b7f4e487b7100000000000000000000000000000000000000000000000000000000600052601160045260246000fd5b600061043482610265565b915061043f83610265565b925082820261044d81610265565b91508282048414831517610464576104636103fa565b5b5092915050565b7f4e487b7100000000000000000000000000000000000000000000000000000000600052601260045260246000fd5b60006104a582610265565b91506104b083610265565b9250826104c0576104bf61046b565b5b82820490509291505056fea264697066735822122039e4174efad831e1190f0973ecb70b55af5bc37da2af9caf9cff00da017fdbf164736f6c634300081c0033",
  "linkReferences": {},
  "deployedLinkReferences": {}
}