{
  "_format": "hh-sol-artifact-1",
  "contractName": "PriceConverter",
  "sourceName": "Contracts/Conversion.sol",
  "abi": [
    {
      "inputs": [
        {
          "internalType": "address",
          "name": "_priceFeed",
          "type": "address"
        }
      ],
      "stateMutability": "nonpayable",
      "type": "constructor"
    },
    {
      "stateMutability": "payable",
      "type": "fallback"
    },
    {
      "inputs": [
        {
          "internalType": "uint256",
          "name": "amountInUSD",
          "type": "uint256"
        }
      ],
      "name": "getConversionRateFromUSD",
      "outputs": [
        {
          "internalType": "uint256",
          "name": "",
          "type": "uint256"
        }
      ],
      "stateMutability": "view",
      "type": "function"
    },
    {
      "inputs": [
        {
          "internalType": "uint256",
          "name": "amountInETH",
          "type": "uint256"
        }
      ],
      "name": "getConversionRateToUSD",
      "outputs": [
        {
          "internalType": "uint256",
          "name": "",
          "type": "uint256"
        }
      ],
      "stateMutability": "view",
      "type": "function"
    },
    {
      "stateMutability": "payable",
      "type": "receive"
    }
  ],
  "bytecode": "0x608060405234801561001057600080fd5b506040516107a43803806107a48339818101604052810190610032919061014a565b600073ffffffffffffffffffffffffffffffffffffffff168173ffffffffffffffffffffffffffffffffffffffff16036100a1576040517f08c379a0000000000000000000000000000000000000000000000000000000008152600401610098906101d4565b60405180910390fd5b806000806101000a81548173ffffffffffffffffffffffffffffffffffffffff021916908373ffffffffffffffffffffffffffffffffffffffff160217905550506101f4565b600080fd5b600073ffffffffffffffffffffffffffffffffffffffff82169050919050565b6000610117826100ec565b9050919050565b6101278161010c565b811461013257600080fd5b50565b6000815190506101448161011e565b92915050565b6000602082840312156101605761015f6100e7565b5b600061016e84828501610135565b91505092915050565b600082825260208201905092915050565b7f496e76616c696420707269636520666565642061646472657373000000000000600082015250565b60006101be601a83610177565b91506101c982610188565b602082019050919050565b600060208201905081810360008301526101ed816101b1565b9050919050565b6105a1806102036000396000f3fe60806040526004361061002d5760003560e01c806375373860146100305780638b7cbc7e1461006d5761002e565b5b005b34801561003c57600080fd5b50610057600480360381019061005291906102be565b6100aa565b60405161006491906102fa565b60405180910390f35b34801561007957600080fd5b50610094600480360381019061008f91906102be565b610175565b6040516100a191906102fa565b60405180910390f35b60008060008054906101000a900473ffffffffffffffffffffffffffffffffffffffff1673ffffffffffffffffffffffffffffffffffffffff1663feaf968c6040518163ffffffff1660e01b815260040160a060405180830381865afa158015610118573d6000803e3d6000fd5b505050506040513d601f19601f8201168201806040525081019061013c91906103a2565b50505091505060008190506000670de0b6b3a7640000828661015e919061044c565b61016891906104bd565b9050809350505050919050565b60008060008054906101000a900473ffffffffffffffffffffffffffffffffffffffff1673ffffffffffffffffffffffffffffffffffffffff1663feaf968c6040518163ffffffff1660e01b815260040160a060405180830381865afa1580156101e3573d6000803e3d6000fd5b505050506040513d601f19601f8201168201806040525081019061020791906103a2565b50505091505060008113610250576040517f08c379a00000000000000000000000000000000000000000000000000000000081526004016102479061054b565b60405180910390fd5b6000819050600081670de0b6b3a76400008661026c919061044c565b61027691906104bd565b9050809350505050919050565b600080fd5b6000819050919050565b61029b81610288565b81146102a657600080fd5b50565b6000813590506102b881610292565b92915050565b6000602082840312156102d4576102d3610283565b5b60006102e2848285016102a9565b91505092915050565b6102f481610288565b82525050565b600060208201905061030f60008301846102eb565b92915050565b600069ffffffffffffffffffff82169050919050565b61033481610315565b811461033f57600080fd5b50565b6000815190506103518161032b565b92915050565b6000819050919050565b61036a81610357565b811461037557600080fd5b50565b60008151905061038781610361565b92915050565b60008151905061039c81610292565b92915050565b600080600080600060a086880312156103be576103bd610283565b5b60006103cc88828901610342565b95505060206103dd88828901610378565b94505060406103ee8882890161038d565b93505060606103ff8882890161038d565b925050608061041088828901610342565b9150509295509295909350565b7f4e487b7100000000000000000000000000000000000000000000000000000000600052601160045260246000fd5b600061045782610288565b915061046283610288565b925082820261047081610288565b915082820484148315176104875761048661041d565b5b5092915050565b7f4e487b7100000000000000000000000000000000000000000000000000000000600052601260045260246000fd5b60006104c882610288565b91506104d383610288565b9250826104e3576104e261048e565b5b828204905092915050565b600082825260208201905092915050565b7f496e76616c696420707269636520646174610000000000000000000000000000600082015250565b60006105356012836104ee565b9150610540826104ff565b602082019050919050565b6000602082019050818103600083015261056481610528565b905091905056fea264697066735822122098e973721c26f061893147f8e63236a22ab5979eacb2e54a43b32c3f84a3652364736f6c634300081c0033",
  "linkReferences": {},
  "deployedLinkReferences": {}
}