{
  "_format": "hh-sol-artifact-1",
  "contractName": "Client",
  "sourceName": "Contracts/Client.sol",
  "abi": [
    {
      "inputs": [
        {
          "internalType": "address",
          "name": "_client",
          "type": "address"
        }
      ],
      "stateMutability": "nonpayable",
      "type": "constructor"
    },
    {
      "anonymous": false,
      "inputs": [
        {
          "indexed": false,
          "internalType": "address",
          "name": "client",
          "type": "address"
        },
        {
          "indexed": false,
          "internalType": "string",
          "name": "name",
          "type": "string"
        },
        {
          "indexed": false,
          "internalType": "string",
          "name": "contactInfo",
          "type": "string"
        }
      ],
      "name": "ClientRegistered",
      "type": "event"
    },
    {
      "inputs": [],
      "name": "client",
      "outputs": [
        {
          "internalType": "address",
          "name": "",
          "type": "address"
        }
      ],
      "stateMutability": "view",
      "type": "function"
    },
    {
      "inputs": [
        {
          "internalType": "address",
          "name": "",
          "type": "address"
        }
      ],
      "name": "clients",
      "outputs": [
        {
          "internalType": "string",
          "name": "name",
          "type": "string"
        },
        {
          "internalType": "string",
          "name": "contactInfo",
          "type": "string"
        }
      ],
      "stateMutability": "view",
      "type": "function"
    },
    {
      "inputs": [
        {
          "internalType": "uint256",
          "name": "_serviceId",
          "type": "uint256"
        }
      ],
      "name": "placeOrder",
      "outputs": [],
      "stateMutability": "payable",
      "type": "function"
    },
    {
      "inputs": [
        {
          "internalType": "string",
          "name": "_name",
          "type": "string"
        },
        {
          "internalType": "string",
          "name": "_contactInfo",
          "type": "string"
        }
      ],
      "name": "registerClient",
      "outputs": [],
      "stateMutability": "nonpayable",
      "type": "function"
    },
    {
      "inputs": [],
      "name": "twoerrContract",
      "outputs": [
        {
          "internalType": "address",
          "name": "",
          "type": "address"
        }
      ],
      "stateMutability": "view",
      "type": "function"
    }
  ],
  "bytecode": "0x608060405234801561001057600080fd5b50604051610df8380380610df88339818101604052810190610032919061011c565b336000806101000a81548173ffffffffffffffffffffffffffffffffffffffff021916908373ffffffffffffffffffffffffffffffffffffffff16021790555080600160006101000a81548173ffffffffffffffffffffffffffffffffffffffff021916908373ffffffffffffffffffffffffffffffffffffffff16021790555050610149565b600080fd5b600073ffffffffffffffffffffffffffffffffffffffff82169050919050565b60006100e9826100be565b9050919050565b6100f9816100de565b811461010457600080fd5b50565b600081519050610116816100f0565b92915050565b600060208284031215610132576101316100b9565b5b600061014084828501610107565b91505092915050565b610ca0806101586000396000f3fe60806040526004361061004a5760003560e01c8063109e94cf1461004f5780634364d9731461007a5780634dc8b5ad146100a357806361eed2a9146100ce578063ba2255f41461010c575b600080fd5b34801561005b57600080fd5b50610064610128565b604051610071919061057c565b60405180910390f35b34801561008657600080fd5b506100a1600480360381019061009c91906106f1565b61014e565b005b3480156100af57600080fd5b506100b861030d565b6040516100c5919061057c565b60405180910390f35b3480156100da57600080fd5b506100f560048036038101906100f09190610795565b610331565b604051610103929190610841565b60405180910390f35b610126600480360381019061012191906108ae565b610465565b005b600160009054906101000a900473ffffffffffffffffffffffffffffffffffffffff1681565b6000600260003373ffffffffffffffffffffffffffffffffffffffff1673ffffffffffffffffffffffffffffffffffffffff168152602001908152602001600020600001805461019d9061090a565b9050146101df576040517f08c379a00000000000000000000000000000000000000000000000000000000081526004016101d690610987565b60405180910390fd5b6040518060600160405280838152602001828152602001600067ffffffffffffffff811115610211576102106105c6565b5b60405190808252806020026020018201604052801561023f5781602001602082028036833780820191505090505b50815250600260003373ffffffffffffffffffffffffffffffffffffffff1673ffffffffffffffffffffffffffffffffffffffff16815260200190815260200160002060008201518160000190816102979190610b53565b5060208201518160010190816102ad9190610b53565b5060408201518160020190805190602001906102ca9291906104d1565b509050507f1025bdb6b76865923b7ef0110209e86a13907f76e8d86809244ca191baacde4733838360405161030193929190610c25565b60405180910390a15050565b60008054906101000a900473ffffffffffffffffffffffffffffffffffffffff1681565b60026020528060005260406000206000915090508060000180546103549061090a565b80601f01602080910402602001604051908101604052809291908181526020018280546103809061090a565b80156103cd5780601f106103a2576101008083540402835291602001916103cd565b820191906000526020600020905b8154815290600101906020018083116103b057829003601f168201915b5050505050908060010180546103e29061090a565b80601f016020809104026020016040519081016040528092919081815260200182805461040e9061090a565b801561045b5780601f106104305761010080835404028352916020019161045b565b820191906000526020600020905b81548152906001019060200180831161043e57829003601f168201915b5050505050905082565b600260003373ffffffffffffffffffffffffffffffffffffffff1673ffffffffffffffffffffffffffffffffffffffff16815260200190815260200160002060020181908060018154018082558091505060019003906000526020600020016000909190919091505550565b82805482825590600052602060002090810192821561050d579160200282015b8281111561050c5782518255916020019190600101906104f1565b5b50905061051a919061051e565b5090565b5b8082111561053757600081600090555060010161051f565b5090565b600073ffffffffffffffffffffffffffffffffffffffff82169050919050565b60006105668261053b565b9050919050565b6105768161055b565b82525050565b6000602082019050610591600083018461056d565b92915050565b6000604051905090565b600080fd5b600080fd5b600080fd5b600080fd5b6000601f19601f8301169050919050565b7f4e487b7100000000000000000000000000000000000000000000000000000000600052604160045260246000fd5b6105fe826105b5565b810181811067ffffffffffffffff8211171561061d5761061c6105c6565b5b80604052505050565b6000610630610597565b905061063c82826105f5565b919050565b600067ffffffffffffffff82111561065c5761065b6105c6565b5b610665826105b5565b9050602081019050919050565b82818337600083830152505050565b600061069461068f84610641565b610626565b9050828152602081018484840111156106b0576106af6105b0565b5b6106bb848285610672565b509392505050565b600082601f8301126106d8576106d76105ab565b5b81356106e8848260208601610681565b91505092915050565b60008060408385031215610708576107076105a1565b5b600083013567ffffffffffffffff811115610726576107256105a6565b5b610732858286016106c3565b925050602083013567ffffffffffffffff811115610753576107526105a6565b5b61075f858286016106c3565b9150509250929050565b6107728161055b565b811461077d57600080fd5b50565b60008135905061078f81610769565b92915050565b6000602082840312156107ab576107aa6105a1565b5b60006107b984828501610780565b91505092915050565b600081519050919050565b600082825260208201905092915050565b60005b838110156107fc5780820151818401526020810190506107e1565b60008484015250505050565b6000610813826107c2565b61081d81856107cd565b935061082d8185602086016107de565b610836816105b5565b840191505092915050565b6000604082019050818103600083015261085b8185610808565b9050818103602083015261086f8184610808565b90509392505050565b6000819050919050565b61088b81610878565b811461089657600080fd5b50565b6000813590506108a881610882565b92915050565b6000602082840312156108c4576108c36105a1565b5b60006108d284828501610899565b91505092915050565b7f4e487b7100000000000000000000000000000000000000000000000000000000600052602260045260246000fd5b6000600282049050600182168061092257607f821691505b602082108103610935576109346108db565b5b50919050565b7f436c69656e7420616c7265616479207265676973746572656400000000000000600082015250565b60006109716019836107cd565b915061097c8261093b565b602082019050919050565b600060208201905081810360008301526109a081610964565b9050919050565b60008190508160005260206000209050919050565b60006020601f8301049050919050565b600082821b905092915050565b600060088302610a097fffffffffffffffffffffffffffffffffffffffffffffffffffffffffffffffff826109cc565b610a1386836109cc565b95508019841693508086168417925050509392505050565b6000819050919050565b6000610a50610a4b610a4684610878565b610a2b565b610878565b9050919050565b6000819050919050565b610a6a83610a35565b610a7e610a7682610a57565b8484546109d9565b825550505050565b600090565b610a93610a86565b610a9e818484610a61565b505050565b5b81811015610ac257610ab7600082610a8b565b600181019050610aa4565b5050565b601f821115610b0757610ad8816109a7565b610ae1846109bc565b81016020851015610af0578190505b610b04610afc856109bc565b830182610aa3565b50505b505050565b600082821c905092915050565b6000610b2a60001984600802610b0c565b1980831691505092915050565b6000610b438383610b19565b9150826002028217905092915050565b610b5c826107c2565b67ffffffffffffffff811115610b7557610b746105c6565b5b610b7f825461090a565b610b8a828285610ac6565b600060209050601f831160018114610bbd5760008415610bab578287015190505b610bb58582610b37565b865550610c1d565b601f198416610bcb866109a7565b60005b82811015610bf357848901518255600182019150602085019450602081019050610bce565b86831015610c105784890151610c0c601f891682610b19565b8355505b6001600288020188555050505b505050505050565b6000606082019050610c3a600083018661056d565b8181036020830152610c4c8185610808565b90508181036040830152610c608184610808565b905094935050505056fea2646970667358221220319e7911427148f4ea0f650e04c7bab15a7e2994ac2f8d108053bf1de72846d864736f6c634300081c0033",
  "linkReferences": {},
  "deployedLinkReferences": {}
}