{
  "_format": "hh-sol-artifact-1",
  "contractName": "MockV3Aggregator",
  "sourceName": "Contracts/MockV3Aggregator.sol",
  "abi": [
    {
      "inputs": [
        {
          "internalType": "uint8",
          "name": "decimals_",
          "type": "uint8"
        },
        {
          "internalType": "int256",
          "name": "initialAnswer",
          "type": "int256"
        }
      ],
      "stateMutability": "nonpayable",
      "type": "constructor"
    },
    {
      "inputs": [],
      "name": "decimals",
      "outputs": [
        {
          "internalType": "uint8",
          "name": "",
          "type": "uint8"
        }
      ],
      "stateMutability": "view",
      "type": "function"
    },
    {
      "inputs": [],
      "name": "description",
      "outputs": [
        {
          "internalType": "string",
          "name": "",
          "type": "string"
        }
      ],
      "stateMutability": "pure",
      "type": "function"
    },
    {
      "inputs": [
        {
          "internalType": "uint80",
          "name": "roundId",
          "type": "uint80"
        }
      ],
      "name": "getRoundData",
      "outputs": [
        {
          "internalType": "uint80",
          "name": "",
          "type": "uint80"
        },
        {
          "internalType": "int256",
          "name": "",
          "type": "int256"
        },
        {
          "internalType": "uint256",
          "name": "",
          "type": "uint256"
        },
        {
          "internalType": "uint256",
          "name": "",
          "type": "uint256"
        },
        {
          "internalType": "uint80",
          "name": "",
          "type": "uint80"
        }
      ],
      "stateMutability": "view",
      "type": "function"
    },
    {
      "inputs": [],
      "name": "latestRoundData",
      "outputs": [
        {
          "internalType": "uint80",
          "name": "roundId",
          "type": "uint80"
        },
        {
          "internalType": "int256",
          "name": "answer",
          "type": "int256"
        },
        {
          "internalType": "uint256",
          "name": "startedAt",
          "type": "uint256"
        },
        {
          "internalType": "uint256",
          "name": "updatedAt",
          "type": "uint256"
        },
        {
          "internalType": "uint80",
          "name": "answeredInRound",
          "type": "uint80"
        }
      ],
      "stateMutability": "view",
      "type": "function"
    },
    {
      "inputs": [
        {
          "internalType": "int256",
          "name": "newAnswer",
          "type": "int256"
        }
      ],
      "name": "updateAnswer",
      "outputs": [],
      "stateMutability": "nonpayable",
      "type": "function"
    },
    {
      "inputs": [],
      "name": "version",
      "outputs": [
        {
          "internalType": "uint256",
          "name": "",
          "type": "uint256"
        }
      ],
      "stateMutability": "pure",
      "type": "function"
    }
  ],
  "bytecode": "0x608060405234801561001057600080fd5b50604051610597380380610597833981810160405281019061003291906100ce565b816000806101000a81548160ff021916908360ff16021790555080600181905550505061010e565b600080fd5b600060ff82169050919050565b6100758161005f565b811461008057600080fd5b50565b6000815190506100928161006c565b92915050565b6000819050919050565b6100ab81610098565b81146100b657600080fd5b50565b6000815190506100c8816100a2565b92915050565b600080604083850312156100e5576100e461005a565b5b60006100f385828601610083565b9250506020610104858286016100b9565b9150509250929050565b61047a8061011d6000396000f3fe608060405234801561001057600080fd5b50600436106100625760003560e01c8063313ce5671461006757806354fd4d50146100855780637284e416146100a35780639a6fc8f5146100c1578063a87a20ce146100f5578063feaf968c14610111575b600080fd5b61006f610133565b60405161007c91906101fb565b60405180910390f35b61008d610149565b60405161009a919061022f565b60405180910390f35b6100ab610152565b6040516100b891906102da565b60405180910390f35b6100db60048036038101906100d69190610343565b61018f565b6040516100ec959493929190610398565b60405180910390f35b61010f600480360381019061010a9190610417565b6101b3565b005b6101196101bd565b60405161012a959493929190610398565b60405180910390f35b60008060009054906101000a900460ff16905090565b60006001905090565b60606040518060400160405280601981526020017f4d6f636b20436861696e6c696e6b2041676772656761746f7200000000000000815250905090565b60008060008060008560015460008060009450945094509450945091939590929450565b8060018190555050565b6000806000806000806001546000806000945094509450945094509091929394565b600060ff82169050919050565b6101f5816101df565b82525050565b600060208201905061021060008301846101ec565b92915050565b6000819050919050565b61022981610216565b82525050565b60006020820190506102446000830184610220565b92915050565b600081519050919050565b600082825260208201905092915050565b60005b83811015610284578082015181840152602081019050610269565b60008484015250505050565b6000601f19601f8301169050919050565b60006102ac8261024a565b6102b68185610255565b93506102c6818560208601610266565b6102cf81610290565b840191505092915050565b600060208201905081810360008301526102f481846102a1565b905092915050565b600080fd5b600069ffffffffffffffffffff82169050919050565b61032081610301565b811461032b57600080fd5b50565b60008135905061033d81610317565b92915050565b600060208284031215610359576103586102fc565b5b60006103678482850161032e565b91505092915050565b61037981610301565b82525050565b6000819050919050565b6103928161037f565b82525050565b600060a0820190506103ad6000830188610370565b6103ba6020830187610389565b6103c76040830186610220565b6103d46060830185610220565b6103e16080830184610370565b9695505050505050565b6103f48161037f565b81146103ff57600080fd5b50565b600081359050610411816103eb565b92915050565b60006020828403121561042d5761042c6102fc565b5b600061043b84828501610402565b9150509291505056fea26469706673582212208d51ac3c628d02afe75897328899627d5fe51b10a06da52ec3ecfac5b597105564736f6c634300081c0033",
  "linkReferences": {},
  "deployedLinkReferences": {}
}