{
  "_format": "hh-sol-artifact-1",
  "contractName": "Twoerr",
  "sourceName": "Contracts/Twoerr.sol",
  "abi": [
    {
      "inputs": [
        {
          "internalType": "address",
          "name": "_provider",
          "type": "address"
        },
        {
          "internalType": "address",
          "name": "_client",
          "type": "address"
        }
      ],
      "stateMutability": "nonpayable",
      "type": "constructor"
    },
    {
      "anonymous": false,
      "inputs": [
        {
          "indexed": false,
          "internalType": "uint256",
          "name": "id",
          "type": "uint256"
        }
      ],
      "name": "OrderCompleted",
      "type": "event"
    },
    {
      "anonymous": false,
      "inputs": [
        {
          "indexed": false,
          "internalType": "uint256",
          "name": "id",
          "type": "uint256"
        },
        {
          "indexed": false,
          "internalType": "uint256",
          "name": "serviceId",
          "type": "uint256"
        },
        {
          "indexed": false,
          "internalType": "address",
          "name": "client",
          "type": "address"
        },
        {
          "indexed": false,
          "internalType": "uint256",
          "name": "amount",
          "type": "uint256"
        }
      ],
      "name": "OrderPlaced",
      "type": "event"
    },
    {
      "anonymous": false,
      "inputs": [
        {
          "indexed": false,
          "internalType": "uint256",
          "name": "orderId",
          "type": "uint256"
        },
        {
          "indexed": false,
          "internalType": "uint256",
          "name": "rating",
          "type": "uint256"
        },
        {
          "indexed": false,
          "internalType": "string",
          "name": "comment",
          "type": "string"
        }
      ],
      "name": "ReviewLeft",
      "type": "event"
    },
    {
      "anonymous": false,
      "inputs": [
        {
          "indexed": false,
          "internalType": "uint256",
          "name": "id",
          "type": "uint256"
        },
        {
          "indexed": false,
          "internalType": "address",
          "name": "provider",
          "type": "address"
        },
        {
          "indexed": false,
          "internalType": "string",
          "name": "title",
          "type": "string"
        },
        {
          "indexed": false,
          "internalType": "uint256",
          "name": "price",
          "type": "uint256"
        }
      ],
      "name": "ServiceCreated",
      "type": "event"
    },
    {
      "inputs": [
        {
          "components": [
            {
              "internalType": "uint256",
              "name": "id",
              "type": "uint256"
            },
            {
              "internalType": "uint256",
              "name": "serviceId",
              "type": "uint256"
            },
            {
              "internalType": "address payable",
              "name": "client",
              "type": "address"
            },
            {
              "internalType": "address payable",
              "name": "provider",
              "type": "address"
            },
            {
              "internalType": "uint256",
              "name": "price",
              "type": "uint256"
            },
            {
              "internalType": "bool",
              "name": "isCompleted",
              "type": "bool"
            }
          ],
          "internalType": "struct Twoerr.Order[]",
          "name": "_orders",
          "type": "tuple[]"
        },
        {
          "internalType": "address",
          "name": "_provider",
          "type": "address"
        }
      ],
      "name": "CalculateEarnings",
      "outputs": [
        {
          "internalType": "uint256",
          "name": "",
          "type": "uint256"
        }
      ],
      "stateMutability": "pure",
      "type": "function"
    },
    {
      "inputs": [],
      "name": "clientContract",
      "outputs": [
        {
          "internalType": "contract Client",
          "name": "",
          "type": "address"
        }
      ],
      "stateMutability": "view",
      "type": "function"
    },
    {
      "inputs": [
        {
          "internalType": "uint256",
          "name": "_orderId",
          "type": "uint256"
        }
      ],
      "name": "completeOrder",
      "outputs": [],
      "stateMutability": "nonpayable",
      "type": "function"
    },
    {
      "inputs": [
        {
          "internalType": "string",
          "name": "_title",
          "type": "string"
        },
        {
          "internalType": "string",
          "name": "_description",
          "type": "string"
        },
        {
          "internalType": "uint256",
          "name": "_price",
          "type": "uint256"
        }
      ],
      "name": "createService",
      "outputs": [],
      "stateMutability": "nonpayable",
      "type": "function"
    },
    {
      "inputs": [
        {
          "internalType": "uint256",
          "name": "_orderId",
          "type": "uint256"
        },
        {
          "internalType": "uint256",
          "name": "_rating",
          "type": "uint256"
        },
        {
          "internalType": "string",
          "name": "_comment",
          "type": "string"
        }
      ],
      "name": "leaveReview",
      "outputs": [],
      "stateMutability": "nonpayable",
      "type": "function"
    },
    {
      "inputs": [],
      "name": "orderCounter",
      "outputs": [
        {
          "internalType": "uint256",
          "name": "",
          "type": "uint256"
        }
      ],
      "stateMutability": "view",
      "type": "function"
    },
    {
      "inputs": [
        {
          "internalType": "uint256",
          "name": "",
          "type": "uint256"
        }
      ],
      "name": "orders",
      "outputs": [
        {
          "internalType": "uint256",
          "name": "id",
          "type": "uint256"
        },
        {
          "internalType": "uint256",
          "name": "serviceId",
          "type": "uint256"
        },
        {
          "internalType": "address payable",
          "name": "client",
          "type": "address"
        },
        {
          "internalType": "address payable",
          "name": "provider",
          "type": "address"
        },
        {
          "internalType": "uint256",
          "name": "price",
          "type": "uint256"
        },
        {
          "internalType": "bool",
          "name": "isCompleted",
          "type": "bool"
        }
      ],
      "stateMutability": "view",
      "type": "function"
    },
    {
      "inputs": [
        {
          "internalType": "uint256",
          "name": "_serviceId",
          "type": "uint256"
        }
      ],
      "name": "placeOrder",
      "outputs": [],
      "stateMutability": "payable",
      "type": "function"
    },
    {
      "inputs": [],
      "name": "providerContract",
      "outputs": [
        {
          "internalType": "contract Provider",
          "name": "",
          "type": "address"
        }
      ],
      "stateMutability": "view",
      "type": "function"
    },
    {
      "inputs": [
        {
          "internalType": "uint256",
          "name": "",
          "type": "uint256"
        }
      ],
      "name": "reviews",
      "outputs": [
        {
          "internalType": "uint256",
          "name": "orderId",
          "type": "uint256"
        },
        {
          "internalType": "uint256",
          "name": "rating",
          "type": "uint256"
        },
        {
          "internalType": "string",
          "name": "comment",
          "type": "string"
        }
      ],
      "stateMutability": "view",
      "type": "function"
    },
    {
      "inputs": [],
      "name": "serviceCounter",
      "outputs": [
        {
          "internalType": "uint256",
          "name": "",
          "type": "uint256"
        }
      ],
      "stateMutability": "view",
      "type": "function"
    },
    {
      "inputs": [
        {
          "internalType": "uint256",
          "name": "",
          "type": "uint256"
        }
      ],
      "name": "services",
      "outputs": [
        {
          "internalType": "uint256",
          "name": "id",
          "type": "uint256"
        },
        {
          "internalType": "address payable",
          "name": "provider",
          "type": "address"
        },
        {
          "internalType": "string",
          "name": "title",
          "type": "string"
        },
        {
          "internalType": "string",
          "name": "description",
          "type": "string"
        },
        {
          "internalType": "uint256",
          "name": "price",
          "type": "uint256"
        },
        {
          "internalType": "bool",
          "name": "isActive",
          "type": "bool"
        }
      ],
      "stateMutability": "view",
      "type": "function"
    }
  ],
  "bytecode": "0x608060405234801561001057600080fd5b506040516124013803806124018339818101604052810190610032919061011e565b81600560006101000a81548173ffffffffffffffffffffffffffffffffffffffff021916908373ffffffffffffffffffffffffffffffffffffffff16021790555080600660006101000a81548173ffffffffffffffffffffffffffffffffffffffff021916908373ffffffffffffffffffffffffffffffffffffffff160217905550505061015e565b600080fd5b600073ffffffffffffffffffffffffffffffffffffffff82169050919050565b60006100eb826100c0565b9050919050565b6100fb816100e0565b811461010657600080fd5b50565b600081519050610118816100f2565b92915050565b60008060408385031215610135576101346100bb565b5b600061014385828601610109565b925050602061015485828601610109565b9150509250929050565b6122948061016d6000396000f3fe6080604052600436106100a75760003560e01c8063b6adaaff11610064578063b6adaaff146101c1578063b789bf52146101ea578063ba2255f414610215578063c22c4f4314610231578063e22a8d1514610273578063e83ddcea146102b0576100a7565b80632e91dd25146100ac5780637b15f1b6146100d55780637defdd73146100fe5780639b263eca14610129578063a398c19c14610154578063a85c38ef1461017f575b600080fd5b3480156100b857600080fd5b506100d360048036038101906100ce9190611385565b6102ef565b005b3480156100e157600080fd5b506100fc60048036038101906100f791906113f4565b610548565b005b34801561010a57600080fd5b50610113610827565b604051610120919061148e565b60405180910390f35b34801561013557600080fd5b5061013e61082d565b60405161014b9190611528565b60405180910390f35b34801561016057600080fd5b50610169610853565b6040516101769190611564565b60405180910390f35b34801561018b57600080fd5b506101a660048036038101906101a1919061157f565b610879565b6040516101b8969594939291906115e8565b60405180910390f35b3480156101cd57600080fd5b506101e860048036038101906101e3919061157f565b610902565b005b3480156101f657600080fd5b506101ff610b18565b60405161020c919061148e565b60405180910390f35b61022f600480360381019061022a919061157f565b610b1e565b005b34801561023d57600080fd5b506102586004803603810190610253919061157f565b610f14565b60405161026a969594939291906116c8565b60405180910390f35b34801561027f57600080fd5b5061029a600480360381019061029591906117d5565b61108d565b6040516102a7919061148e565b60405180910390f35b3480156102bc57600080fd5b506102d760048036038101906102d2919061157f565b611143565b6040516102e693929190611835565b60405180910390f35b6000600360008581526020019081526020016000206040518060c001604052908160008201548152602001600182015481526020016002820160009054906101000a900473ffffffffffffffffffffffffffffffffffffffff1673ffffffffffffffffffffffffffffffffffffffff1673ffffffffffffffffffffffffffffffffffffffff1681526020016003820160009054906101000a900473ffffffffffffffffffffffffffffffffffffffff1673ffffffffffffffffffffffffffffffffffffffff1673ffffffffffffffffffffffffffffffffffffffff168152602001600482015481526020016005820160009054906101000a900460ff1615151515815250509050806040015173ffffffffffffffffffffffffffffffffffffffff163373ffffffffffffffffffffffffffffffffffffffff1614610468576040517f08c379a000000000000000000000000000000000000000000000000000000000815260040161045f906118e5565b60405180910390fd5b8060a001516104ac576040517f08c379a00000000000000000000000000000000000000000000000000000000081526004016104a390611977565b60405180910390fd5b60405180606001604052808581526020018481526020018381525060046000868152602001908152602001600020600082015181600001556020820151816001015560408201518160020190816105039190611b99565b509050507f6fdf03e49174e21a8e85f99fe649d34a672c386e5e82f573001ac87d10f6b33c84848460405161053a93929190611835565b60405180910390a150505050565b336000600560009054906101000a900473ffffffffffffffffffffffffffffffffffffffff1673ffffffffffffffffffffffffffffffffffffffff16630787bc27836040518263ffffffff1660e01b81526004016105a69190611c7a565b600060405180830381865afa1580156105c3573d6000803e3d6000fd5b505050506040513d6000823e3d601f19601f820116820180604052508101906105ec9190611d05565b5090506000815103610633576040517f08c379a000000000000000000000000000000000000000000000000000000000815260040161062a90611dc9565b60405180910390fd5b60008081548092919061064590611e18565b91905055506040518060c0016040528060005481526020013373ffffffffffffffffffffffffffffffffffffffff1681526020018681526020018581526020018481526020016001151581525060026000805481526020019081526020016000206000820151816000015560208201518160010160006101000a81548173ffffffffffffffffffffffffffffffffffffffff021916908373ffffffffffffffffffffffffffffffffffffffff160217905550604082015181600201908161070c9190611b99565b5060608201518160030190816107229190611b99565b506080820151816004015560a08201518160050160006101000a81548160ff021916908315150217905550905050600560009054906101000a900473ffffffffffffffffffffffffffffffffffffffff1673ffffffffffffffffffffffffffffffffffffffff16637a564df6336000546040518363ffffffff1660e01b81526004016107af929190611e60565b600060405180830381600087803b1580156107c957600080fd5b505af11580156107dd573d6000803e3d6000fd5b505050507f6367c911a558fff2592da7ba76cf687e7e06f314b8519c034d1087e59779696d6000543387866040516108189493929190611e89565b60405180910390a15050505050565b60005481565b600560009054906101000a900473ffffffffffffffffffffffffffffffffffffffff1681565b600660009054906101000a900473ffffffffffffffffffffffffffffffffffffffff1681565b60036020528060005260406000206000915090508060000154908060010154908060020160009054906101000a900473ffffffffffffffffffffffffffffffffffffffff16908060030160009054906101000a900473ffffffffffffffffffffffffffffffffffffffff16908060040154908060050160009054906101000a900460ff16905086565b60006003600083815260200190815260200160002090508060030160009054906101000a900473ffffffffffffffffffffffffffffffffffffffff1673ffffffffffffffffffffffffffffffffffffffff163373ffffffffffffffffffffffffffffffffffffffff16146109ab576040517f08c379a00000000000000000000000000000000000000000000000000000000081526004016109a290611f47565b60405180910390fd5b8060050160009054906101000a900460ff16156109fd576040517f08c379a00000000000000000000000000000000000000000000000000000000081526004016109f490611fb3565b60405180910390fd5b60003373ffffffffffffffffffffffffffffffffffffffff166003600085815260200190815260200160002060040154604051610a3990612004565b60006040518083038185875af1925050503d8060008114610a76576040519150601f19603f3d011682016040523d82523d6000602084013e610a7b565b606091505b5050905080610abf576040517f08c379a0000000000000000000000000000000000000000000000000000000008152600401610ab690612065565b60405180910390fd5b60018260050160006101000a81548160ff0219169083151502179055507f02a7d4d9472af7118644884b9a0ee443540c0027e938dd0aa35be8ecbe946c0a83604051610b0b919061148e565b60405180910390a1505050565b60015481565b6000600260008381526020019081526020016000206040518060c0016040529081600082015481526020016001820160009054906101000a900473ffffffffffffffffffffffffffffffffffffffff1673ffffffffffffffffffffffffffffffffffffffff1673ffffffffffffffffffffffffffffffffffffffff168152602001600282018054610bae906119c6565b80601f0160208091040260200160405190810160405280929190818152602001828054610bda906119c6565b8015610c275780601f10610bfc57610100808354040283529160200191610c27565b820191906000526020600020905b815481529060010190602001808311610c0a57829003601f168201915b50505050508152602001600382018054610c40906119c6565b80601f0160208091040260200160405190810160405280929190818152602001828054610c6c906119c6565b8015610cb95780601f10610c8e57610100808354040283529160200191610cb9565b820191906000526020600020905b815481529060010190602001808311610c9c57829003601f168201915b50505050508152602001600482015481526020016005820160009054906101000a900460ff16151515158152505090508060a00151610d2d576040517f08c379a0000000000000000000000000000000000000000000000000000000008152600401610d24906120d1565b60405180910390fd5b80608001513414610d73576040517f08c379a0000000000000000000000000000000000000000000000000000000008152600401610d6a9061213d565b60405180910390fd5b60016000815480929190610d8690611e18565b91905055506040518060c0016040528060015481526020018381526020013373ffffffffffffffffffffffffffffffffffffffff168152602001826020015173ffffffffffffffffffffffffffffffffffffffff16815260200134815260200160001515815250600360006001548152602001908152602001600020600082015181600001556020820151816001015560408201518160020160006101000a81548173ffffffffffffffffffffffffffffffffffffffff021916908373ffffffffffffffffffffffffffffffffffffffff16021790555060608201518160030160006101000a81548173ffffffffffffffffffffffffffffffffffffffff021916908373ffffffffffffffffffffffffffffffffffffffff1602179055506080820151816004015560a08201518160050160006101000a81548160ff0219169083151502179055509050507ff272b72b23241ac4dea5dac19b1157309d925f5daa5577f2795bdaaf2af7d0c5600154833334604051610f08949392919061215d565b60405180910390a15050565b60026020528060005260406000206000915090508060000154908060010160009054906101000a900473ffffffffffffffffffffffffffffffffffffffff1690806002018054610f63906119c6565b80601f0160208091040260200160405190810160405280929190818152602001828054610f8f906119c6565b8015610fdc5780601f10610fb157610100808354040283529160200191610fdc565b820191906000526020600020905b815481529060010190602001808311610fbf57829003601f168201915b505050505090806003018054610ff1906119c6565b80601f016020809104026020016040519081016040528092919081815260200182805461101d906119c6565b801561106a5780601f1061103f5761010080835404028352916020019161106a565b820191906000526020600020905b81548152906001019060200180831161104d57829003601f168201915b5050505050908060040154908060050160009054906101000a900460ff16905086565b6000806000905060005b85859050811015611137578373ffffffffffffffffffffffffffffffffffffffff168686838181106110cc576110cb6121a2565b5b905060c0020160600160208101906110e491906121fd565b73ffffffffffffffffffffffffffffffffffffffff160361112a57858582818110611112576111116121a2565b5b905060c002016080013582611127919061222a565b91505b8080600101915050611097565b50809150509392505050565b6004602052806000526040600020600091509050806000015490806001015490806002018054611172906119c6565b80601f016020809104026020016040519081016040528092919081815260200182805461119e906119c6565b80156111eb5780601f106111c0576101008083540402835291602001916111eb565b820191906000526020600020905b8154815290600101906020018083116111ce57829003601f168201915b5050505050905083565b6000604051905090565b600080fd5b600080fd5b6000819050919050565b61121c81611209565b811461122757600080fd5b50565b60008135905061123981611213565b92915050565b600080fd5b600080fd5b6000601f19601f8301169050919050565b7f4e487b7100000000000000000000000000000000000000000000000000000000600052604160045260246000fd5b61129282611249565b810181811067ffffffffffffffff821117156112b1576112b061125a565b5b80604052505050565b60006112c46111f5565b90506112d08282611289565b919050565b600067ffffffffffffffff8211156112f0576112ef61125a565b5b6112f982611249565b9050602081019050919050565b82818337600083830152505050565b6000611328611323846112d5565b6112ba565b90508281526020810184848401111561134457611343611244565b5b61134f848285611306565b509392505050565b600082601f83011261136c5761136b61123f565b5b813561137c848260208601611315565b91505092915050565b60008060006060848603121561139e5761139d6111ff565b5b60006113ac8682870161122a565b93505060206113bd8682870161122a565b925050604084013567ffffffffffffffff8111156113de576113dd611204565b5b6113ea86828701611357565b9150509250925092565b60008060006060848603121561140d5761140c6111ff565b5b600084013567ffffffffffffffff81111561142b5761142a611204565b5b61143786828701611357565b935050602084013567ffffffffffffffff81111561145857611457611204565b5b61146486828701611357565b92505060406114758682870161122a565b9150509250925092565b61148881611209565b82525050565b60006020820190506114a3600083018461147f565b92915050565b600073ffffffffffffffffffffffffffffffffffffffff82169050919050565b6000819050919050565b60006114ee6114e96114e4846114a9565b6114c9565b6114a9565b9050919050565b6000611500826114d3565b9050919050565b6000611512826114f5565b9050919050565b61152281611507565b82525050565b600060208201905061153d6000830184611519565b92915050565b600061154e826114f5565b9050919050565b61155e81611543565b82525050565b60006020820190506115796000830184611555565b92915050565b600060208284031215611595576115946111ff565b5b60006115a38482850161122a565b91505092915050565b60006115b7826114a9565b9050919050565b6115c7816115ac565b82525050565b60008115159050919050565b6115e2816115cd565b82525050565b600060c0820190506115fd600083018961147f565b61160a602083018861147f565b61161760408301876115be565b61162460608301866115be565b611631608083018561147f565b61163e60a08301846115d9565b979650505050505050565b600081519050919050565b600082825260208201905092915050565b60005b83811015611683578082015181840152602081019050611668565b60008484015250505050565b600061169a82611649565b6116a48185611654565b93506116b4818560208601611665565b6116bd81611249565b840191505092915050565b600060c0820190506116dd600083018961147f565b6116ea60208301886115be565b81810360408301526116fc818761168f565b90508181036060830152611710818661168f565b905061171f608083018561147f565b61172c60a08301846115d9565b979650505050505050565b600080fd5b600080fd5b60008083601f8401126117575761175661123f565b5b8235905067ffffffffffffffff81111561177457611773611737565b5b6020830191508360c08202830111156117905761178f61173c565b5b9250929050565b60006117a2826114a9565b9050919050565b6117b281611797565b81146117bd57600080fd5b50565b6000813590506117cf816117a9565b92915050565b6000806000604084860312156117ee576117ed6111ff565b5b600084013567ffffffffffffffff81111561180c5761180b611204565b5b61181886828701611741565b9350935050602061182b868287016117c0565b9150509250925092565b600060608201905061184a600083018661147f565b611857602083018561147f565b8181036040830152611869818461168f565b9050949350505050565b7f4f6e6c792074686520636c69656e742063616e206c656176652061207265766960008201527f6577000000000000000000000000000000000000000000000000000000000000602082015250565b60006118cf602283611654565b91506118da82611873565b604082019050919050565b600060208201905081810360008301526118fe816118c2565b9050919050565b7f4f72646572206d75737420626520636f6d706c65746564206265666f7265206c60008201527f656176696e672061207265766965770000000000000000000000000000000000602082015250565b6000611961602f83611654565b915061196c82611905565b604082019050919050565b6000602082019050818103600083015261199081611954565b9050919050565b7f4e487b7100000000000000000000000000000000000000000000000000000000600052602260045260246000fd5b600060028204905060018216806119de57607f821691505b6020821081036119f1576119f0611997565b5b50919050565b60008190508160005260206000209050919050565b60006020601f8301049050919050565b600082821b905092915050565b600060088302611a597fffffffffffffffffffffffffffffffffffffffffffffffffffffffffffffffff82611a1c565b611a638683611a1c565b95508019841693508086168417925050509392505050565b6000611a96611a91611a8c84611209565b6114c9565b611209565b9050919050565b6000819050919050565b611ab083611a7b565b611ac4611abc82611a9d565b848454611a29565b825550505050565b600090565b611ad9611acc565b611ae4818484611aa7565b505050565b5b81811015611b0857611afd600082611ad1565b600181019050611aea565b5050565b601f821115611b4d57611b1e816119f7565b611b2784611a0c565b81016020851015611b36578190505b611b4a611b4285611a0c565b830182611ae9565b50505b505050565b600082821c905092915050565b6000611b7060001984600802611b52565b1980831691505092915050565b6000611b898383611b5f565b9150826002028217905092915050565b611ba282611649565b67ffffffffffffffff811115611bbb57611bba61125a565b5b611bc582546119c6565b611bd0828285611b0c565b600060209050601f831160018114611c035760008415611bf1578287015190505b611bfb8582611b7d565b865550611c63565b601f198416611c11866119f7565b60005b82811015611c3957848901518255600182019150602085019450602081019050611c14565b86831015611c565784890151611c52601f891682611b5f565b8355505b6001600288020188555050505b505050505050565b611c7481611797565b82525050565b6000602082019050611c8f6000830184611c6b565b92915050565b6000611ca8611ca3846112d5565b6112ba565b905082815260208101848484011115611cc457611cc3611244565b5b611ccf848285611665565b509392505050565b600082601f830112611cec57611ceb61123f565b5b8151611cfc848260208601611c95565b91505092915050565b60008060408385031215611d1c57611d1b6111ff565b5b600083015167ffffffffffffffff811115611d3a57611d39611204565b5b611d4685828601611cd7565b925050602083015167ffffffffffffffff811115611d6757611d66611204565b5b611d7385828601611cd7565b9150509250929050565b7f50726f7669646572206e6f742072656769737465726564000000000000000000600082015250565b6000611db3601783611654565b9150611dbe82611d7d565b602082019050919050565b60006020820190508181036000830152611de281611da6565b9050919050565b7f4e487b7100000000000000000000000000000000000000000000000000000000600052601160045260246000fd5b6000611e2382611209565b91507fffffffffffffffffffffffffffffffffffffffffffffffffffffffffffffffff8203611e5557611e54611de9565b5b600182019050919050565b6000604082019050611e756000830185611c6b565b611e82602083018461147f565b9392505050565b6000608082019050611e9e600083018761147f565b611eab6020830186611c6b565b8181036040830152611ebd818561168f565b9050611ecc606083018461147f565b95945050505050565b7f4f6e6c79207468652070726f76696465722063616e20636f6d706c657465207460008201527f6865206f72646572000000000000000000000000000000000000000000000000602082015250565b6000611f31602883611654565b9150611f3c82611ed5565b604082019050919050565b60006020820190508181036000830152611f6081611f24565b9050919050565b7f4f7264657220697320616c726561647920636f6d706c65746564000000000000600082015250565b6000611f9d601a83611654565b9150611fa882611f67565b602082019050919050565b60006020820190508181036000830152611fcc81611f90565b9050919050565b600081905092915050565b50565b6000611fee600083611fd3565b9150611ff982611fde565b600082019050919050565b600061200f82611fe1565b9150819050919050565b7f5472616e73666572206661696c65640000000000000000000000000000000000600082015250565b600061204f600f83611654565b915061205a82612019565b602082019050919050565b6000602082019050818103600083015261207e81612042565b9050919050565b7f53657276696365206973206e6f74206163746976650000000000000000000000600082015250565b60006120bb601583611654565b91506120c682612085565b602082019050919050565b600060208201905081810360008301526120ea816120ae565b9050919050565b7f496e73756666696369656e74207061796d656e74000000000000000000000000600082015250565b6000612127601483611654565b9150612132826120f1565b602082019050919050565b600060208201905081810360008301526121568161211a565b9050919050565b6000608082019050612172600083018761147f565b61217f602083018661147f565b61218c6040830185611c6b565b612199606083018461147f565b95945050505050565b7f4e487b7100000000000000000000000000000000000000000000000000000000600052603260045260246000fd5b6121da816115ac565b81146121e557600080fd5b50565b6000813590506121f7816121d1565b92915050565b600060208284031215612213576122126111ff565b5b6000612221848285016121e8565b91505092915050565b600061223582611209565b915061224083611209565b925082820190508082111561225857612257611de9565b5b9291505056fea2646970667358221220831442bf990be584f61741343ca8ed1d2b18e08eeeb79bc54f75b10635d3e06f64736f6c634300081c0033",
  "linkReferences": {},
  "deployedLinkReferences": {}
}