{
  "_format": "hh-sol-artifact-1",
  "contractName": "Twoerr",
  "sourceName": "Contracts/Twoerr.sol",
  "abi": [
    {
      "inputs": [
        {
          "internalType": "address",
          "name": "_provider",
          "type": "address"
        },
        {
          "internalType": "address",
          "name": "_client",
          "type": "address"
        },
        {
          "internalType": "address",
          "name": "_token",
          "type": "address"
        }
      ],
      "stateMutability": "nonpayable",
      "type": "constructor"
    },
    {
      "anonymous": false,
      "inputs": [
        {
          "indexed": false,
          "internalType": "uint256",
          "name": "id",
          "type": "uint256"
        }
      ],
      "name": "OrderCompleted",
      "type": "event"
    },
    {
      "anonymous": false,
      "inputs": [
        {
          "indexed": false,
          "internalType": "uint256",
          "name": "id",
          "type": "uint256"
        },
        {
          "indexed": false,
          "internalType": "uint256",
          "name": "serviceId",
          "type": "uint256"
        },
        {
          "indexed": false,
          "internalType": "address",
          "name": "client",
          "type": "address"
        },
        {
          "indexed": false,
          "internalType": "uint256",
          "name": "amount",
          "type": "uint256"
        },
        {
          "indexed": false,
          "internalType": "bool",
          "name": "paidInTokens",
          "type": "bool"
        }
      ],
      "name": "OrderPlaced",
      "type": "event"
    },
    {
      "anonymous": false,
      "inputs": [
        {
          "indexed": false,
          "internalType": "uint256",
          "name": "orderId",
          "type": "uint256"
        },
        {
          "indexed": false,
          "internalType": "uint256",
          "name": "rating",
          "type": "uint256"
        },
        {
          "indexed": false,
          "internalType": "string",
          "name": "comment",
          "type": "string"
        }
      ],
      "name": "ReviewLeft",
      "type": "event"
    },
    {
      "anonymous": false,
      "inputs": [
        {
          "indexed": false,
          "internalType": "uint256",
          "name": "id",
          "type": "uint256"
        },
        {
          "indexed": false,
          "internalType": "address",
          "name": "provider",
          "type": "address"
        },
        {
          "indexed": false,
          "internalType": "string",
          "name": "title",
          "type": "string"
        },
        {
          "indexed": false,
          "internalType": "uint256",
          "name": "price",
          "type": "uint256"
        }
      ],
      "name": "ServiceCreated",
      "type": "event"
    },
    {
      "anonymous": false,
      "inputs": [
        {
          "indexed": false,
          "internalType": "uint256",
          "name": "id",
          "type": "uint256"
        },
        {
          "indexed": false,
          "internalType": "bool",
          "name": "isActive",
          "type": "bool"
        }
      ],
      "name": "ServiceStatusToggled",
      "type": "event"
    },
    {
      "stateMutability": "payable",
      "type": "fallback"
    },
    {
      "inputs": [
        {
          "internalType": "address",
          "name": "_provider",
          "type": "address"
        }
      ],
      "name": "CalculateEarnings",
      "outputs": [
        {
          "internalType": "uint256",
          "name": "",
          "type": "uint256"
        }
      ],
      "stateMutability": "view",
      "type": "function"
    },
    {
      "inputs": [
        {
          "internalType": "uint256",
          "name": "_orderId",
          "type": "uint256"
        }
      ],
      "name": "GetOrder",
      "outputs": [
        {
          "internalType": "string",
          "name": "",
          "type": "string"
        },
        {
          "internalType": "uint256",
          "name": "",
          "type": "uint256"
        },
        {
          "internalType": "bool",
          "name": "",
          "type": "bool"
        }
      ],
      "stateMutability": "view",
      "type": "function"
    },
    {
      "inputs": [
        {
          "internalType": "uint256",
          "name": "_orderId",
          "type": "uint256"
        },
        {
          "internalType": "uint256",
          "name": "_reviewId",
          "type": "uint256"
        }
      ],
      "name": "GetReview",
      "outputs": [
        {
          "internalType": "string",
          "name": "",
          "type": "string"
        },
        {
          "internalType": "uint256",
          "name": "",
          "type": "uint256"
        }
      ],
      "stateMutability": "view",
      "type": "function"
    },
    {
      "inputs": [
        {
          "internalType": "uint256",
          "name": "_id",
          "type": "uint256"
        }
      ],
      "name": "GetService",
      "outputs": [
        {
          "internalType": "string",
          "name": "",
          "type": "string"
        },
        {
          "internalType": "string",
          "name": "",
          "type": "string"
        },
        {
          "internalType": "uint256",
          "name": "",
          "type": "uint256"
        },
        {
          "internalType": "bool",
          "name": "",
          "type": "bool"
        },
        {
          "internalType": "uint256",
          "name": "",
          "type": "uint256"
        },
        {
          "internalType": "address",
          "name": "",
          "type": "address"
        }
      ],
      "stateMutability": "view",
      "type": "function"
    },
    {
      "inputs": [],
      "name": "clientContract",
      "outputs": [
        {
          "internalType": "contract Client",
          "name": "",
          "type": "address"
        }
      ],
      "stateMutability": "view",
      "type": "function"
    },
    {
      "inputs": [
        {
          "internalType": "uint256",
          "name": "_orderId",
          "type": "uint256"
        }
      ],
      "name": "completeOrder",
      "outputs": [],
      "stateMutability": "nonpayable",
      "type": "function"
    },
    {
      "inputs": [
        {
          "internalType": "string",
          "name": "_title",
          "type": "string"
        },
        {
          "internalType": "string",
          "name": "_description",
          "type": "string"
        },
        {
          "internalType": "uint256",
          "name": "_price",
          "type": "uint256"
        }
      ],
      "name": "createService",
      "outputs": [],
      "stateMutability": "nonpayable",
      "type": "function"
    },
    {
      "inputs": [
        {
          "internalType": "uint256",
          "name": "_orderId",
          "type": "uint256"
        },
        {
          "internalType": "uint256",
          "name": "_rating",
          "type": "uint256"
        },
        {
          "internalType": "string",
          "name": "_comment",
          "type": "string"
        }
      ],
      "name": "leaveReview",
      "outputs": [],
      "stateMutability": "nonpayable",
      "type": "function"
    },
    {
      "inputs": [],
      "name": "orderCounter",
      "outputs": [
        {
          "internalType": "uint256",
          "name": "",
          "type": "uint256"
        }
      ],
      "stateMutability": "view",
      "type": "function"
    },
    {
      "inputs": [
        {
          "internalType": "uint256",
          "name": "",
          "type": "uint256"
        }
      ],
      "name": "orders",
      "outputs": [
        {
          "internalType": "uint256",
          "name": "id",
          "type": "uint256"
        },
        {
          "internalType": "uint256",
          "name": "serviceId",
          "type": "uint256"
        },
        {
          "internalType": "address payable",
          "name": "client",
          "type": "address"
        },
        {
          "internalType": "address payable",
          "name": "provider",
          "type": "address"
        },
        {
          "internalType": "uint256",
          "name": "price",
          "type": "uint256"
        },
        {
          "internalType": "bool",
          "name": "isCompleted",
          "type": "bool"
        },
        {
          "internalType": "bool",
          "name": "paidInTokens",
          "type": "bool"
        }
      ],
      "stateMutability": "view",
      "type": "function"
    },
    {
      "inputs": [
        {
          "internalType": "uint256",
          "name": "_serviceId",
          "type": "uint256"
        },
        {
          "internalType": "bool",
          "name": "payInTokens",
          "type": "bool"
        }
      ],
      "name": "placeOrder",
      "outputs": [],
      "stateMutability": "payable",
      "type": "function"
    },
    {
      "inputs": [],
      "name": "providerContract",
      "outputs": [
        {
          "internalType": "contract Provider",
          "name": "",
          "type": "address"
        }
      ],
      "stateMutability": "view",
      "type": "function"
    },
    {
      "inputs": [
        {
          "internalType": "uint256",
          "name": "",
          "type": "uint256"
        },
        {
          "internalType": "uint256",
          "name": "",
          "type": "uint256"
        }
      ],
      "name": "reviews",
      "outputs": [
        {
          "internalType": "uint256",
          "name": "rating",
          "type": "uint256"
        },
        {
          "internalType": "string",
          "name": "comment",
          "type": "string"
        }
      ],
      "stateMutability": "view",
      "type": "function"
    },
    {
      "inputs": [],
      "name": "serviceCounter",
      "outputs": [
        {
          "internalType": "uint256",
          "name": "",
          "type": "uint256"
        }
      ],
      "stateMutability": "view",
      "type": "function"
    },
    {
      "inputs": [
        {
          "internalType": "uint256",
          "name": "",
          "type": "uint256"
        }
      ],
      "name": "services",
      "outputs": [
        {
          "internalType": "uint256",
          "name": "id",
          "type": "uint256"
        },
        {
          "internalType": "address payable",
          "name": "provider",
          "type": "address"
        },
        {
          "internalType": "string",
          "name": "title",
          "type": "string"
        },
        {
          "internalType": "string",
          "name": "description",
          "type": "string"
        },
        {
          "internalType": "uint256",
          "name": "price",
          "type": "uint256"
        },
        {
          "internalType": "bool",
          "name": "isActive",
          "type": "bool"
        }
      ],
      "stateMutability": "view",
      "type": "function"
    },
    {
      "inputs": [
        {
          "internalType": "uint256",
          "name": "_id",
          "type": "uint256"
        }
      ],
      "name": "toggleServiceStatus",
      "outputs": [],
      "stateMutability": "nonpayable",
      "type": "function"
    },
    {
      "inputs": [],
      "name": "token",
      "outputs": [
        {
          "internalType": "contract IERC20",
          "name": "",
          "type": "address"
        }
      ],
      "stateMutability": "view",
      "type": "function"
    },
    {
      "stateMutability": "payable",
      "type": "receive"
    }
  ],
  "bytecode": "0x608060405234801561001057600080fd5b5060405161312238038061312283398181016040528101906100329190610160565b82600560006101000a81548173ffffffffffffffffffffffffffffffffffffffff021916908373ffffffffffffffffffffffffffffffffffffffff16021790555081600660006101000a81548173ffffffffffffffffffffffffffffffffffffffff021916908373ffffffffffffffffffffffffffffffffffffffff16021790555080600760006101000a81548173ffffffffffffffffffffffffffffffffffffffff021916908373ffffffffffffffffffffffffffffffffffffffff1602179055505050506101b3565b600080fd5b600073ffffffffffffffffffffffffffffffffffffffff82169050919050565b600061012d82610102565b9050919050565b61013d81610122565b811461014857600080fd5b50565b60008151905061015a81610134565b92915050565b600080600060608486031215610179576101786100fd565b5b60006101878682870161014b565b93505060206101988682870161014b565b92505060406101a98682870161014b565b9150509250925092565b612f60806101c26000396000f3fe6080604052600436106101025760003560e01c8063a398c19c11610095578063b6adaaff11610064578063b6adaaff1461035b578063b789bf5214610384578063c22c4f43146103af578063d59a1fce146103f1578063fc0c546a1461043057610103565b8063a398c19c14610271578063a502ebe81461029c578063a7264f88146102da578063a85c38ef1461031857610103565b80637b15f1b6116100d15780637b15f1b6146101d65780637defdd73146101ff5780639995bc9c1461022a5780639b263eca1461024657610103565b8063163e981c146101055780632e91dd251461012e5780634c61b966146101575780635af44fdd1461019957610103565b5b005b34801561011157600080fd5b5061012c60048036038101906101279190611bb6565b61045b565b005b34801561013a57600080fd5b5061015560048036038101906101509190611d29565b610580565b005b34801561016357600080fd5b5061017e60048036038101906101799190611bb6565b61080c565b60405161019096959493929190611e82565b60405180910390f35b3480156101a557600080fd5b506101c060048036038101906101bb9190611f1d565b610a14565b6040516101cd9190611f4a565b60405180910390f35b3480156101e257600080fd5b506101fd60048036038101906101f89190611f65565b610b03565b005b34801561020b57600080fd5b50610214610de2565b6040516102219190611f4a565b60405180910390f35b610244600480360381019061023f919061201c565b610de8565b005b34801561025257600080fd5b5061025b611302565b60405161026891906120bb565b60405180910390f35b34801561027d57600080fd5b50610286611328565b60405161029391906120f7565b60405180910390f35b3480156102a857600080fd5b506102c360048036038101906102be9190612112565b61134e565b6040516102d1929190612152565b60405180910390f35b3480156102e657600080fd5b5061030160048036038101906102fc9190612112565b611429565b60405161030f929190612182565b60405180910390f35b34801561032457600080fd5b5061033f600480360381019061033a9190611bb6565b6114f2565b60405161035297969594939291906121d3565b60405180910390f35b34801561036757600080fd5b50610382600480360381019061037d9190611bb6565b61158e565b005b34801561039057600080fd5b506103996118da565b6040516103a69190611f4a565b60405180910390f35b3480156103bb57600080fd5b506103d660048036038101906103d19190611bb6565b6118e0565b6040516103e896959493929190612242565b60405180910390f35b3480156103fd57600080fd5b5061041860048036038101906104139190611bb6565b611a59565b604051610427939291906122b1565b60405180910390f35b34801561043c57600080fd5b50610445611b46565b6040516104529190612310565b60405180910390f35b60006002600083815260200190815260200160002090508060010160009054906101000a900473ffffffffffffffffffffffffffffffffffffffff1673ffffffffffffffffffffffffffffffffffffffff163373ffffffffffffffffffffffffffffffffffffffff1614610504576040517f08c379a00000000000000000000000000000000000000000000000000000000081526004016104fb9061239d565b60405180910390fd5b8060050160009054906101000a900460ff16158160050160006101000a81548160ff0219169083151502179055507f9eb8f70f4826be4f1625e8c63cab3d68f02a013b0f46ef2d5ff1e520d1f3a21f828260050160009054906101000a900460ff166040516105749291906123bd565b60405180910390a15050565b6000600360008581526020019081526020016000206040518060e001604052908160008201548152602001600182015481526020016002820160009054906101000a900473ffffffffffffffffffffffffffffffffffffffff1673ffffffffffffffffffffffffffffffffffffffff1673ffffffffffffffffffffffffffffffffffffffff1681526020016003820160009054906101000a900473ffffffffffffffffffffffffffffffffffffffff1673ffffffffffffffffffffffffffffffffffffffff1673ffffffffffffffffffffffffffffffffffffffff168152602001600482015481526020016005820160009054906101000a900460ff161515151581526020016005820160019054906101000a900460ff1615151515815250509050806040015173ffffffffffffffffffffffffffffffffffffffff163373ffffffffffffffffffffffffffffffffffffffff1614610714576040517f08c379a000000000000000000000000000000000000000000000000000000000815260040161070b90612432565b60405180910390fd5b8060a00151610758576040517f08c379a000000000000000000000000000000000000000000000000000000000815260040161074f906124c4565b60405180910390fd5b6004600085815260200190815260200160002060405180604001604052808581526020018481525090806001815401808255809150506001900390600052602060002090600202016000909190919091506000820151816000015560208201518160010190816107c891906126e6565b5050507f6fdf03e49174e21a8e85f99fe649d34a672c386e5e82f573001ac87d10f6b33c8484846040516107fe939291906127b8565b60405180910390a150505050565b6060806000806000806000600260008981526020019081526020016000206040518060c0016040529081600082015481526020016001820160009054906101000a900473ffffffffffffffffffffffffffffffffffffffff1673ffffffffffffffffffffffffffffffffffffffff1673ffffffffffffffffffffffffffffffffffffffff1681526020016002820180546108a590612513565b80601f01602080910402602001604051908101604052809291908181526020018280546108d190612513565b801561091e5780601f106108f35761010080835404028352916020019161091e565b820191906000526020600020905b81548152906001019060200180831161090157829003601f168201915b5050505050815260200160038201805461093790612513565b80601f016020809104026020016040519081016040528092919081815260200182805461096390612513565b80156109b05780601f10610985576101008083540402835291602001916109b0565b820191906000526020600020905b81548152906001019060200180831161099357829003601f168201915b50505050508152602001600482015481526020016005820160009054906101000a900460ff16151515158152505090508060400151816060015182608001518360a00151846000015185602001519650965096509650965096505091939550919395565b600080600090506000600190505b6001548111610af9578373ffffffffffffffffffffffffffffffffffffffff166003600083815260200190815260200160002060030160009054906101000a900473ffffffffffffffffffffffffffffffffffffffff1673ffffffffffffffffffffffffffffffffffffffff16148015610abc57506003600082815260200190815260200160002060050160009054906101000a900460ff165b15610ae657600360008281526020019081526020016000206004015482610ae39190612825565b91505b8080610af190612859565b915050610a22565b5080915050919050565b336000600560009054906101000a900473ffffffffffffffffffffffffffffffffffffffff1673ffffffffffffffffffffffffffffffffffffffff16630787bc27836040518263ffffffff1660e01b8152600401610b6191906128a1565b600060405180830381865afa158015610b7e573d6000803e3d6000fd5b505050506040513d6000823e3d601f19601f82011682018060405250810190610ba7919061292c565b5090506000815103610bee576040517f08c379a0000000000000000000000000000000000000000000000000000000008152600401610be5906129f0565b60405180910390fd5b600080815480929190610c0090612859565b91905055506040518060c0016040528060005481526020013373ffffffffffffffffffffffffffffffffffffffff1681526020018681526020018581526020018481526020016001151581525060026000805481526020019081526020016000206000820151816000015560208201518160010160006101000a81548173ffffffffffffffffffffffffffffffffffffffff021916908373ffffffffffffffffffffffffffffffffffffffff1602179055506040820151816002019081610cc791906126e6565b506060820151816003019081610cdd91906126e6565b506080820151816004015560a08201518160050160006101000a81548160ff021916908315150217905550905050600560009054906101000a900473ffffffffffffffffffffffffffffffffffffffff1673ffffffffffffffffffffffffffffffffffffffff16637a564df6336000546040518363ffffffff1660e01b8152600401610d6a929190612a10565b600060405180830381600087803b158015610d8457600080fd5b505af1158015610d98573d6000803e3d6000fd5b505050507f6367c911a558fff2592da7ba76cf687e7e06f314b8519c034d1087e59779696d600054338786604051610dd39493929190612a39565b60405180910390a15050505050565b60005481565b6000600260008481526020019081526020016000206040518060c0016040529081600082015481526020016001820160009054906101000a900473ffffffffffffffffffffffffffffffffffffffff1673ffffffffffffffffffffffffffffffffffffffff1673ffffffffffffffffffffffffffffffffffffffff168152602001600282018054610e7890612513565b80601f0160208091040260200160405190810160405280929190818152602001828054610ea490612513565b8015610ef15780601f10610ec657610100808354040283529160200191610ef1565b820191906000526020600020905b815481529060010190602001808311610ed457829003601f168201915b50505050508152602001600382018054610f0a90612513565b80601f0160208091040260200160405190810160405280929190818152602001828054610f3690612513565b8015610f835780601f10610f5857610100808354040283529160200191610f83565b820191906000526020600020905b815481529060010190602001808311610f6657829003601f168201915b50505050508152602001600482015481526020016005820160009054906101000a900460ff16151515158152505090508060a00151610ff7576040517f08c379a0000000000000000000000000000000000000000000000000000000008152600401610fee90612ad1565b60405180910390fd5b81156110e757600760009054906101000a900473ffffffffffffffffffffffffffffffffffffffff1673ffffffffffffffffffffffffffffffffffffffff166323b872dd333084608001516040518463ffffffff1660e01b815260040161106093929190612af1565b6020604051808303816000875af115801561107f573d6000803e3d6000fd5b505050506040513d601f19601f820116820180604052508101906110a39190612b3d565b6110e2576040517f08c379a00000000000000000000000000000000000000000000000000000000081526004016110d990612bb6565b60405180910390fd5b61112e565b8060800151341461112d576040517f08c379a000000000000000000000000000000000000000000000000000000000815260040161112490612c22565b60405180910390fd5b5b6001600081548092919061114190612859565b91905055506040518060e0016040528060015481526020018481526020013373ffffffffffffffffffffffffffffffffffffffff168152602001826020015173ffffffffffffffffffffffffffffffffffffffff16815260200182608001518152602001600015158152602001831515815250600360006001548152602001908152602001600020600082015181600001556020820151816001015560408201518160020160006101000a81548173ffffffffffffffffffffffffffffffffffffffff021916908373ffffffffffffffffffffffffffffffffffffffff16021790555060608201518160030160006101000a81548173ffffffffffffffffffffffffffffffffffffffff021916908373ffffffffffffffffffffffffffffffffffffffff1602179055506080820151816004015560a08201518160050160006101000a81548160ff02191690831515021790555060c08201518160050160016101000a81548160ff0219169083151502179055509050507f84391519f05248550e5bd4068a8e66e8913c6ec0f08a709e86fb38e1c5677a7960015484338460800151866040516112f5959493929190612c42565b60405180910390a1505050565b600560009054906101000a900473ffffffffffffffffffffffffffffffffffffffff1681565b600660009054906101000a900473ffffffffffffffffffffffffffffffffffffffff1681565b606060008060046000868152602001908152602001600020848154811061137857611377612c95565b5b9060005260206000209060020201905080600101816000015481805461139d90612513565b80601f01602080910402602001604051908101604052809291908181526020018280546113c990612513565b80156114165780601f106113eb57610100808354040283529160200191611416565b820191906000526020600020905b8154815290600101906020018083116113f957829003601f168201915b5050505050915092509250509250929050565b6004602052816000526040600020818154811061144557600080fd5b90600052602060002090600202016000915091505080600001549080600101805461146f90612513565b80601f016020809104026020016040519081016040528092919081815260200182805461149b90612513565b80156114e85780601f106114bd576101008083540402835291602001916114e8565b820191906000526020600020905b8154815290600101906020018083116114cb57829003601f168201915b5050505050905082565b60036020528060005260406000206000915090508060000154908060010154908060020160009054906101000a900473ffffffffffffffffffffffffffffffffffffffff16908060030160009054906101000a900473ffffffffffffffffffffffffffffffffffffffff16908060040154908060050160009054906101000a900460ff16908060050160019054906101000a900460ff16905087565b60006003600083815260200190815260200160002090508060030160009054906101000a900473ffffffffffffffffffffffffffffffffffffffff1673ffffffffffffffffffffffffffffffffffffffff163373ffffffffffffffffffffffffffffffffffffffff1614611637576040517f08c379a000000000000000000000000000000000000000000000000000000000815260040161162e90612d36565b60405180910390fd5b8060050160009054906101000a900460ff1615611689576040517f08c379a000000000000000000000000000000000000000000000000000000000815260040161168090612da2565b60405180910390fd5b60018160050160006101000a81548160ff0219169083151502179055508060050160019054906101000a900460ff16156117c957600760009054906101000a900473ffffffffffffffffffffffffffffffffffffffff1673ffffffffffffffffffffffffffffffffffffffff1663a9059cbb8260030160009054906101000a900473ffffffffffffffffffffffffffffffffffffffff1683600401546040518363ffffffff1660e01b8152600401611742929190612de3565b6020604051808303816000875af1158015611761573d6000803e3d6000fd5b505050506040513d601f19601f820116820180604052508101906117859190612b3d565b6117c4576040517f08c379a00000000000000000000000000000000000000000000000000000000081526004016117bb90612e58565b60405180910390fd5b61189f565b60008160030160009054906101000a900473ffffffffffffffffffffffffffffffffffffffff1673ffffffffffffffffffffffffffffffffffffffff16826004015460405161181790612ea9565b60006040518083038185875af1925050503d8060008114611854576040519150601f19603f3d011682016040523d82523d6000602084013e611859565b606091505b505090508061189d576040517f08c379a000000000000000000000000000000000000000000000000000000000815260040161189490612f0a565b60405180910390fd5b505b7f02a7d4d9472af7118644884b9a0ee443540c0027e938dd0aa35be8ecbe946c0a826040516118ce9190611f4a565b60405180910390a15050565b60015481565b60026020528060005260406000206000915090508060000154908060010160009054906101000a900473ffffffffffffffffffffffffffffffffffffffff169080600201805461192f90612513565b80601f016020809104026020016040519081016040528092919081815260200182805461195b90612513565b80156119a85780601f1061197d576101008083540402835291602001916119a8565b820191906000526020600020905b81548152906001019060200180831161198b57829003601f168201915b5050505050908060030180546119bd90612513565b80601f01602080910402602001604051908101604052809291908181526020018280546119e990612513565b8015611a365780601f10611a0b57610100808354040283529160200191611a36565b820191906000526020600020905b815481529060010190602001808311611a1957829003601f168201915b5050505050908060040154908060050160009054906101000a900460ff16905086565b606060008060006003600086815260200190815260200160002090506000600260008360010154815260200190815260200160002090508060020182600401548360050160009054906101000a900460ff16828054611ab790612513565b80601f0160208091040260200160405190810160405280929190818152602001828054611ae390612513565b8015611b305780601f10611b0557610100808354040283529160200191611b30565b820191906000526020600020905b815481529060010190602001808311611b1357829003601f168201915b5050505050925094509450945050509193909250565b600760009054906101000a900473ffffffffffffffffffffffffffffffffffffffff1681565b6000604051905090565b600080fd5b600080fd5b6000819050919050565b611b9381611b80565b8114611b9e57600080fd5b50565b600081359050611bb081611b8a565b92915050565b600060208284031215611bcc57611bcb611b76565b5b6000611bda84828501611ba1565b91505092915050565b600080fd5b600080fd5b6000601f19601f8301169050919050565b7f4e487b7100000000000000000000000000000000000000000000000000000000600052604160045260246000fd5b611c3682611bed565b810181811067ffffffffffffffff82111715611c5557611c54611bfe565b5b80604052505050565b6000611c68611b6c565b9050611c748282611c2d565b919050565b600067ffffffffffffffff821115611c9457611c93611bfe565b5b611c9d82611bed565b9050602081019050919050565b82818337600083830152505050565b6000611ccc611cc784611c79565b611c5e565b905082815260208101848484011115611ce857611ce7611be8565b5b611cf3848285611caa565b509392505050565b600082601f830112611d1057611d0f611be3565b5b8135611d20848260208601611cb9565b91505092915050565b600080600060608486031215611d4257611d41611b76565b5b6000611d5086828701611ba1565b9350506020611d6186828701611ba1565b925050604084013567ffffffffffffffff811115611d8257611d81611b7b565b5b611d8e86828701611cfb565b9150509250925092565b600081519050919050565b600082825260208201905092915050565b60005b83811015611dd2578082015181840152602081019050611db7565b60008484015250505050565b6000611de982611d98565b611df38185611da3565b9350611e03818560208601611db4565b611e0c81611bed565b840191505092915050565b611e2081611b80565b82525050565b60008115159050919050565b611e3b81611e26565b82525050565b600073ffffffffffffffffffffffffffffffffffffffff82169050919050565b6000611e6c82611e41565b9050919050565b611e7c81611e61565b82525050565b600060c0820190508181036000830152611e9c8189611dde565b90508181036020830152611eb08188611dde565b9050611ebf6040830187611e17565b611ecc6060830186611e32565b611ed96080830185611e17565b611ee660a0830184611e73565b979650505050505050565b611efa81611e61565b8114611f0557600080fd5b50565b600081359050611f1781611ef1565b92915050565b600060208284031215611f3357611f32611b76565b5b6000611f4184828501611f08565b91505092915050565b6000602082019050611f5f6000830184611e17565b92915050565b600080600060608486031215611f7e57611f7d611b76565b5b600084013567ffffffffffffffff811115611f9c57611f9b611b7b565b5b611fa886828701611cfb565b935050602084013567ffffffffffffffff811115611fc957611fc8611b7b565b5b611fd586828701611cfb565b9250506040611fe686828701611ba1565b9150509250925092565b611ff981611e26565b811461200457600080fd5b50565b60008135905061201681611ff0565b92915050565b6000806040838503121561203357612032611b76565b5b600061204185828601611ba1565b925050602061205285828601612007565b9150509250929050565b6000819050919050565b600061208161207c61207784611e41565b61205c565b611e41565b9050919050565b600061209382612066565b9050919050565b60006120a582612088565b9050919050565b6120b58161209a565b82525050565b60006020820190506120d060008301846120ac565b92915050565b60006120e182612088565b9050919050565b6120f1816120d6565b82525050565b600060208201905061210c60008301846120e8565b92915050565b6000806040838503121561212957612128611b76565b5b600061213785828601611ba1565b925050602061214885828601611ba1565b9150509250929050565b6000604082019050818103600083015261216c8185611dde565b905061217b6020830184611e17565b9392505050565b60006040820190506121976000830185611e17565b81810360208301526121a98184611dde565b90509392505050565b60006121bd82611e41565b9050919050565b6121cd816121b2565b82525050565b600060e0820190506121e8600083018a611e17565b6121f56020830189611e17565b61220260408301886121c4565b61220f60608301876121c4565b61221c6080830186611e17565b61222960a0830185611e32565b61223660c0830184611e32565b98975050505050505050565b600060c0820190506122576000830189611e17565b61226460208301886121c4565b81810360408301526122768187611dde565b9050818103606083015261228a8186611dde565b90506122996080830185611e17565b6122a660a0830184611e32565b979650505050505050565b600060608201905081810360008301526122cb8186611dde565b90506122da6020830185611e17565b6122e76040830184611e32565b949350505050565b60006122fa82612088565b9050919050565b61230a816122ef565b82525050565b60006020820190506123256000830184612301565b92915050565b7f4f6e6c79207468652070726f76696465722063616e20746f67676c652073657260008201527f7669636520737461747573000000000000000000000000000000000000000000602082015250565b6000612387602b83611da3565b91506123928261232b565b604082019050919050565b600060208201905081810360008301526123b68161237a565b9050919050565b60006040820190506123d26000830185611e17565b6123df6020830184611e32565b9392505050565b7f4f6e6c7920636c69656e742063616e2072657669657700000000000000000000600082015250565b600061241c601683611da3565b9150612427826123e6565b602082019050919050565b6000602082019050818103600083015261244b8161240f565b9050919050565b7f4f72646572206d75737420626520636f6d706c65746564206265666f7265207260008201527f6576696577696e67000000000000000000000000000000000000000000000000602082015250565b60006124ae602883611da3565b91506124b982612452565b604082019050919050565b600060208201905081810360008301526124dd816124a1565b9050919050565b7f4e487b7100000000000000000000000000000000000000000000000000000000600052602260045260246000fd5b6000600282049050600182168061252b57607f821691505b60208210810361253e5761253d6124e4565b5b50919050565b60008190508160005260206000209050919050565b60006020601f8301049050919050565b600082821b905092915050565b6000600883026125a67fffffffffffffffffffffffffffffffffffffffffffffffffffffffffffffffff82612569565b6125b08683612569565b95508019841693508086168417925050509392505050565b60006125e36125de6125d984611b80565b61205c565b611b80565b9050919050565b6000819050919050565b6125fd836125c8565b612611612609826125ea565b848454612576565b825550505050565b600090565b612626612619565b6126318184846125f4565b505050565b5b818110156126555761264a60008261261e565b600181019050612637565b5050565b601f82111561269a5761266b81612544565b61267484612559565b81016020851015612683578190505b61269761268f85612559565b830182612636565b50505b505050565b600082821c905092915050565b60006126bd6000198460080261269f565b1980831691505092915050565b60006126d683836126ac565b9150826002028217905092915050565b6126ef82611d98565b67ffffffffffffffff81111561270857612707611bfe565b5b6127128254612513565b61271d828285612659565b600060209050601f831160018114612750576000841561273e578287015190505b61274885826126ca565b8655506127b0565b601f19841661275e86612544565b60005b8281101561278657848901518255600182019150602085019450602081019050612761565b868310156127a3578489015161279f601f8916826126ac565b8355505b6001600288020188555050505b505050505050565b60006060820190506127cd6000830186611e17565b6127da6020830185611e17565b81810360408301526127ec8184611dde565b9050949350505050565b7f4e487b7100000000000000000000000000000000000000000000000000000000600052601160045260246000fd5b600061283082611b80565b915061283b83611b80565b9250828201905080821115612853576128526127f6565b5b92915050565b600061286482611b80565b91507fffffffffffffffffffffffffffffffffffffffffffffffffffffffffffffffff8203612896576128956127f6565b5b600182019050919050565b60006020820190506128b66000830184611e73565b92915050565b60006128cf6128ca84611c79565b611c5e565b9050828152602081018484840111156128eb576128ea611be8565b5b6128f6848285611db4565b509392505050565b600082601f83011261291357612912611be3565b5b81516129238482602086016128bc565b91505092915050565b6000806040838503121561294357612942611b76565b5b600083015167ffffffffffffffff81111561296157612960611b7b565b5b61296d858286016128fe565b925050602083015167ffffffffffffffff81111561298e5761298d611b7b565b5b61299a858286016128fe565b9150509250929050565b7f50726f7669646572206e6f742072656769737465726564000000000000000000600082015250565b60006129da601783611da3565b91506129e5826129a4565b602082019050919050565b60006020820190508181036000830152612a09816129cd565b9050919050565b6000604082019050612a256000830185611e73565b612a326020830184611e17565b9392505050565b6000608082019050612a4e6000830187611e17565b612a5b6020830186611e73565b8181036040830152612a6d8185611dde565b9050612a7c6060830184611e17565b95945050505050565b7f53657276696365206973206e6f74206163746976650000000000000000000000600082015250565b6000612abb601583611da3565b9150612ac682612a85565b602082019050919050565b60006020820190508181036000830152612aea81612aae565b9050919050565b6000606082019050612b066000830186611e73565b612b136020830185611e73565b612b206040830184611e17565b949350505050565b600081519050612b3781611ff0565b92915050565b600060208284031215612b5357612b52611b76565b5b6000612b6184828501612b28565b91505092915050565b7f546f6b656e207061796d656e74206661696c6564000000000000000000000000600082015250565b6000612ba0601483611da3565b9150612bab82612b6a565b602082019050919050565b60006020820190508181036000830152612bcf81612b93565b9050919050565b7f496e636f72726563742045544820616d6f756e74000000000000000000000000600082015250565b6000612c0c601483611da3565b9150612c1782612bd6565b602082019050919050565b60006020820190508181036000830152612c3b81612bff565b9050919050565b600060a082019050612c576000830188611e17565b612c646020830187611e17565b612c716040830186611e73565b612c7e6060830185611e17565b612c8b6080830184611e32565b9695505050505050565b7f4e487b7100000000000000000000000000000000000000000000000000000000600052603260045260246000fd5b7f4f6e6c792070726f76696465722063616e20636f6d706c65746520746865206f60008201527f7264657200000000000000000000000000000000000000000000000000000000602082015250565b6000612d20602483611da3565b9150612d2b82612cc4565b604082019050919050565b60006020820190508181036000830152612d4f81612d13565b9050919050565b7f4f7264657220616c726561647920636f6d706c65746564000000000000000000600082015250565b6000612d8c601783611da3565b9150612d9782612d56565b602082019050919050565b60006020820190508181036000830152612dbb81612d7f565b9050919050565b6000612dcd82612088565b9050919050565b612ddd81612dc2565b82525050565b6000604082019050612df86000830185612dd4565b612e056020830184611e17565b9392505050565b7f546f6b656e207472616e73666572206661696c65640000000000000000000000600082015250565b6000612e42601583611da3565b9150612e4d82612e0c565b602082019050919050565b60006020820190508181036000830152612e7181612e35565b9050919050565b600081905092915050565b50565b6000612e93600083612e78565b9150612e9e82612e83565b600082019050919050565b6000612eb482612e86565b9150819050919050565b7f455448207472616e73666572206661696c656400000000000000000000000000600082015250565b6000612ef4601383611da3565b9150612eff82612ebe565b602082019050919050565b60006020820190508181036000830152612f2381612ee7565b905091905056fea264697066735822122021bd25af42c33d4a2d931f81e50c7b0a290bf6acf6abb06886af89798f35b9a864736f6c634300081c0033",
  "linkReferences": {},
  "deployedLinkReferences": {}
}