{
  "_format": "hh-sol-artifact-1",
  "contractName": "Twoerr",
  "sourceName": "Contracts/Twoerr.sol",
  "abi": [
    {
      "inputs": [
        {
          "internalType": "address",
          "name": "_provider",
          "type": "address"
        },
        {
          "internalType": "address",
          "name": "_client",
          "type": "address"
        },
        {
          "internalType": "address",
          "name": "_token",
          "type": "address"
        }
      ],
      "stateMutability": "nonpayable",
      "type": "constructor"
    },
    {
      "anonymous": false,
      "inputs": [
        {
          "indexed": false,
          "internalType": "uint256",
          "name": "id",
          "type": "uint256"
        }
      ],
      "name": "OrderCompleted",
      "type": "event"
    },
    {
      "anonymous": false,
      "inputs": [
        {
          "indexed": false,
          "internalType": "uint256",
          "name": "id",
          "type": "uint256"
        },
        {
          "indexed": false,
          "internalType": "uint256",
          "name": "serviceId",
          "type": "uint256"
        },
        {
          "indexed": false,
          "internalType": "address",
          "name": "client",
          "type": "address"
        },
        {
          "indexed": false,
          "internalType": "uint256",
          "name": "amount",
          "type": "uint256"
        },
        {
          "indexed": false,
          "internalType": "bool",
          "name": "paidInTokens",
          "type": "bool"
        }
      ],
      "name": "OrderPlaced",
      "type": "event"
    },
    {
      "anonymous": false,
      "inputs": [
        {
          "indexed": false,
          "internalType": "uint256",
          "name": "orderId",
          "type": "uint256"
        },
        {
          "indexed": false,
          "internalType": "uint256",
          "name": "rating",
          "type": "uint256"
        },
        {
          "indexed": false,
          "internalType": "string",
          "name": "comment",
          "type": "string"
        }
      ],
      "name": "ReviewLeft",
      "type": "event"
    },
    {
      "anonymous": false,
      "inputs": [
        {
          "indexed": false,
          "internalType": "uint256",
          "name": "id",
          "type": "uint256"
        },
        {
          "indexed": false,
          "internalType": "address",
          "name": "provider",
          "type": "address"
        },
        {
          "indexed": false,
          "internalType": "string",
          "name": "title",
          "type": "string"
        },
        {
          "indexed": false,
          "internalType": "uint256",
          "name": "price",
          "type": "uint256"
        }
      ],
      "name": "ServiceCreated",
      "type": "event"
    },
    {
      "stateMutability": "payable",
      "type": "fallback"
    },
    {
      "inputs": [
        {
          "internalType": "address",
          "name": "_provider",
          "type": "address"
        }
      ],
      "name": "CalculateEarnings",
      "outputs": [
        {
          "internalType": "uint256",
          "name": "",
          "type": "uint256"
        }
      ],
      "stateMutability": "view",
      "type": "function"
    },
    {
      "inputs": [
        {
          "internalType": "uint256",
          "name": "_orderId",
          "type": "uint256"
        }
      ],
      "name": "GetOrder",
      "outputs": [
        {
          "internalType": "string",
          "name": "",
          "type": "string"
        },
        {
          "internalType": "uint256",
          "name": "",
          "type": "uint256"
        },
        {
          "internalType": "bool",
          "name": "",
          "type": "bool"
        }
      ],
      "stateMutability": "view",
      "type": "function"
    },
    {
      "inputs": [
        {
          "internalType": "uint256",
          "name": "_orderId",
          "type": "uint256"
        },
        {
          "internalType": "uint256",
          "name": "_reviewId",
          "type": "uint256"
        }
      ],
      "name": "GetReview",
      "outputs": [
        {
          "internalType": "string",
          "name": "",
          "type": "string"
        },
        {
          "internalType": "uint256",
          "name": "",
          "type": "uint256"
        }
      ],
      "stateMutability": "view",
      "type": "function"
    },
    {
      "inputs": [
        {
          "internalType": "uint256",
          "name": "_id",
          "type": "uint256"
        }
      ],
      "name": "GetService",
      "outputs": [
        {
          "internalType": "string",
          "name": "",
          "type": "string"
        },
        {
          "internalType": "string",
          "name": "",
          "type": "string"
        },
        {
          "internalType": "uint256",
          "name": "",
          "type": "uint256"
        },
        {
          "internalType": "bool",
          "name": "",
          "type": "bool"
        },
        {
          "internalType": "uint256",
          "name": "",
          "type": "uint256"
        },
        {
          "internalType": "address",
          "name": "",
          "type": "address"
        }
      ],
      "stateMutability": "view",
      "type": "function"
    },
    {
      "inputs": [],
      "name": "clientContract",
      "outputs": [
        {
          "internalType": "contract Client",
          "name": "",
          "type": "address"
        }
      ],
      "stateMutability": "view",
      "type": "function"
    },
    {
      "inputs": [
        {
          "internalType": "uint256",
          "name": "_orderId",
          "type": "uint256"
        }
      ],
      "name": "completeOrder",
      "outputs": [],
      "stateMutability": "nonpayable",
      "type": "function"
    },
    {
      "inputs": [
        {
          "internalType": "string",
          "name": "_title",
          "type": "string"
        },
        {
          "internalType": "string",
          "name": "_description",
          "type": "string"
        },
        {
          "internalType": "uint256",
          "name": "_price",
          "type": "uint256"
        }
      ],
      "name": "createService",
      "outputs": [],
      "stateMutability": "nonpayable",
      "type": "function"
    },
    {
      "inputs": [
        {
          "internalType": "uint256",
          "name": "_orderId",
          "type": "uint256"
        },
        {
          "internalType": "uint256",
          "name": "_rating",
          "type": "uint256"
        },
        {
          "internalType": "string",
          "name": "_comment",
          "type": "string"
        }
      ],
      "name": "leaveReview",
      "outputs": [],
      "stateMutability": "nonpayable",
      "type": "function"
    },
    {
      "inputs": [],
      "name": "orderCounter",
      "outputs": [
        {
          "internalType": "uint256",
          "name": "",
          "type": "uint256"
        }
      ],
      "stateMutability": "view",
      "type": "function"
    },
    {
      "inputs": [
        {
          "internalType": "uint256",
          "name": "",
          "type": "uint256"
        }
      ],
      "name": "orders",
      "outputs": [
        {
          "internalType": "uint256",
          "name": "id",
          "type": "uint256"
        },
        {
          "internalType": "uint256",
          "name": "serviceId",
          "type": "uint256"
        },
        {
          "internalType": "address payable",
          "name": "client",
          "type": "address"
        },
        {
          "internalType": "address payable",
          "name": "provider",
          "type": "address"
        },
        {
          "internalType": "uint256",
          "name": "price",
          "type": "uint256"
        },
        {
          "internalType": "bool",
          "name": "isCompleted",
          "type": "bool"
        },
        {
          "internalType": "bool",
          "name": "paidInTokens",
          "type": "bool"
        }
      ],
      "stateMutability": "view",
      "type": "function"
    },
    {
      "inputs": [
        {
          "internalType": "uint256",
          "name": "_serviceId",
          "type": "uint256"
        },
        {
          "internalType": "bool",
          "name": "payInTokens",
          "type": "bool"
        }
      ],
      "name": "placeOrder",
      "outputs": [],
      "stateMutability": "payable",
      "type": "function"
    },
    {
      "inputs": [],
      "name": "providerContract",
      "outputs": [
        {
          "internalType": "contract Provider",
          "name": "",
          "type": "address"
        }
      ],
      "stateMutability": "view",
      "type": "function"
    },
    {
      "inputs": [
        {
          "internalType": "uint256",
          "name": "",
          "type": "uint256"
        },
        {
          "internalType": "uint256",
          "name": "",
          "type": "uint256"
        }
      ],
      "name": "reviews",
      "outputs": [
        {
          "internalType": "uint256",
          "name": "rating",
          "type": "uint256"
        },
        {
          "internalType": "string",
          "name": "comment",
          "type": "string"
        }
      ],
      "stateMutability": "view",
      "type": "function"
    },
    {
      "inputs": [],
      "name": "serviceCounter",
      "outputs": [
        {
          "internalType": "uint256",
          "name": "",
          "type": "uint256"
        }
      ],
      "stateMutability": "view",
      "type": "function"
    },
    {
      "inputs": [
        {
          "internalType": "uint256",
          "name": "",
          "type": "uint256"
        }
      ],
      "name": "services",
      "outputs": [
        {
          "internalType": "uint256",
          "name": "id",
          "type": "uint256"
        },
        {
          "internalType": "address payable",
          "name": "provider",
          "type": "address"
        },
        {
          "internalType": "string",
          "name": "title",
          "type": "string"
        },
        {
          "internalType": "string",
          "name": "description",
          "type": "string"
        },
        {
          "internalType": "uint256",
          "name": "price",
          "type": "uint256"
        },
        {
          "internalType": "bool",
          "name": "isActive",
          "type": "bool"
        }
      ],
      "stateMutability": "view",
      "type": "function"
    },
    {
      "inputs": [],
      "name": "token",
      "outputs": [
        {
          "internalType": "contract IERC20",
          "name": "",
          "type": "address"
        }
      ],
      "stateMutability": "view",
      "type": "function"
    },
    {
      "stateMutability": "payable",
      "type": "receive"
    }
  ],
  "bytecode": "0x608060405234801561001057600080fd5b50604051612f0e380380612f0e83398181016040528101906100329190610160565b82600560006101000a81548173ffffffffffffffffffffffffffffffffffffffff021916908373ffffffffffffffffffffffffffffffffffffffff16021790555081600660006101000a81548173ffffffffffffffffffffffffffffffffffffffff021916908373ffffffffffffffffffffffffffffffffffffffff16021790555080600760006101000a81548173ffffffffffffffffffffffffffffffffffffffff021916908373ffffffffffffffffffffffffffffffffffffffff1602179055505050506101b3565b600080fd5b600073ffffffffffffffffffffffffffffffffffffffff82169050919050565b600061012d82610102565b9050919050565b61013d81610122565b811461014857600080fd5b50565b60008151905061015a81610134565b92915050565b600080600060608486031215610179576101786100fd565b5b60006101878682870161014b565b93505060206101988682870161014b565b92505060406101a98682870161014b565b9150509250925092565b612d4c806101c26000396000f3fe6080604052600436106100f75760003560e01c8063a502ebe81161008a578063b789bf5211610059578063b789bf5214610350578063c22c4f431461037b578063d59a1fce146103bd578063fc0c546a146103fc576100f8565b8063a502ebe814610268578063a7264f88146102a6578063a85c38ef146102e4578063b6adaaff14610327576100f8565b80637defdd73116100c65780637defdd73146101cb5780639995bc9c146101f65780639b263eca14610212578063a398c19c1461023d576100f8565b80632e91dd25146100fa5780634c61b966146101235780635af44fdd146101655780637b15f1b6146101a2576100f8565b5b005b34801561010657600080fd5b50610121600480360381019061011c9190611ba3565b610427565b005b34801561012f57600080fd5b5061014a60048036038101906101459190611c12565b6106b3565b60405161015c96959493929190611d29565b60405180910390f35b34801561017157600080fd5b5061018c60048036038101906101879190611dc4565b6108bb565b6040516101999190611df1565b60405180910390f35b3480156101ae57600080fd5b506101c960048036038101906101c49190611e0c565b6109aa565b005b3480156101d757600080fd5b506101e0610c89565b6040516101ed9190611df1565b60405180910390f35b610210600480360381019061020b9190611ec3565b610c8f565b005b34801561021e57600080fd5b506102276111a9565b6040516102349190611f62565b60405180910390f35b34801561024957600080fd5b506102526111cf565b60405161025f9190611f9e565b60405180910390f35b34801561027457600080fd5b5061028f600480360381019061028a9190611fb9565b6111f5565b60405161029d929190611ff9565b60405180910390f35b3480156102b257600080fd5b506102cd60048036038101906102c89190611fb9565b6112d0565b6040516102db929190612029565b60405180910390f35b3480156102f057600080fd5b5061030b60048036038101906103069190611c12565b611399565b60405161031e979695949392919061207a565b60405180910390f35b34801561033357600080fd5b5061034e60048036038101906103499190611c12565b611435565b005b34801561035c57600080fd5b50610365611781565b6040516103729190611df1565b60405180910390f35b34801561038757600080fd5b506103a2600480360381019061039d9190611c12565b611787565b6040516103b4969594939291906120e9565b60405180910390f35b3480156103c957600080fd5b506103e460048036038101906103df9190611c12565b611900565b6040516103f393929190612158565b60405180910390f35b34801561040857600080fd5b506104116119ed565b60405161041e91906121b7565b60405180910390f35b6000600360008581526020019081526020016000206040518060e001604052908160008201548152602001600182015481526020016002820160009054906101000a900473ffffffffffffffffffffffffffffffffffffffff1673ffffffffffffffffffffffffffffffffffffffff1673ffffffffffffffffffffffffffffffffffffffff1681526020016003820160009054906101000a900473ffffffffffffffffffffffffffffffffffffffff1673ffffffffffffffffffffffffffffffffffffffff1673ffffffffffffffffffffffffffffffffffffffff168152602001600482015481526020016005820160009054906101000a900460ff161515151581526020016005820160019054906101000a900460ff1615151515815250509050806040015173ffffffffffffffffffffffffffffffffffffffff163373ffffffffffffffffffffffffffffffffffffffff16146105bb576040517f08c379a00000000000000000000000000000000000000000000000000000000081526004016105b29061221e565b60405180910390fd5b8060a001516105ff576040517f08c379a00000000000000000000000000000000000000000000000000000000081526004016105f6906122b0565b60405180910390fd5b60046000858152602001908152602001600020604051806040016040528085815260200184815250908060018154018082558091505060019003906000526020600020906002020160009091909190915060008201518160000155602082015181600101908161066f91906124d2565b5050507f6fdf03e49174e21a8e85f99fe649d34a672c386e5e82f573001ac87d10f6b33c8484846040516106a5939291906125a4565b60405180910390a150505050565b6060806000806000806000600260008981526020019081526020016000206040518060c0016040529081600082015481526020016001820160009054906101000a900473ffffffffffffffffffffffffffffffffffffffff1673ffffffffffffffffffffffffffffffffffffffff1673ffffffffffffffffffffffffffffffffffffffff16815260200160028201805461074c906122ff565b80601f0160208091040260200160405190810160405280929190818152602001828054610778906122ff565b80156107c55780601f1061079a576101008083540402835291602001916107c5565b820191906000526020600020905b8154815290600101906020018083116107a857829003601f168201915b505050505081526020016003820180546107de906122ff565b80601f016020809104026020016040519081016040528092919081815260200182805461080a906122ff565b80156108575780601f1061082c57610100808354040283529160200191610857565b820191906000526020600020905b81548152906001019060200180831161083a57829003601f168201915b50505050508152602001600482015481526020016005820160009054906101000a900460ff16151515158152505090508060400151816060015182608001518360a00151846000015185602001519650965096509650965096505091939550919395565b600080600090506000600190505b60015481116109a0578373ffffffffffffffffffffffffffffffffffffffff166003600083815260200190815260200160002060030160009054906101000a900473ffffffffffffffffffffffffffffffffffffffff1673ffffffffffffffffffffffffffffffffffffffff1614801561096357506003600082815260200190815260200160002060050160009054906101000a900460ff165b1561098d5760036000828152602001908152602001600020600401548261098a9190612611565b91505b808061099890612645565b9150506108c9565b5080915050919050565b336000600560009054906101000a900473ffffffffffffffffffffffffffffffffffffffff1673ffffffffffffffffffffffffffffffffffffffff16630787bc27836040518263ffffffff1660e01b8152600401610a08919061268d565b600060405180830381865afa158015610a25573d6000803e3d6000fd5b505050506040513d6000823e3d601f19601f82011682018060405250810190610a4e9190612718565b5090506000815103610a95576040517f08c379a0000000000000000000000000000000000000000000000000000000008152600401610a8c906127dc565b60405180910390fd5b600080815480929190610aa790612645565b91905055506040518060c0016040528060005481526020013373ffffffffffffffffffffffffffffffffffffffff1681526020018681526020018581526020018481526020016001151581525060026000805481526020019081526020016000206000820151816000015560208201518160010160006101000a81548173ffffffffffffffffffffffffffffffffffffffff021916908373ffffffffffffffffffffffffffffffffffffffff1602179055506040820151816002019081610b6e91906124d2565b506060820151816003019081610b8491906124d2565b506080820151816004015560a08201518160050160006101000a81548160ff021916908315150217905550905050600560009054906101000a900473ffffffffffffffffffffffffffffffffffffffff1673ffffffffffffffffffffffffffffffffffffffff16637a564df6336000546040518363ffffffff1660e01b8152600401610c119291906127fc565b600060405180830381600087803b158015610c2b57600080fd5b505af1158015610c3f573d6000803e3d6000fd5b505050507f6367c911a558fff2592da7ba76cf687e7e06f314b8519c034d1087e59779696d600054338786604051610c7a9493929190612825565b60405180910390a15050505050565b60005481565b6000600260008481526020019081526020016000206040518060c0016040529081600082015481526020016001820160009054906101000a900473ffffffffffffffffffffffffffffffffffffffff1673ffffffffffffffffffffffffffffffffffffffff1673ffffffffffffffffffffffffffffffffffffffff168152602001600282018054610d1f906122ff565b80601f0160208091040260200160405190810160405280929190818152602001828054610d4b906122ff565b8015610d985780601f10610d6d57610100808354040283529160200191610d98565b820191906000526020600020905b815481529060010190602001808311610d7b57829003601f168201915b50505050508152602001600382018054610db1906122ff565b80601f0160208091040260200160405190810160405280929190818152602001828054610ddd906122ff565b8015610e2a5780601f10610dff57610100808354040283529160200191610e2a565b820191906000526020600020905b815481529060010190602001808311610e0d57829003601f168201915b50505050508152602001600482015481526020016005820160009054906101000a900460ff16151515158152505090508060a00151610e9e576040517f08c379a0000000000000000000000000000000000000000000000000000000008152600401610e95906128bd565b60405180910390fd5b8115610f8e57600760009054906101000a900473ffffffffffffffffffffffffffffffffffffffff1673ffffffffffffffffffffffffffffffffffffffff166323b872dd333084608001516040518463ffffffff1660e01b8152600401610f07939291906128dd565b6020604051808303816000875af1158015610f26573d6000803e3d6000fd5b505050506040513d601f19601f82011682018060405250810190610f4a9190612929565b610f89576040517f08c379a0000000000000000000000000000000000000000000000000000000008152600401610f80906129a2565b60405180910390fd5b610fd5565b80608001513414610fd4576040517f08c379a0000000000000000000000000000000000000000000000000000000008152600401610fcb90612a0e565b60405180910390fd5b5b60016000815480929190610fe890612645565b91905055506040518060e0016040528060015481526020018481526020013373ffffffffffffffffffffffffffffffffffffffff168152602001826020015173ffffffffffffffffffffffffffffffffffffffff16815260200182608001518152602001600015158152602001831515815250600360006001548152602001908152602001600020600082015181600001556020820151816001015560408201518160020160006101000a81548173ffffffffffffffffffffffffffffffffffffffff021916908373ffffffffffffffffffffffffffffffffffffffff16021790555060608201518160030160006101000a81548173ffffffffffffffffffffffffffffffffffffffff021916908373ffffffffffffffffffffffffffffffffffffffff1602179055506080820151816004015560a08201518160050160006101000a81548160ff02191690831515021790555060c08201518160050160016101000a81548160ff0219169083151502179055509050507f84391519f05248550e5bd4068a8e66e8913c6ec0f08a709e86fb38e1c5677a79600154843384608001518660405161119c959493929190612a2e565b60405180910390a1505050565b600560009054906101000a900473ffffffffffffffffffffffffffffffffffffffff1681565b600660009054906101000a900473ffffffffffffffffffffffffffffffffffffffff1681565b606060008060046000868152602001908152602001600020848154811061121f5761121e612a81565b5b90600052602060002090600202019050806001018160000154818054611244906122ff565b80601f0160208091040260200160405190810160405280929190818152602001828054611270906122ff565b80156112bd5780601f10611292576101008083540402835291602001916112bd565b820191906000526020600020905b8154815290600101906020018083116112a057829003601f168201915b5050505050915092509250509250929050565b600460205281600052604060002081815481106112ec57600080fd5b906000526020600020906002020160009150915050806000015490806001018054611316906122ff565b80601f0160208091040260200160405190810160405280929190818152602001828054611342906122ff565b801561138f5780601f106113645761010080835404028352916020019161138f565b820191906000526020600020905b81548152906001019060200180831161137257829003601f168201915b5050505050905082565b60036020528060005260406000206000915090508060000154908060010154908060020160009054906101000a900473ffffffffffffffffffffffffffffffffffffffff16908060030160009054906101000a900473ffffffffffffffffffffffffffffffffffffffff16908060040154908060050160009054906101000a900460ff16908060050160019054906101000a900460ff16905087565b60006003600083815260200190815260200160002090508060030160009054906101000a900473ffffffffffffffffffffffffffffffffffffffff1673ffffffffffffffffffffffffffffffffffffffff163373ffffffffffffffffffffffffffffffffffffffff16146114de576040517f08c379a00000000000000000000000000000000000000000000000000000000081526004016114d590612b22565b60405180910390fd5b8060050160009054906101000a900460ff1615611530576040517f08c379a000000000000000000000000000000000000000000000000000000000815260040161152790612b8e565b60405180910390fd5b60018160050160006101000a81548160ff0219169083151502179055508060050160019054906101000a900460ff161561167057600760009054906101000a900473ffffffffffffffffffffffffffffffffffffffff1673ffffffffffffffffffffffffffffffffffffffff1663a9059cbb8260030160009054906101000a900473ffffffffffffffffffffffffffffffffffffffff1683600401546040518363ffffffff1660e01b81526004016115e9929190612bcf565b6020604051808303816000875af1158015611608573d6000803e3d6000fd5b505050506040513d601f19601f8201168201806040525081019061162c9190612929565b61166b576040517f08c379a000000000000000000000000000000000000000000000000000000000815260040161166290612c44565b60405180910390fd5b611746565b60008160030160009054906101000a900473ffffffffffffffffffffffffffffffffffffffff1673ffffffffffffffffffffffffffffffffffffffff1682600401546040516116be90612c95565b60006040518083038185875af1925050503d80600081146116fb576040519150601f19603f3d011682016040523d82523d6000602084013e611700565b606091505b5050905080611744576040517f08c379a000000000000000000000000000000000000000000000000000000000815260040161173b90612cf6565b60405180910390fd5b505b7f02a7d4d9472af7118644884b9a0ee443540c0027e938dd0aa35be8ecbe946c0a826040516117759190611df1565b60405180910390a15050565b60015481565b60026020528060005260406000206000915090508060000154908060010160009054906101000a900473ffffffffffffffffffffffffffffffffffffffff16908060020180546117d6906122ff565b80601f0160208091040260200160405190810160405280929190818152602001828054611802906122ff565b801561184f5780601f106118245761010080835404028352916020019161184f565b820191906000526020600020905b81548152906001019060200180831161183257829003601f168201915b505050505090806003018054611864906122ff565b80601f0160208091040260200160405190810160405280929190818152602001828054611890906122ff565b80156118dd5780601f106118b2576101008083540402835291602001916118dd565b820191906000526020600020905b8154815290600101906020018083116118c057829003601f168201915b5050505050908060040154908060050160009054906101000a900460ff16905086565b606060008060006003600086815260200190815260200160002090506000600260008360010154815260200190815260200160002090508060020182600401548360050160009054906101000a900460ff1682805461195e906122ff565b80601f016020809104026020016040519081016040528092919081815260200182805461198a906122ff565b80156119d75780601f106119ac576101008083540402835291602001916119d7565b820191906000526020600020905b8154815290600101906020018083116119ba57829003601f168201915b5050505050925094509450945050509193909250565b600760009054906101000a900473ffffffffffffffffffffffffffffffffffffffff1681565b6000604051905090565b600080fd5b600080fd5b6000819050919050565b611a3a81611a27565b8114611a4557600080fd5b50565b600081359050611a5781611a31565b92915050565b600080fd5b600080fd5b6000601f19601f8301169050919050565b7f4e487b7100000000000000000000000000000000000000000000000000000000600052604160045260246000fd5b611ab082611a67565b810181811067ffffffffffffffff82111715611acf57611ace611a78565b5b80604052505050565b6000611ae2611a13565b9050611aee8282611aa7565b919050565b600067ffffffffffffffff821115611b0e57611b0d611a78565b5b611b1782611a67565b9050602081019050919050565b82818337600083830152505050565b6000611b46611b4184611af3565b611ad8565b905082815260208101848484011115611b6257611b61611a62565b5b611b6d848285611b24565b509392505050565b600082601f830112611b8a57611b89611a5d565b5b8135611b9a848260208601611b33565b91505092915050565b600080600060608486031215611bbc57611bbb611a1d565b5b6000611bca86828701611a48565b9350506020611bdb86828701611a48565b925050604084013567ffffffffffffffff811115611bfc57611bfb611a22565b5b611c0886828701611b75565b9150509250925092565b600060208284031215611c2857611c27611a1d565b5b6000611c3684828501611a48565b91505092915050565b600081519050919050565b600082825260208201905092915050565b60005b83811015611c79578082015181840152602081019050611c5e565b60008484015250505050565b6000611c9082611c3f565b611c9a8185611c4a565b9350611caa818560208601611c5b565b611cb381611a67565b840191505092915050565b611cc781611a27565b82525050565b60008115159050919050565b611ce281611ccd565b82525050565b600073ffffffffffffffffffffffffffffffffffffffff82169050919050565b6000611d1382611ce8565b9050919050565b611d2381611d08565b82525050565b600060c0820190508181036000830152611d438189611c85565b90508181036020830152611d578188611c85565b9050611d666040830187611cbe565b611d736060830186611cd9565b611d806080830185611cbe565b611d8d60a0830184611d1a565b979650505050505050565b611da181611d08565b8114611dac57600080fd5b50565b600081359050611dbe81611d98565b92915050565b600060208284031215611dda57611dd9611a1d565b5b6000611de884828501611daf565b91505092915050565b6000602082019050611e066000830184611cbe565b92915050565b600080600060608486031215611e2557611e24611a1d565b5b600084013567ffffffffffffffff811115611e4357611e42611a22565b5b611e4f86828701611b75565b935050602084013567ffffffffffffffff811115611e7057611e6f611a22565b5b611e7c86828701611b75565b9250506040611e8d86828701611a48565b9150509250925092565b611ea081611ccd565b8114611eab57600080fd5b50565b600081359050611ebd81611e97565b92915050565b60008060408385031215611eda57611ed9611a1d565b5b6000611ee885828601611a48565b9250506020611ef985828601611eae565b9150509250929050565b6000819050919050565b6000611f28611f23611f1e84611ce8565b611f03565b611ce8565b9050919050565b6000611f3a82611f0d565b9050919050565b6000611f4c82611f2f565b9050919050565b611f5c81611f41565b82525050565b6000602082019050611f776000830184611f53565b92915050565b6000611f8882611f2f565b9050919050565b611f9881611f7d565b82525050565b6000602082019050611fb36000830184611f8f565b92915050565b60008060408385031215611fd057611fcf611a1d565b5b6000611fde85828601611a48565b9250506020611fef85828601611a48565b9150509250929050565b600060408201905081810360008301526120138185611c85565b90506120226020830184611cbe565b9392505050565b600060408201905061203e6000830185611cbe565b81810360208301526120508184611c85565b90509392505050565b600061206482611ce8565b9050919050565b61207481612059565b82525050565b600060e08201905061208f600083018a611cbe565b61209c6020830189611cbe565b6120a9604083018861206b565b6120b6606083018761206b565b6120c36080830186611cbe565b6120d060a0830185611cd9565b6120dd60c0830184611cd9565b98975050505050505050565b600060c0820190506120fe6000830189611cbe565b61210b602083018861206b565b818103604083015261211d8187611c85565b905081810360608301526121318186611c85565b90506121406080830185611cbe565b61214d60a0830184611cd9565b979650505050505050565b600060608201905081810360008301526121728186611c85565b90506121816020830185611cbe565b61218e6040830184611cd9565b949350505050565b60006121a182611f2f565b9050919050565b6121b181612196565b82525050565b60006020820190506121cc60008301846121a8565b92915050565b7f4f6e6c7920636c69656e742063616e2072657669657700000000000000000000600082015250565b6000612208601683611c4a565b9150612213826121d2565b602082019050919050565b60006020820190508181036000830152612237816121fb565b9050919050565b7f4f72646572206d75737420626520636f6d706c65746564206265666f7265207260008201527f6576696577696e67000000000000000000000000000000000000000000000000602082015250565b600061229a602883611c4a565b91506122a58261223e565b604082019050919050565b600060208201905081810360008301526122c98161228d565b9050919050565b7f4e487b7100000000000000000000000000000000000000000000000000000000600052602260045260246000fd5b6000600282049050600182168061231757607f821691505b60208210810361232a576123296122d0565b5b50919050565b60008190508160005260206000209050919050565b60006020601f8301049050919050565b600082821b905092915050565b6000600883026123927fffffffffffffffffffffffffffffffffffffffffffffffffffffffffffffffff82612355565b61239c8683612355565b95508019841693508086168417925050509392505050565b60006123cf6123ca6123c584611a27565b611f03565b611a27565b9050919050565b6000819050919050565b6123e9836123b4565b6123fd6123f5826123d6565b848454612362565b825550505050565b600090565b612412612405565b61241d8184846123e0565b505050565b5b818110156124415761243660008261240a565b600181019050612423565b5050565b601f8211156124865761245781612330565b61246084612345565b8101602085101561246f578190505b61248361247b85612345565b830182612422565b50505b505050565b600082821c905092915050565b60006124a96000198460080261248b565b1980831691505092915050565b60006124c28383612498565b9150826002028217905092915050565b6124db82611c3f565b67ffffffffffffffff8111156124f4576124f3611a78565b5b6124fe82546122ff565b612509828285612445565b600060209050601f83116001811461253c576000841561252a578287015190505b61253485826124b6565b86555061259c565b601f19841661254a86612330565b60005b828110156125725784890151825560018201915060208501945060208101905061254d565b8683101561258f578489015161258b601f891682612498565b8355505b6001600288020188555050505b505050505050565b60006060820190506125b96000830186611cbe565b6125c66020830185611cbe565b81810360408301526125d88184611c85565b9050949350505050565b7f4e487b7100000000000000000000000000000000000000000000000000000000600052601160045260246000fd5b600061261c82611a27565b915061262783611a27565b925082820190508082111561263f5761263e6125e2565b5b92915050565b600061265082611a27565b91507fffffffffffffffffffffffffffffffffffffffffffffffffffffffffffffffff8203612682576126816125e2565b5b600182019050919050565b60006020820190506126a26000830184611d1a565b92915050565b60006126bb6126b684611af3565b611ad8565b9050828152602081018484840111156126d7576126d6611a62565b5b6126e2848285611c5b565b509392505050565b600082601f8301126126ff576126fe611a5d565b5b815161270f8482602086016126a8565b91505092915050565b6000806040838503121561272f5761272e611a1d565b5b600083015167ffffffffffffffff81111561274d5761274c611a22565b5b612759858286016126ea565b925050602083015167ffffffffffffffff81111561277a57612779611a22565b5b612786858286016126ea565b9150509250929050565b7f50726f7669646572206e6f742072656769737465726564000000000000000000600082015250565b60006127c6601783611c4a565b91506127d182612790565b602082019050919050565b600060208201905081810360008301526127f5816127b9565b9050919050565b60006040820190506128116000830185611d1a565b61281e6020830184611cbe565b9392505050565b600060808201905061283a6000830187611cbe565b6128476020830186611d1a565b81810360408301526128598185611c85565b90506128686060830184611cbe565b95945050505050565b7f53657276696365206973206e6f74206163746976650000000000000000000000600082015250565b60006128a7601583611c4a565b91506128b282612871565b602082019050919050565b600060208201905081810360008301526128d68161289a565b9050919050565b60006060820190506128f26000830186611d1a565b6128ff6020830185611d1a565b61290c6040830184611cbe565b949350505050565b60008151905061292381611e97565b92915050565b60006020828403121561293f5761293e611a1d565b5b600061294d84828501612914565b91505092915050565b7f546f6b656e207061796d656e74206661696c6564000000000000000000000000600082015250565b600061298c601483611c4a565b915061299782612956565b602082019050919050565b600060208201905081810360008301526129bb8161297f565b9050919050565b7f496e636f72726563742045544820616d6f756e74000000000000000000000000600082015250565b60006129f8601483611c4a565b9150612a03826129c2565b602082019050919050565b60006020820190508181036000830152612a27816129eb565b9050919050565b600060a082019050612a436000830188611cbe565b612a506020830187611cbe565b612a5d6040830186611d1a565b612a6a6060830185611cbe565b612a776080830184611cd9565b9695505050505050565b7f4e487b7100000000000000000000000000000000000000000000000000000000600052603260045260246000fd5b7f4f6e6c792070726f76696465722063616e20636f6d706c65746520746865206f60008201527f7264657200000000000000000000000000000000000000000000000000000000602082015250565b6000612b0c602483611c4a565b9150612b1782612ab0565b604082019050919050565b60006020820190508181036000830152612b3b81612aff565b9050919050565b7f4f7264657220616c726561647920636f6d706c65746564000000000000000000600082015250565b6000612b78601783611c4a565b9150612b8382612b42565b602082019050919050565b60006020820190508181036000830152612ba781612b6b565b9050919050565b6000612bb982611f2f565b9050919050565b612bc981612bae565b82525050565b6000604082019050612be46000830185612bc0565b612bf16020830184611cbe565b9392505050565b7f546f6b656e207472616e73666572206661696c65640000000000000000000000600082015250565b6000612c2e601583611c4a565b9150612c3982612bf8565b602082019050919050565b60006020820190508181036000830152612c5d81612c21565b9050919050565b600081905092915050565b50565b6000612c7f600083612c64565b9150612c8a82612c6f565b600082019050919050565b6000612ca082612c72565b9150819050919050565b7f455448207472616e73666572206661696c656400000000000000000000000000600082015250565b6000612ce0601383611c4a565b9150612ceb82612caa565b602082019050919050565b60006020820190508181036000830152612d0f81612cd3565b905091905056fea2646970667358221220d9dd6826827ffe145a8a44be5b752285db2eefe65576545432d6f7c0457fd9b964736f6c634300081c0033",
  "linkReferences": {},
  "deployedLinkReferences": {}
}