{
  "_format": "hh-sol-artifact-1",
  "contractName": "Twoerr",
  "sourceName": "Contracts/Twoerr.sol",
  "abi": [
    {
      "inputs": [
        {
          "internalType": "address",
          "name": "_provider",
          "type": "address"
        },
        {
          "internalType": "address",
          "name": "_client",
          "type": "address"
        },
        {
          "internalType": "address",
          "name": "_token",
          "type": "address"
        }
      ],
      "stateMutability": "nonpayable",
      "type": "constructor"
    },
    {
      "anonymous": false,
      "inputs": [
        {
          "indexed": false,
          "internalType": "uint256",
          "name": "id",
          "type": "uint256"
        }
      ],
      "name": "OrderCompleted",
      "type": "event"
    },
    {
      "anonymous": false,
      "inputs": [
        {
          "indexed": false,
          "internalType": "uint256",
          "name": "id",
          "type": "uint256"
        },
        {
          "indexed": false,
          "internalType": "uint256",
          "name": "serviceId",
          "type": "uint256"
        },
        {
          "indexed": false,
          "internalType": "address",
          "name": "client",
          "type": "address"
        },
        {
          "indexed": false,
          "internalType": "uint256",
          "name": "amount",
          "type": "uint256"
        },
        {
          "indexed": false,
          "internalType": "bool",
          "name": "paidInTokens",
          "type": "bool"
        }
      ],
      "name": "OrderPlaced",
      "type": "event"
    },
    {
      "anonymous": false,
      "inputs": [
        {
          "indexed": false,
          "internalType": "uint256",
          "name": "orderId",
          "type": "uint256"
        },
        {
          "indexed": false,
          "internalType": "uint256",
          "name": "rating",
          "type": "uint256"
        },
        {
          "indexed": false,
          "internalType": "string",
          "name": "comment",
          "type": "string"
        }
      ],
      "name": "ReviewLeft",
      "type": "event"
    },
    {
      "anonymous": false,
      "inputs": [
        {
          "indexed": false,
          "internalType": "uint256",
          "name": "id",
          "type": "uint256"
        },
        {
          "indexed": false,
          "internalType": "address",
          "name": "provider",
          "type": "address"
        },
        {
          "indexed": false,
          "internalType": "string",
          "name": "title",
          "type": "string"
        },
        {
          "indexed": false,
          "internalType": "uint256",
          "name": "price",
          "type": "uint256"
        }
      ],
      "name": "ServiceCreated",
      "type": "event"
    },
    {
      "stateMutability": "payable",
      "type": "fallback"
    },
    {
      "inputs": [
        {
          "internalType": "address",
          "name": "_provider",
          "type": "address"
        }
      ],
      "name": "CalculateEarnings",
      "outputs": [
        {
          "internalType": "uint256",
          "name": "",
          "type": "uint256"
        }
      ],
      "stateMutability": "view",
      "type": "function"
    },
    {
      "inputs": [
        {
          "internalType": "uint256",
          "name": "_orderId",
          "type": "uint256"
        }
      ],
      "name": "GetOrder",
      "outputs": [
        {
          "internalType": "string",
          "name": "",
          "type": "string"
        },
        {
          "internalType": "uint256",
          "name": "",
          "type": "uint256"
        },
        {
          "internalType": "bool",
          "name": "",
          "type": "bool"
        }
      ],
      "stateMutability": "view",
      "type": "function"
    },
    {
      "inputs": [
        {
          "internalType": "uint256",
          "name": "_orderId",
          "type": "uint256"
        },
        {
          "internalType": "uint256",
          "name": "_reviewId",
          "type": "uint256"
        }
      ],
      "name": "GetReview",
      "outputs": [
        {
          "internalType": "string",
          "name": "",
          "type": "string"
        },
        {
          "internalType": "uint256",
          "name": "",
          "type": "uint256"
        }
      ],
      "stateMutability": "view",
      "type": "function"
    },
    {
      "inputs": [
        {
          "internalType": "uint256",
          "name": "_id",
          "type": "uint256"
        }
      ],
      "name": "GetService",
      "outputs": [
        {
          "internalType": "string",
          "name": "",
          "type": "string"
        },
        {
          "internalType": "string",
          "name": "",
          "type": "string"
        },
        {
          "internalType": "uint256",
          "name": "",
          "type": "uint256"
        },
        {
          "internalType": "bool",
          "name": "",
          "type": "bool"
        }
      ],
      "stateMutability": "view",
      "type": "function"
    },
    {
      "inputs": [],
      "name": "clientContract",
      "outputs": [
        {
          "internalType": "contract Client",
          "name": "",
          "type": "address"
        }
      ],
      "stateMutability": "view",
      "type": "function"
    },
    {
      "inputs": [
        {
          "internalType": "uint256",
          "name": "_orderId",
          "type": "uint256"
        }
      ],
      "name": "completeOrder",
      "outputs": [],
      "stateMutability": "nonpayable",
      "type": "function"
    },
    {
      "inputs": [
        {
          "internalType": "string",
          "name": "_title",
          "type": "string"
        },
        {
          "internalType": "string",
          "name": "_description",
          "type": "string"
        },
        {
          "internalType": "uint256",
          "name": "_price",
          "type": "uint256"
        }
      ],
      "name": "createService",
      "outputs": [],
      "stateMutability": "nonpayable",
      "type": "function"
    },
    {
      "inputs": [
        {
          "internalType": "uint256",
          "name": "_orderId",
          "type": "uint256"
        },
        {
          "internalType": "uint256",
          "name": "_rating",
          "type": "uint256"
        },
        {
          "internalType": "string",
          "name": "_comment",
          "type": "string"
        }
      ],
      "name": "leaveReview",
      "outputs": [],
      "stateMutability": "nonpayable",
      "type": "function"
    },
    {
      "inputs": [],
      "name": "orderCounter",
      "outputs": [
        {
          "internalType": "uint256",
          "name": "",
          "type": "uint256"
        }
      ],
      "stateMutability": "view",
      "type": "function"
    },
    {
      "inputs": [
        {
          "internalType": "uint256",
          "name": "",
          "type": "uint256"
        }
      ],
      "name": "orders",
      "outputs": [
        {
          "internalType": "uint256",
          "name": "id",
          "type": "uint256"
        },
        {
          "internalType": "uint256",
          "name": "serviceId",
          "type": "uint256"
        },
        {
          "internalType": "address payable",
          "name": "client",
          "type": "address"
        },
        {
          "internalType": "address payable",
          "name": "provider",
          "type": "address"
        },
        {
          "internalType": "uint256",
          "name": "price",
          "type": "uint256"
        },
        {
          "internalType": "bool",
          "name": "isCompleted",
          "type": "bool"
        },
        {
          "internalType": "bool",
          "name": "paidInTokens",
          "type": "bool"
        }
      ],
      "stateMutability": "view",
      "type": "function"
    },
    {
      "inputs": [
        {
          "internalType": "uint256",
          "name": "_serviceId",
          "type": "uint256"
        },
        {
          "internalType": "bool",
          "name": "payInTokens",
          "type": "bool"
        }
      ],
      "name": "placeOrder",
      "outputs": [],
      "stateMutability": "payable",
      "type": "function"
    },
    {
      "inputs": [],
      "name": "providerContract",
      "outputs": [
        {
          "internalType": "contract Provider",
          "name": "",
          "type": "address"
        }
      ],
      "stateMutability": "view",
      "type": "function"
    },
    {
      "inputs": [
        {
          "internalType": "uint256",
          "name": "",
          "type": "uint256"
        },
        {
          "internalType": "uint256",
          "name": "",
          "type": "uint256"
        }
      ],
      "name": "reviews",
      "outputs": [
        {
          "internalType": "uint256",
          "name": "rating",
          "type": "uint256"
        },
        {
          "internalType": "string",
          "name": "comment",
          "type": "string"
        }
      ],
      "stateMutability": "view",
      "type": "function"
    },
    {
      "inputs": [],
      "name": "serviceCounter",
      "outputs": [
        {
          "internalType": "uint256",
          "name": "",
          "type": "uint256"
        }
      ],
      "stateMutability": "view",
      "type": "function"
    },
    {
      "inputs": [
        {
          "internalType": "uint256",
          "name": "",
          "type": "uint256"
        }
      ],
      "name": "services",
      "outputs": [
        {
          "internalType": "uint256",
          "name": "id",
          "type": "uint256"
        },
        {
          "internalType": "address payable",
          "name": "provider",
          "type": "address"
        },
        {
          "internalType": "string",
          "name": "title",
          "type": "string"
        },
        {
          "internalType": "string",
          "name": "description",
          "type": "string"
        },
        {
          "internalType": "uint256",
          "name": "price",
          "type": "uint256"
        },
        {
          "internalType": "bool",
          "name": "isActive",
          "type": "bool"
        }
      ],
      "stateMutability": "view",
      "type": "function"
    },
    {
      "inputs": [],
      "name": "token",
      "outputs": [
        {
          "internalType": "contract IERC20",
          "name": "",
          "type": "address"
        }
      ],
      "stateMutability": "view",
      "type": "function"
    },
    {
      "stateMutability": "payable",
      "type": "receive"
    }
  ],
  "bytecode": "0x608060405234801561001057600080fd5b50604051612e4c380380612e4c83398181016040528101906100329190610160565b82600560006101000a81548173ffffffffffffffffffffffffffffffffffffffff021916908373ffffffffffffffffffffffffffffffffffffffff16021790555081600660006101000a81548173ffffffffffffffffffffffffffffffffffffffff021916908373ffffffffffffffffffffffffffffffffffffffff16021790555080600760006101000a81548173ffffffffffffffffffffffffffffffffffffffff021916908373ffffffffffffffffffffffffffffffffffffffff1602179055505050506101b3565b600080fd5b600073ffffffffffffffffffffffffffffffffffffffff82169050919050565b600061012d82610102565b9050919050565b61013d81610122565b811461014857600080fd5b50565b60008151905061015a81610134565b92915050565b600080600060608486031215610179576101786100fd565b5b60006101878682870161014b565b93505060206101988682870161014b565b92505060406101a98682870161014b565b9150509250925092565b612c8a806101c26000396000f3fe6080604052600436106100f75760003560e01c8063a502ebe81161008a578063b789bf5211610059578063b789bf521461034e578063c22c4f4314610379578063d59a1fce146103bb578063fc0c546a146103fa576100f8565b8063a502ebe814610266578063a7264f88146102a4578063a85c38ef146102e2578063b6adaaff14610325576100f8565b80637defdd73116100c65780637defdd73146101c95780639995bc9c146101f45780639b263eca14610210578063a398c19c1461023b576100f8565b80632e91dd25146100fa5780634c61b966146101235780635af44fdd146101635780637b15f1b6146101a0576100f8565b5b005b34801561010657600080fd5b50610121600480360381019061011c9190611afd565b610425565b005b34801561012f57600080fd5b5061014a60048036038101906101459190611b6c565b6106b1565b60405161015a9493929190611c42565b60405180910390f35b34801561016f57600080fd5b5061018a60048036038101906101859190611cf3565b610815565b6040516101979190611d20565b60405180910390f35b3480156101ac57600080fd5b506101c760048036038101906101c29190611d3b565b610904565b005b3480156101d557600080fd5b506101de610be3565b6040516101eb9190611d20565b60405180910390f35b61020e60048036038101906102099190611df2565b610be9565b005b34801561021c57600080fd5b50610225611103565b6040516102329190611e91565b60405180910390f35b34801561024757600080fd5b50610250611129565b60405161025d9190611ecd565b60405180910390f35b34801561027257600080fd5b5061028d60048036038101906102889190611ee8565b61114f565b60405161029b929190611f28565b60405180910390f35b3480156102b057600080fd5b506102cb60048036038101906102c69190611ee8565b61122a565b6040516102d9929190611f58565b60405180910390f35b3480156102ee57600080fd5b5061030960048036038101906103049190611b6c565b6112f3565b60405161031c9796959493929190611fa9565b60405180910390f35b34801561033157600080fd5b5061034c60048036038101906103479190611b6c565b61138f565b005b34801561035a57600080fd5b506103636116db565b6040516103709190611d20565b60405180910390f35b34801561038557600080fd5b506103a0600480360381019061039b9190611b6c565b6116e1565b6040516103b296959493929190612018565b60405180910390f35b3480156103c757600080fd5b506103e260048036038101906103dd9190611b6c565b61185a565b6040516103f193929190612087565b60405180910390f35b34801561040657600080fd5b5061040f611947565b60405161041c91906120e6565b60405180910390f35b6000600360008581526020019081526020016000206040518060e001604052908160008201548152602001600182015481526020016002820160009054906101000a900473ffffffffffffffffffffffffffffffffffffffff1673ffffffffffffffffffffffffffffffffffffffff1673ffffffffffffffffffffffffffffffffffffffff1681526020016003820160009054906101000a900473ffffffffffffffffffffffffffffffffffffffff1673ffffffffffffffffffffffffffffffffffffffff1673ffffffffffffffffffffffffffffffffffffffff168152602001600482015481526020016005820160009054906101000a900460ff161515151581526020016005820160019054906101000a900460ff1615151515815250509050806040015173ffffffffffffffffffffffffffffffffffffffff163373ffffffffffffffffffffffffffffffffffffffff16146105b9576040517f08c379a00000000000000000000000000000000000000000000000000000000081526004016105b09061214d565b60405180910390fd5b8060a001516105fd576040517f08c379a00000000000000000000000000000000000000000000000000000000081526004016105f4906121df565b60405180910390fd5b60046000858152602001908152602001600020604051806040016040528085815260200184815250908060018154018082558091505060019003906000526020600020906002020160009091909190915060008201518160000155602082015181600101908161066d9190612401565b5050507f6fdf03e49174e21a8e85f99fe649d34a672c386e5e82f573001ac87d10f6b33c8484846040516106a3939291906124d3565b60405180910390a150505050565b6060806000806000600260008781526020019081526020016000209050806002018160030182600401548360050160009054906101000a900460ff168380546106f99061222e565b80601f01602080910402602001604051908101604052809291908181526020018280546107259061222e565b80156107725780601f1061074757610100808354040283529160200191610772565b820191906000526020600020905b81548152906001019060200180831161075557829003601f168201915b505050505093508280546107859061222e565b80601f01602080910402602001604051908101604052809291908181526020018280546107b19061222e565b80156107fe5780601f106107d3576101008083540402835291602001916107fe565b820191906000526020600020905b8154815290600101906020018083116107e157829003601f168201915b505050505092509450945094509450509193509193565b600080600090506000600190505b60015481116108fa578373ffffffffffffffffffffffffffffffffffffffff166003600083815260200190815260200160002060030160009054906101000a900473ffffffffffffffffffffffffffffffffffffffff1673ffffffffffffffffffffffffffffffffffffffff161480156108bd57506003600082815260200190815260200160002060050160009054906101000a900460ff165b156108e7576003600082815260200190815260200160002060040154826108e49190612540565b91505b80806108f290612574565b915050610823565b5080915050919050565b336000600560009054906101000a900473ffffffffffffffffffffffffffffffffffffffff1673ffffffffffffffffffffffffffffffffffffffff16630787bc27836040518263ffffffff1660e01b815260040161096291906125cb565b600060405180830381865afa15801561097f573d6000803e3d6000fd5b505050506040513d6000823e3d601f19601f820116820180604052508101906109a89190612656565b50905060008151036109ef576040517f08c379a00000000000000000000000000000000000000000000000000000000081526004016109e69061271a565b60405180910390fd5b600080815480929190610a0190612574565b91905055506040518060c0016040528060005481526020013373ffffffffffffffffffffffffffffffffffffffff1681526020018681526020018581526020018481526020016001151581525060026000805481526020019081526020016000206000820151816000015560208201518160010160006101000a81548173ffffffffffffffffffffffffffffffffffffffff021916908373ffffffffffffffffffffffffffffffffffffffff1602179055506040820151816002019081610ac89190612401565b506060820151816003019081610ade9190612401565b506080820151816004015560a08201518160050160006101000a81548160ff021916908315150217905550905050600560009054906101000a900473ffffffffffffffffffffffffffffffffffffffff1673ffffffffffffffffffffffffffffffffffffffff16637a564df6336000546040518363ffffffff1660e01b8152600401610b6b92919061273a565b600060405180830381600087803b158015610b8557600080fd5b505af1158015610b99573d6000803e3d6000fd5b505050507f6367c911a558fff2592da7ba76cf687e7e06f314b8519c034d1087e59779696d600054338786604051610bd49493929190612763565b60405180910390a15050505050565b60005481565b6000600260008481526020019081526020016000206040518060c0016040529081600082015481526020016001820160009054906101000a900473ffffffffffffffffffffffffffffffffffffffff1673ffffffffffffffffffffffffffffffffffffffff1673ffffffffffffffffffffffffffffffffffffffff168152602001600282018054610c799061222e565b80601f0160208091040260200160405190810160405280929190818152602001828054610ca59061222e565b8015610cf25780601f10610cc757610100808354040283529160200191610cf2565b820191906000526020600020905b815481529060010190602001808311610cd557829003601f168201915b50505050508152602001600382018054610d0b9061222e565b80601f0160208091040260200160405190810160405280929190818152602001828054610d379061222e565b8015610d845780601f10610d5957610100808354040283529160200191610d84565b820191906000526020600020905b815481529060010190602001808311610d6757829003601f168201915b50505050508152602001600482015481526020016005820160009054906101000a900460ff16151515158152505090508060a00151610df8576040517f08c379a0000000000000000000000000000000000000000000000000000000008152600401610def906127fb565b60405180910390fd5b8115610ee857600760009054906101000a900473ffffffffffffffffffffffffffffffffffffffff1673ffffffffffffffffffffffffffffffffffffffff166323b872dd333084608001516040518463ffffffff1660e01b8152600401610e619392919061281b565b6020604051808303816000875af1158015610e80573d6000803e3d6000fd5b505050506040513d601f19601f82011682018060405250810190610ea49190612867565b610ee3576040517f08c379a0000000000000000000000000000000000000000000000000000000008152600401610eda906128e0565b60405180910390fd5b610f2f565b80608001513414610f2e576040517f08c379a0000000000000000000000000000000000000000000000000000000008152600401610f259061294c565b60405180910390fd5b5b60016000815480929190610f4290612574565b91905055506040518060e0016040528060015481526020018481526020013373ffffffffffffffffffffffffffffffffffffffff168152602001826020015173ffffffffffffffffffffffffffffffffffffffff16815260200182608001518152602001600015158152602001831515815250600360006001548152602001908152602001600020600082015181600001556020820151816001015560408201518160020160006101000a81548173ffffffffffffffffffffffffffffffffffffffff021916908373ffffffffffffffffffffffffffffffffffffffff16021790555060608201518160030160006101000a81548173ffffffffffffffffffffffffffffffffffffffff021916908373ffffffffffffffffffffffffffffffffffffffff1602179055506080820151816004015560a08201518160050160006101000a81548160ff02191690831515021790555060c08201518160050160016101000a81548160ff0219169083151502179055509050507f84391519f05248550e5bd4068a8e66e8913c6ec0f08a709e86fb38e1c5677a7960015484338460800151866040516110f695949392919061296c565b60405180910390a1505050565b600560009054906101000a900473ffffffffffffffffffffffffffffffffffffffff1681565b600660009054906101000a900473ffffffffffffffffffffffffffffffffffffffff1681565b6060600080600460008681526020019081526020016000208481548110611179576111786129bf565b5b9060005260206000209060020201905080600101816000015481805461119e9061222e565b80601f01602080910402602001604051908101604052809291908181526020018280546111ca9061222e565b80156112175780601f106111ec57610100808354040283529160200191611217565b820191906000526020600020905b8154815290600101906020018083116111fa57829003601f168201915b5050505050915092509250509250929050565b6004602052816000526040600020818154811061124657600080fd5b9060005260206000209060020201600091509150508060000154908060010180546112709061222e565b80601f016020809104026020016040519081016040528092919081815260200182805461129c9061222e565b80156112e95780601f106112be576101008083540402835291602001916112e9565b820191906000526020600020905b8154815290600101906020018083116112cc57829003601f168201915b5050505050905082565b60036020528060005260406000206000915090508060000154908060010154908060020160009054906101000a900473ffffffffffffffffffffffffffffffffffffffff16908060030160009054906101000a900473ffffffffffffffffffffffffffffffffffffffff16908060040154908060050160009054906101000a900460ff16908060050160019054906101000a900460ff16905087565b60006003600083815260200190815260200160002090508060030160009054906101000a900473ffffffffffffffffffffffffffffffffffffffff1673ffffffffffffffffffffffffffffffffffffffff163373ffffffffffffffffffffffffffffffffffffffff1614611438576040517f08c379a000000000000000000000000000000000000000000000000000000000815260040161142f90612a60565b60405180910390fd5b8060050160009054906101000a900460ff161561148a576040517f08c379a000000000000000000000000000000000000000000000000000000000815260040161148190612acc565b60405180910390fd5b60018160050160006101000a81548160ff0219169083151502179055508060050160019054906101000a900460ff16156115ca57600760009054906101000a900473ffffffffffffffffffffffffffffffffffffffff1673ffffffffffffffffffffffffffffffffffffffff1663a9059cbb8260030160009054906101000a900473ffffffffffffffffffffffffffffffffffffffff1683600401546040518363ffffffff1660e01b8152600401611543929190612b0d565b6020604051808303816000875af1158015611562573d6000803e3d6000fd5b505050506040513d601f19601f820116820180604052508101906115869190612867565b6115c5576040517f08c379a00000000000000000000000000000000000000000000000000000000081526004016115bc90612b82565b60405180910390fd5b6116a0565b60008160030160009054906101000a900473ffffffffffffffffffffffffffffffffffffffff1673ffffffffffffffffffffffffffffffffffffffff16826004015460405161161890612bd3565b60006040518083038185875af1925050503d8060008114611655576040519150601f19603f3d011682016040523d82523d6000602084013e61165a565b606091505b505090508061169e576040517f08c379a000000000000000000000000000000000000000000000000000000000815260040161169590612c34565b60405180910390fd5b505b7f02a7d4d9472af7118644884b9a0ee443540c0027e938dd0aa35be8ecbe946c0a826040516116cf9190611d20565b60405180910390a15050565b60015481565b60026020528060005260406000206000915090508060000154908060010160009054906101000a900473ffffffffffffffffffffffffffffffffffffffff16908060020180546117309061222e565b80601f016020809104026020016040519081016040528092919081815260200182805461175c9061222e565b80156117a95780601f1061177e576101008083540402835291602001916117a9565b820191906000526020600020905b81548152906001019060200180831161178c57829003601f168201915b5050505050908060030180546117be9061222e565b80601f01602080910402602001604051908101604052809291908181526020018280546117ea9061222e565b80156118375780601f1061180c57610100808354040283529160200191611837565b820191906000526020600020905b81548152906001019060200180831161181a57829003601f168201915b5050505050908060040154908060050160009054906101000a900460ff16905086565b606060008060006003600086815260200190815260200160002090506000600260008360010154815260200190815260200160002090508060020182600401548360050160009054906101000a900460ff168280546118b89061222e565b80601f01602080910402602001604051908101604052809291908181526020018280546118e49061222e565b80156119315780601f1061190657610100808354040283529160200191611931565b820191906000526020600020905b81548152906001019060200180831161191457829003601f168201915b5050505050925094509450945050509193909250565b600760009054906101000a900473ffffffffffffffffffffffffffffffffffffffff1681565b6000604051905090565b600080fd5b600080fd5b6000819050919050565b61199481611981565b811461199f57600080fd5b50565b6000813590506119b18161198b565b92915050565b600080fd5b600080fd5b6000601f19601f8301169050919050565b7f4e487b7100000000000000000000000000000000000000000000000000000000600052604160045260246000fd5b611a0a826119c1565b810181811067ffffffffffffffff82111715611a2957611a286119d2565b5b80604052505050565b6000611a3c61196d565b9050611a488282611a01565b919050565b600067ffffffffffffffff821115611a6857611a676119d2565b5b611a71826119c1565b9050602081019050919050565b82818337600083830152505050565b6000611aa0611a9b84611a4d565b611a32565b905082815260208101848484011115611abc57611abb6119bc565b5b611ac7848285611a7e565b509392505050565b600082601f830112611ae457611ae36119b7565b5b8135611af4848260208601611a8d565b91505092915050565b600080600060608486031215611b1657611b15611977565b5b6000611b24868287016119a2565b9350506020611b35868287016119a2565b925050604084013567ffffffffffffffff811115611b5657611b5561197c565b5b611b6286828701611acf565b9150509250925092565b600060208284031215611b8257611b81611977565b5b6000611b90848285016119a2565b91505092915050565b600081519050919050565b600082825260208201905092915050565b60005b83811015611bd3578082015181840152602081019050611bb8565b60008484015250505050565b6000611bea82611b99565b611bf48185611ba4565b9350611c04818560208601611bb5565b611c0d816119c1565b840191505092915050565b611c2181611981565b82525050565b60008115159050919050565b611c3c81611c27565b82525050565b60006080820190508181036000830152611c5c8187611bdf565b90508181036020830152611c708186611bdf565b9050611c7f6040830185611c18565b611c8c6060830184611c33565b95945050505050565b600073ffffffffffffffffffffffffffffffffffffffff82169050919050565b6000611cc082611c95565b9050919050565b611cd081611cb5565b8114611cdb57600080fd5b50565b600081359050611ced81611cc7565b92915050565b600060208284031215611d0957611d08611977565b5b6000611d1784828501611cde565b91505092915050565b6000602082019050611d356000830184611c18565b92915050565b600080600060608486031215611d5457611d53611977565b5b600084013567ffffffffffffffff811115611d7257611d7161197c565b5b611d7e86828701611acf565b935050602084013567ffffffffffffffff811115611d9f57611d9e61197c565b5b611dab86828701611acf565b9250506040611dbc868287016119a2565b9150509250925092565b611dcf81611c27565b8114611dda57600080fd5b50565b600081359050611dec81611dc6565b92915050565b60008060408385031215611e0957611e08611977565b5b6000611e17858286016119a2565b9250506020611e2885828601611ddd565b9150509250929050565b6000819050919050565b6000611e57611e52611e4d84611c95565b611e32565b611c95565b9050919050565b6000611e6982611e3c565b9050919050565b6000611e7b82611e5e565b9050919050565b611e8b81611e70565b82525050565b6000602082019050611ea66000830184611e82565b92915050565b6000611eb782611e5e565b9050919050565b611ec781611eac565b82525050565b6000602082019050611ee26000830184611ebe565b92915050565b60008060408385031215611eff57611efe611977565b5b6000611f0d858286016119a2565b9250506020611f1e858286016119a2565b9150509250929050565b60006040820190508181036000830152611f428185611bdf565b9050611f516020830184611c18565b9392505050565b6000604082019050611f6d6000830185611c18565b8181036020830152611f7f8184611bdf565b90509392505050565b6000611f9382611c95565b9050919050565b611fa381611f88565b82525050565b600060e082019050611fbe600083018a611c18565b611fcb6020830189611c18565b611fd86040830188611f9a565b611fe56060830187611f9a565b611ff26080830186611c18565b611fff60a0830185611c33565b61200c60c0830184611c33565b98975050505050505050565b600060c08201905061202d6000830189611c18565b61203a6020830188611f9a565b818103604083015261204c8187611bdf565b905081810360608301526120608186611bdf565b905061206f6080830185611c18565b61207c60a0830184611c33565b979650505050505050565b600060608201905081810360008301526120a18186611bdf565b90506120b06020830185611c18565b6120bd6040830184611c33565b949350505050565b60006120d082611e5e565b9050919050565b6120e0816120c5565b82525050565b60006020820190506120fb60008301846120d7565b92915050565b7f4f6e6c7920636c69656e742063616e2072657669657700000000000000000000600082015250565b6000612137601683611ba4565b915061214282612101565b602082019050919050565b600060208201905081810360008301526121668161212a565b9050919050565b7f4f72646572206d75737420626520636f6d706c65746564206265666f7265207260008201527f6576696577696e67000000000000000000000000000000000000000000000000602082015250565b60006121c9602883611ba4565b91506121d48261216d565b604082019050919050565b600060208201905081810360008301526121f8816121bc565b9050919050565b7f4e487b7100000000000000000000000000000000000000000000000000000000600052602260045260246000fd5b6000600282049050600182168061224657607f821691505b602082108103612259576122586121ff565b5b50919050565b60008190508160005260206000209050919050565b60006020601f8301049050919050565b600082821b905092915050565b6000600883026122c17fffffffffffffffffffffffffffffffffffffffffffffffffffffffffffffffff82612284565b6122cb8683612284565b95508019841693508086168417925050509392505050565b60006122fe6122f96122f484611981565b611e32565b611981565b9050919050565b6000819050919050565b612318836122e3565b61232c61232482612305565b848454612291565b825550505050565b600090565b612341612334565b61234c81848461230f565b505050565b5b8181101561237057612365600082612339565b600181019050612352565b5050565b601f8211156123b5576123868161225f565b61238f84612274565b8101602085101561239e578190505b6123b26123aa85612274565b830182612351565b50505b505050565b600082821c905092915050565b60006123d8600019846008026123ba565b1980831691505092915050565b60006123f183836123c7565b9150826002028217905092915050565b61240a82611b99565b67ffffffffffffffff811115612423576124226119d2565b5b61242d825461222e565b612438828285612374565b600060209050601f83116001811461246b5760008415612459578287015190505b61246385826123e5565b8655506124cb565b601f1984166124798661225f565b60005b828110156124a15784890151825560018201915060208501945060208101905061247c565b868310156124be57848901516124ba601f8916826123c7565b8355505b6001600288020188555050505b505050505050565b60006060820190506124e86000830186611c18565b6124f56020830185611c18565b81810360408301526125078184611bdf565b9050949350505050565b7f4e487b7100000000000000000000000000000000000000000000000000000000600052601160045260246000fd5b600061254b82611981565b915061255683611981565b925082820190508082111561256e5761256d612511565b5b92915050565b600061257f82611981565b91507fffffffffffffffffffffffffffffffffffffffffffffffffffffffffffffffff82036125b1576125b0612511565b5b600182019050919050565b6125c581611cb5565b82525050565b60006020820190506125e060008301846125bc565b92915050565b60006125f96125f484611a4d565b611a32565b905082815260208101848484011115612615576126146119bc565b5b612620848285611bb5565b509392505050565b600082601f83011261263d5761263c6119b7565b5b815161264d8482602086016125e6565b91505092915050565b6000806040838503121561266d5761266c611977565b5b600083015167ffffffffffffffff81111561268b5761268a61197c565b5b61269785828601612628565b925050602083015167ffffffffffffffff8111156126b8576126b761197c565b5b6126c485828601612628565b9150509250929050565b7f50726f7669646572206e6f742072656769737465726564000000000000000000600082015250565b6000612704601783611ba4565b915061270f826126ce565b602082019050919050565b60006020820190508181036000830152612733816126f7565b9050919050565b600060408201905061274f60008301856125bc565b61275c6020830184611c18565b9392505050565b60006080820190506127786000830187611c18565b61278560208301866125bc565b81810360408301526127978185611bdf565b90506127a66060830184611c18565b95945050505050565b7f53657276696365206973206e6f74206163746976650000000000000000000000600082015250565b60006127e5601583611ba4565b91506127f0826127af565b602082019050919050565b60006020820190508181036000830152612814816127d8565b9050919050565b600060608201905061283060008301866125bc565b61283d60208301856125bc565b61284a6040830184611c18565b949350505050565b60008151905061286181611dc6565b92915050565b60006020828403121561287d5761287c611977565b5b600061288b84828501612852565b91505092915050565b7f546f6b656e207061796d656e74206661696c6564000000000000000000000000600082015250565b60006128ca601483611ba4565b91506128d582612894565b602082019050919050565b600060208201905081810360008301526128f9816128bd565b9050919050565b7f496e636f72726563742045544820616d6f756e74000000000000000000000000600082015250565b6000612936601483611ba4565b915061294182612900565b602082019050919050565b6000602082019050818103600083015261296581612929565b9050919050565b600060a0820190506129816000830188611c18565b61298e6020830187611c18565b61299b60408301866125bc565b6129a86060830185611c18565b6129b56080830184611c33565b9695505050505050565b7f4e487b7100000000000000000000000000000000000000000000000000000000600052603260045260246000fd5b7f4f6e6c792070726f76696465722063616e20636f6d706c65746520746865206f60008201527f7264657200000000000000000000000000000000000000000000000000000000602082015250565b6000612a4a602483611ba4565b9150612a55826129ee565b604082019050919050565b60006020820190508181036000830152612a7981612a3d565b9050919050565b7f4f7264657220616c726561647920636f6d706c65746564000000000000000000600082015250565b6000612ab6601783611ba4565b9150612ac182612a80565b602082019050919050565b60006020820190508181036000830152612ae581612aa9565b9050919050565b6000612af782611e5e565b9050919050565b612b0781612aec565b82525050565b6000604082019050612b226000830185612afe565b612b2f6020830184611c18565b9392505050565b7f546f6b656e207472616e73666572206661696c65640000000000000000000000600082015250565b6000612b6c601583611ba4565b9150612b7782612b36565b602082019050919050565b60006020820190508181036000830152612b9b81612b5f565b9050919050565b600081905092915050565b50565b6000612bbd600083612ba2565b9150612bc882612bad565b600082019050919050565b6000612bde82612bb0565b9150819050919050565b7f455448207472616e73666572206661696c656400000000000000000000000000600082015250565b6000612c1e601383611ba4565b9150612c2982612be8565b602082019050919050565b60006020820190508181036000830152612c4d81612c11565b905091905056fea2646970667358221220496ef89bee2ecc0d4297863412f5cb3dfd0aee7df61c495f196fd99a5bce1afc64736f6c634300081c0033",
  "linkReferences": {},
  "deployedLinkReferences": {}
}