{
  "_format": "hh-sol-artifact-1",
  "contractName": "Twoerr",
  "sourceName": "Contracts/Twoerr.sol",
  "abi": [
    {
      "inputs": [
        {
          "internalType": "address",
          "name": "_provider",
          "type": "address"
        },
        {
          "internalType": "address",
          "name": "_client",
          "type": "address"
        },
        {
          "internalType": "address",
          "name": "_token",
          "type": "address"
        }
      ],
      "stateMutability": "nonpayable",
      "type": "constructor"
    },
    {
      "anonymous": false,
      "inputs": [
        {
          "indexed": false,
          "internalType": "uint256",
          "name": "id",
          "type": "uint256"
        }
      ],
      "name": "OrderCompleted",
      "type": "event"
    },
    {
      "anonymous": false,
      "inputs": [
        {
          "indexed": false,
          "internalType": "address",
          "name": "provider",
          "type": "address"
        },
        {
          "indexed": false,
          "internalType": "string",
          "name": "title",
          "type": "string"
        }
      ],
      "name": "OrderNotification",
      "type": "event"
    },
    {
      "anonymous": false,
      "inputs": [
        {
          "indexed": false,
          "internalType": "uint256",
          "name": "id",
          "type": "uint256"
        },
        {
          "indexed": false,
          "internalType": "uint256",
          "name": "serviceId",
          "type": "uint256"
        },
        {
          "indexed": false,
          "internalType": "address",
          "name": "client",
          "type": "address"
        },
        {
          "indexed": false,
          "internalType": "uint256",
          "name": "amount",
          "type": "uint256"
        },
        {
          "indexed": false,
          "internalType": "bool",
          "name": "paidInTokens",
          "type": "bool"
        }
      ],
      "name": "OrderPlaced",
      "type": "event"
    },
    {
      "anonymous": false,
      "inputs": [
        {
          "indexed": false,
          "internalType": "uint256",
          "name": "orderId",
          "type": "uint256"
        },
        {
          "indexed": false,
          "internalType": "uint256",
          "name": "rating",
          "type": "uint256"
        },
        {
          "indexed": false,
          "internalType": "string",
          "name": "comment",
          "type": "string"
        }
      ],
      "name": "ReviewLeft",
      "type": "event"
    },
    {
      "anonymous": false,
      "inputs": [
        {
          "indexed": false,
          "internalType": "uint256",
          "name": "id",
          "type": "uint256"
        },
        {
          "indexed": false,
          "internalType": "address",
          "name": "provider",
          "type": "address"
        },
        {
          "indexed": false,
          "internalType": "string",
          "name": "title",
          "type": "string"
        },
        {
          "indexed": false,
          "internalType": "uint256",
          "name": "price",
          "type": "uint256"
        }
      ],
      "name": "ServiceCreated",
      "type": "event"
    },
    {
      "anonymous": false,
      "inputs": [
        {
          "indexed": false,
          "internalType": "uint256",
          "name": "id",
          "type": "uint256"
        },
        {
          "indexed": false,
          "internalType": "bool",
          "name": "isActive",
          "type": "bool"
        }
      ],
      "name": "ServiceStatusToggled",
      "type": "event"
    },
    {
      "stateMutability": "payable",
      "type": "fallback"
    },
    {
      "inputs": [
        {
          "internalType": "address",
          "name": "_provider",
          "type": "address"
        }
      ],
      "name": "CalculateEarnings",
      "outputs": [
        {
          "internalType": "uint256",
          "name": "",
          "type": "uint256"
        }
      ],
      "stateMutability": "view",
      "type": "function"
    },
    {
      "inputs": [
        {
          "internalType": "uint256",
          "name": "_orderId",
          "type": "uint256"
        }
      ],
      "name": "GetOrder",
      "outputs": [
        {
          "internalType": "string",
          "name": "",
          "type": "string"
        },
        {
          "internalType": "uint256",
          "name": "",
          "type": "uint256"
        },
        {
          "internalType": "bool",
          "name": "",
          "type": "bool"
        }
      ],
      "stateMutability": "view",
      "type": "function"
    },
    {
      "inputs": [
        {
          "internalType": "uint256",
          "name": "_orderId",
          "type": "uint256"
        },
        {
          "internalType": "uint256",
          "name": "_reviewId",
          "type": "uint256"
        }
      ],
      "name": "GetReview",
      "outputs": [
        {
          "internalType": "string",
          "name": "",
          "type": "string"
        },
        {
          "internalType": "uint256",
          "name": "",
          "type": "uint256"
        }
      ],
      "stateMutability": "view",
      "type": "function"
    },
    {
      "inputs": [
        {
          "internalType": "uint256",
          "name": "_id",
          "type": "uint256"
        }
      ],
      "name": "GetService",
      "outputs": [
        {
          "internalType": "string",
          "name": "",
          "type": "string"
        },
        {
          "internalType": "string",
          "name": "",
          "type": "string"
        },
        {
          "internalType": "uint256",
          "name": "",
          "type": "uint256"
        },
        {
          "internalType": "bool",
          "name": "",
          "type": "bool"
        },
        {
          "internalType": "uint256",
          "name": "",
          "type": "uint256"
        },
        {
          "internalType": "address",
          "name": "",
          "type": "address"
        }
      ],
      "stateMutability": "view",
      "type": "function"
    },
    {
      "inputs": [],
      "name": "clientContract",
      "outputs": [
        {
          "internalType": "contract Client",
          "name": "",
          "type": "address"
        }
      ],
      "stateMutability": "view",
      "type": "function"
    },
    {
      "inputs": [
        {
          "internalType": "uint256",
          "name": "_orderId",
          "type": "uint256"
        }
      ],
      "name": "completeOrder",
      "outputs": [],
      "stateMutability": "nonpayable",
      "type": "function"
    },
    {
      "inputs": [
        {
          "internalType": "string",
          "name": "_title",
          "type": "string"
        },
        {
          "internalType": "string",
          "name": "_description",
          "type": "string"
        },
        {
          "internalType": "uint256",
          "name": "_price",
          "type": "uint256"
        }
      ],
      "name": "createService",
      "outputs": [],
      "stateMutability": "nonpayable",
      "type": "function"
    },
    {
      "inputs": [
        {
          "internalType": "uint256",
          "name": "_orderId",
          "type": "uint256"
        },
        {
          "internalType": "uint256",
          "name": "_rating",
          "type": "uint256"
        },
        {
          "internalType": "string",
          "name": "_comment",
          "type": "string"
        }
      ],
      "name": "leaveReview",
      "outputs": [],
      "stateMutability": "nonpayable",
      "type": "function"
    },
    {
      "inputs": [],
      "name": "orderCounter",
      "outputs": [
        {
          "internalType": "uint256",
          "name": "",
          "type": "uint256"
        }
      ],
      "stateMutability": "view",
      "type": "function"
    },
    {
      "inputs": [
        {
          "internalType": "uint256",
          "name": "",
          "type": "uint256"
        }
      ],
      "name": "orders",
      "outputs": [
        {
          "internalType": "uint256",
          "name": "id",
          "type": "uint256"
        },
        {
          "internalType": "uint256",
          "name": "serviceId",
          "type": "uint256"
        },
        {
          "internalType": "address payable",
          "name": "client",
          "type": "address"
        },
        {
          "internalType": "address payable",
          "name": "provider",
          "type": "address"
        },
        {
          "internalType": "uint256",
          "name": "price",
          "type": "uint256"
        },
        {
          "internalType": "bool",
          "name": "isCompleted",
          "type": "bool"
        },
        {
          "internalType": "bool",
          "name": "paidInTokens",
          "type": "bool"
        }
      ],
      "stateMutability": "view",
      "type": "function"
    },
    {
      "inputs": [
        {
          "internalType": "uint256",
          "name": "_serviceId",
          "type": "uint256"
        },
        {
          "internalType": "bool",
          "name": "payInTokens",
          "type": "bool"
        }
      ],
      "name": "placeOrder",
      "outputs": [],
      "stateMutability": "payable",
      "type": "function"
    },
    {
      "inputs": [],
      "name": "providerContract",
      "outputs": [
        {
          "internalType": "contract Provider",
          "name": "",
          "type": "address"
        }
      ],
      "stateMutability": "view",
      "type": "function"
    },
    {
      "inputs": [
        {
          "internalType": "uint256",
          "name": "",
          "type": "uint256"
        },
        {
          "internalType": "uint256",
          "name": "",
          "type": "uint256"
        }
      ],
      "name": "reviews",
      "outputs": [
        {
          "internalType": "uint256",
          "name": "rating",
          "type": "uint256"
        },
        {
          "internalType": "string",
          "name": "comment",
          "type": "string"
        }
      ],
      "stateMutability": "view",
      "type": "function"
    },
    {
      "inputs": [],
      "name": "serviceCounter",
      "outputs": [
        {
          "internalType": "uint256",
          "name": "",
          "type": "uint256"
        }
      ],
      "stateMutability": "view",
      "type": "function"
    },
    {
      "inputs": [
        {
          "internalType": "uint256",
          "name": "",
          "type": "uint256"
        }
      ],
      "name": "services",
      "outputs": [
        {
          "internalType": "uint256",
          "name": "id",
          "type": "uint256"
        },
        {
          "internalType": "address payable",
          "name": "provider",
          "type": "address"
        },
        {
          "internalType": "string",
          "name": "title",
          "type": "string"
        },
        {
          "internalType": "string",
          "name": "description",
          "type": "string"
        },
        {
          "internalType": "uint256",
          "name": "price",
          "type": "uint256"
        },
        {
          "internalType": "bool",
          "name": "isActive",
          "type": "bool"
        }
      ],
      "stateMutability": "view",
      "type": "function"
    },
    {
      "inputs": [
        {
          "internalType": "uint256",
          "name": "_id",
          "type": "uint256"
        }
      ],
      "name": "toggleServiceStatus",
      "outputs": [],
      "stateMutability": "nonpayable",
      "type": "function"
    },
    {
      "inputs": [],
      "name": "token",
      "outputs": [
        {
          "internalType": "contract IERC20",
          "name": "",
          "type": "address"
        }
      ],
      "stateMutability": "view",
      "type": "function"
    },
    {
      "stateMutability": "payable",
      "type": "receive"
    }
  ],
  "bytecode": "0x608060405234801561001057600080fd5b5060405161319338038061319383398181016040528101906100329190610160565b82600560006101000a81548173ffffffffffffffffffffffffffffffffffffffff021916908373ffffffffffffffffffffffffffffffffffffffff16021790555081600660006101000a81548173ffffffffffffffffffffffffffffffffffffffff021916908373ffffffffffffffffffffffffffffffffffffffff16021790555080600760006101000a81548173ffffffffffffffffffffffffffffffffffffffff021916908373ffffffffffffffffffffffffffffffffffffffff1602179055505050506101b3565b600080fd5b600073ffffffffffffffffffffffffffffffffffffffff82169050919050565b600061012d82610102565b9050919050565b61013d81610122565b811461014857600080fd5b50565b60008151905061015a81610134565b92915050565b600080600060608486031215610179576101786100fd565b5b60006101878682870161014b565b93505060206101988682870161014b565b92505060406101a98682870161014b565b9150509250925092565b612fd1806101c26000396000f3fe6080604052600436106101025760003560e01c8063a398c19c11610095578063b6adaaff11610064578063b6adaaff1461035b578063b789bf5214610384578063c22c4f43146103af578063d59a1fce146103f1578063fc0c546a1461043057610103565b8063a398c19c14610271578063a502ebe81461029c578063a7264f88146102da578063a85c38ef1461031857610103565b80637b15f1b6116100d15780637b15f1b6146101d65780637defdd73146101ff5780639995bc9c1461022a5780639b263eca1461024657610103565b8063163e981c146101055780632e91dd251461012e5780634c61b966146101575780635af44fdd1461019957610103565b5b005b34801561011157600080fd5b5061012c60048036038101906101279190611bf7565b61045b565b005b34801561013a57600080fd5b5061015560048036038101906101509190611d6a565b610580565b005b34801561016357600080fd5b5061017e60048036038101906101799190611bf7565b61080c565b60405161019096959493929190611ec3565b60405180910390f35b3480156101a557600080fd5b506101c060048036038101906101bb9190611f5e565b610a14565b6040516101cd9190611f8b565b60405180910390f35b3480156101e257600080fd5b506101fd60048036038101906101f89190611fa6565b610b03565b005b34801561020b57600080fd5b50610214610de2565b6040516102219190611f8b565b60405180910390f35b610244600480360381019061023f919061205d565b610de8565b005b34801561025257600080fd5b5061025b611343565b60405161026891906120fc565b60405180910390f35b34801561027d57600080fd5b50610286611369565b6040516102939190612138565b60405180910390f35b3480156102a857600080fd5b506102c360048036038101906102be9190612153565b61138f565b6040516102d1929190612193565b60405180910390f35b3480156102e657600080fd5b5061030160048036038101906102fc9190612153565b61146a565b60405161030f9291906121c3565b60405180910390f35b34801561032457600080fd5b5061033f600480360381019061033a9190611bf7565b611533565b6040516103529796959493929190612214565b60405180910390f35b34801561036757600080fd5b50610382600480360381019061037d9190611bf7565b6115cf565b005b34801561039057600080fd5b5061039961191b565b6040516103a69190611f8b565b60405180910390f35b3480156103bb57600080fd5b506103d660048036038101906103d19190611bf7565b611921565b6040516103e896959493929190612283565b60405180910390f35b3480156103fd57600080fd5b5061041860048036038101906104139190611bf7565b611a9a565b604051610427939291906122f2565b60405180910390f35b34801561043c57600080fd5b50610445611b87565b6040516104529190612351565b60405180910390f35b60006002600083815260200190815260200160002090508060010160009054906101000a900473ffffffffffffffffffffffffffffffffffffffff1673ffffffffffffffffffffffffffffffffffffffff163373ffffffffffffffffffffffffffffffffffffffff1614610504576040517f08c379a00000000000000000000000000000000000000000000000000000000081526004016104fb906123de565b60405180910390fd5b8060050160009054906101000a900460ff16158160050160006101000a81548160ff0219169083151502179055507f9eb8f70f4826be4f1625e8c63cab3d68f02a013b0f46ef2d5ff1e520d1f3a21f828260050160009054906101000a900460ff166040516105749291906123fe565b60405180910390a15050565b6000600360008581526020019081526020016000206040518060e001604052908160008201548152602001600182015481526020016002820160009054906101000a900473ffffffffffffffffffffffffffffffffffffffff1673ffffffffffffffffffffffffffffffffffffffff1673ffffffffffffffffffffffffffffffffffffffff1681526020016003820160009054906101000a900473ffffffffffffffffffffffffffffffffffffffff1673ffffffffffffffffffffffffffffffffffffffff1673ffffffffffffffffffffffffffffffffffffffff168152602001600482015481526020016005820160009054906101000a900460ff161515151581526020016005820160019054906101000a900460ff1615151515815250509050806040015173ffffffffffffffffffffffffffffffffffffffff163373ffffffffffffffffffffffffffffffffffffffff1614610714576040517f08c379a000000000000000000000000000000000000000000000000000000000815260040161070b90612473565b60405180910390fd5b8060a00151610758576040517f08c379a000000000000000000000000000000000000000000000000000000000815260040161074f90612505565b60405180910390fd5b6004600085815260200190815260200160002060405180604001604052808581526020018481525090806001815401808255809150506001900390600052602060002090600202016000909190919091506000820151816000015560208201518160010190816107c89190612727565b5050507f6fdf03e49174e21a8e85f99fe649d34a672c386e5e82f573001ac87d10f6b33c8484846040516107fe939291906127f9565b60405180910390a150505050565b6060806000806000806000600260008981526020019081526020016000206040518060c0016040529081600082015481526020016001820160009054906101000a900473ffffffffffffffffffffffffffffffffffffffff1673ffffffffffffffffffffffffffffffffffffffff1673ffffffffffffffffffffffffffffffffffffffff1681526020016002820180546108a590612554565b80601f01602080910402602001604051908101604052809291908181526020018280546108d190612554565b801561091e5780601f106108f35761010080835404028352916020019161091e565b820191906000526020600020905b81548152906001019060200180831161090157829003601f168201915b5050505050815260200160038201805461093790612554565b80601f016020809104026020016040519081016040528092919081815260200182805461096390612554565b80156109b05780601f10610985576101008083540402835291602001916109b0565b820191906000526020600020905b81548152906001019060200180831161099357829003601f168201915b50505050508152602001600482015481526020016005820160009054906101000a900460ff16151515158152505090508060400151816060015182608001518360a00151846000015185602001519650965096509650965096505091939550919395565b600080600090506000600190505b6001548111610af9578373ffffffffffffffffffffffffffffffffffffffff166003600083815260200190815260200160002060030160009054906101000a900473ffffffffffffffffffffffffffffffffffffffff1673ffffffffffffffffffffffffffffffffffffffff16148015610abc57506003600082815260200190815260200160002060050160009054906101000a900460ff165b15610ae657600360008281526020019081526020016000206004015482610ae39190612866565b91505b8080610af19061289a565b915050610a22565b5080915050919050565b336000600560009054906101000a900473ffffffffffffffffffffffffffffffffffffffff1673ffffffffffffffffffffffffffffffffffffffff16630787bc27836040518263ffffffff1660e01b8152600401610b6191906128e2565b600060405180830381865afa158015610b7e573d6000803e3d6000fd5b505050506040513d6000823e3d601f19601f82011682018060405250810190610ba7919061296d565b5090506000815103610bee576040517f08c379a0000000000000000000000000000000000000000000000000000000008152600401610be590612a31565b60405180910390fd5b600080815480929190610c009061289a565b91905055506040518060c0016040528060005481526020013373ffffffffffffffffffffffffffffffffffffffff1681526020018681526020018581526020018481526020016001151581525060026000805481526020019081526020016000206000820151816000015560208201518160010160006101000a81548173ffffffffffffffffffffffffffffffffffffffff021916908373ffffffffffffffffffffffffffffffffffffffff1602179055506040820151816002019081610cc79190612727565b506060820151816003019081610cdd9190612727565b506080820151816004015560a08201518160050160006101000a81548160ff021916908315150217905550905050600560009054906101000a900473ffffffffffffffffffffffffffffffffffffffff1673ffffffffffffffffffffffffffffffffffffffff16637a564df6336000546040518363ffffffff1660e01b8152600401610d6a929190612a51565b600060405180830381600087803b158015610d8457600080fd5b505af1158015610d98573d6000803e3d6000fd5b505050507f6367c911a558fff2592da7ba76cf687e7e06f314b8519c034d1087e59779696d600054338786604051610dd39493929190612a7a565b60405180910390a15050505050565b60005481565b6000600260008481526020019081526020016000206040518060c0016040529081600082015481526020016001820160009054906101000a900473ffffffffffffffffffffffffffffffffffffffff1673ffffffffffffffffffffffffffffffffffffffff1673ffffffffffffffffffffffffffffffffffffffff168152602001600282018054610e7890612554565b80601f0160208091040260200160405190810160405280929190818152602001828054610ea490612554565b8015610ef15780601f10610ec657610100808354040283529160200191610ef1565b820191906000526020600020905b815481529060010190602001808311610ed457829003601f168201915b50505050508152602001600382018054610f0a90612554565b80601f0160208091040260200160405190810160405280929190818152602001828054610f3690612554565b8015610f835780601f10610f5857610100808354040283529160200191610f83565b820191906000526020600020905b815481529060010190602001808311610f6657829003601f168201915b50505050508152602001600482015481526020016005820160009054906101000a900460ff16151515158152505090508060a00151610ff7576040517f08c379a0000000000000000000000000000000000000000000000000000000008152600401610fee90612b12565b60405180910390fd5b81156110e757600760009054906101000a900473ffffffffffffffffffffffffffffffffffffffff1673ffffffffffffffffffffffffffffffffffffffff166323b872dd333084608001516040518463ffffffff1660e01b815260040161106093929190612b32565b6020604051808303816000875af115801561107f573d6000803e3d6000fd5b505050506040513d601f19601f820116820180604052508101906110a39190612b7e565b6110e2576040517f08c379a00000000000000000000000000000000000000000000000000000000081526004016110d990612bf7565b60405180910390fd5b61112e565b8060800151341461112d576040517f08c379a000000000000000000000000000000000000000000000000000000000815260040161112490612c63565b60405180910390fd5b5b600160008154809291906111419061289a565b91905055506040518060e0016040528060015481526020018481526020013373ffffffffffffffffffffffffffffffffffffffff168152602001826020015173ffffffffffffffffffffffffffffffffffffffff16815260200182608001518152602001600015158152602001831515815250600360006001548152602001908152602001600020600082015181600001556020820151816001015560408201518160020160006101000a81548173ffffffffffffffffffffffffffffffffffffffff021916908373ffffffffffffffffffffffffffffffffffffffff16021790555060608201518160030160006101000a81548173ffffffffffffffffffffffffffffffffffffffff021916908373ffffffffffffffffffffffffffffffffffffffff1602179055506080820151816004015560a08201518160050160006101000a81548160ff02191690831515021790555060c08201518160050160016101000a81548160ff0219169083151502179055509050507f16b3b66fe57fa879ddca18189f4b74bf9c5d12d006ad715ea279f6c2cafce467816020015182604001516040516112f1929190612ca4565b60405180910390a17f84391519f05248550e5bd4068a8e66e8913c6ec0f08a709e86fb38e1c5677a796001548433846080015186604051611336959493929190612cd4565b60405180910390a1505050565b600560009054906101000a900473ffffffffffffffffffffffffffffffffffffffff1681565b600660009054906101000a900473ffffffffffffffffffffffffffffffffffffffff1681565b60606000806004600086815260200190815260200160002084815481106113b9576113b8612d27565b5b906000526020600020906002020190508060010181600001548180546113de90612554565b80601f016020809104026020016040519081016040528092919081815260200182805461140a90612554565b80156114575780601f1061142c57610100808354040283529160200191611457565b820191906000526020600020905b81548152906001019060200180831161143a57829003601f168201915b5050505050915092509250509250929050565b6004602052816000526040600020818154811061148657600080fd5b9060005260206000209060020201600091509150508060000154908060010180546114b090612554565b80601f01602080910402602001604051908101604052809291908181526020018280546114dc90612554565b80156115295780601f106114fe57610100808354040283529160200191611529565b820191906000526020600020905b81548152906001019060200180831161150c57829003601f168201915b5050505050905082565b60036020528060005260406000206000915090508060000154908060010154908060020160009054906101000a900473ffffffffffffffffffffffffffffffffffffffff16908060030160009054906101000a900473ffffffffffffffffffffffffffffffffffffffff16908060040154908060050160009054906101000a900460ff16908060050160019054906101000a900460ff16905087565b60006003600083815260200190815260200160002090508060030160009054906101000a900473ffffffffffffffffffffffffffffffffffffffff1673ffffffffffffffffffffffffffffffffffffffff163373ffffffffffffffffffffffffffffffffffffffff1614611678576040517f08c379a000000000000000000000000000000000000000000000000000000000815260040161166f90612dc8565b60405180910390fd5b8060050160009054906101000a900460ff16156116ca576040517f08c379a00000000000000000000000000000000000000000000000000000000081526004016116c190612e34565b60405180910390fd5b60018160050160006101000a81548160ff0219169083151502179055508060050160019054906101000a900460ff161561180a57600760009054906101000a900473ffffffffffffffffffffffffffffffffffffffff1673ffffffffffffffffffffffffffffffffffffffff1663a9059cbb8260030160009054906101000a900473ffffffffffffffffffffffffffffffffffffffff1683600401546040518363ffffffff1660e01b8152600401611783929190612e54565b6020604051808303816000875af11580156117a2573d6000803e3d6000fd5b505050506040513d601f19601f820116820180604052508101906117c69190612b7e565b611805576040517f08c379a00000000000000000000000000000000000000000000000000000000081526004016117fc90612ec9565b60405180910390fd5b6118e0565b60008160030160009054906101000a900473ffffffffffffffffffffffffffffffffffffffff1673ffffffffffffffffffffffffffffffffffffffff16826004015460405161185890612f1a565b60006040518083038185875af1925050503d8060008114611895576040519150601f19603f3d011682016040523d82523d6000602084013e61189a565b606091505b50509050806118de576040517f08c379a00000000000000000000000000000000000000000000000000000000081526004016118d590612f7b565b60405180910390fd5b505b7f02a7d4d9472af7118644884b9a0ee443540c0027e938dd0aa35be8ecbe946c0a8260405161190f9190611f8b565b60405180910390a15050565b60015481565b60026020528060005260406000206000915090508060000154908060010160009054906101000a900473ffffffffffffffffffffffffffffffffffffffff169080600201805461197090612554565b80601f016020809104026020016040519081016040528092919081815260200182805461199c90612554565b80156119e95780601f106119be576101008083540402835291602001916119e9565b820191906000526020600020905b8154815290600101906020018083116119cc57829003601f168201915b5050505050908060030180546119fe90612554565b80601f0160208091040260200160405190810160405280929190818152602001828054611a2a90612554565b8015611a775780601f10611a4c57610100808354040283529160200191611a77565b820191906000526020600020905b815481529060010190602001808311611a5a57829003601f168201915b5050505050908060040154908060050160009054906101000a900460ff16905086565b606060008060006003600086815260200190815260200160002090506000600260008360010154815260200190815260200160002090508060020182600401548360050160009054906101000a900460ff16828054611af890612554565b80601f0160208091040260200160405190810160405280929190818152602001828054611b2490612554565b8015611b715780601f10611b4657610100808354040283529160200191611b71565b820191906000526020600020905b815481529060010190602001808311611b5457829003601f168201915b5050505050925094509450945050509193909250565b600760009054906101000a900473ffffffffffffffffffffffffffffffffffffffff1681565b6000604051905090565b600080fd5b600080fd5b6000819050919050565b611bd481611bc1565b8114611bdf57600080fd5b50565b600081359050611bf181611bcb565b92915050565b600060208284031215611c0d57611c0c611bb7565b5b6000611c1b84828501611be2565b91505092915050565b600080fd5b600080fd5b6000601f19601f8301169050919050565b7f4e487b7100000000000000000000000000000000000000000000000000000000600052604160045260246000fd5b611c7782611c2e565b810181811067ffffffffffffffff82111715611c9657611c95611c3f565b5b80604052505050565b6000611ca9611bad565b9050611cb58282611c6e565b919050565b600067ffffffffffffffff821115611cd557611cd4611c3f565b5b611cde82611c2e565b9050602081019050919050565b82818337600083830152505050565b6000611d0d611d0884611cba565b611c9f565b905082815260208101848484011115611d2957611d28611c29565b5b611d34848285611ceb565b509392505050565b600082601f830112611d5157611d50611c24565b5b8135611d61848260208601611cfa565b91505092915050565b600080600060608486031215611d8357611d82611bb7565b5b6000611d9186828701611be2565b9350506020611da286828701611be2565b925050604084013567ffffffffffffffff811115611dc357611dc2611bbc565b5b611dcf86828701611d3c565b9150509250925092565b600081519050919050565b600082825260208201905092915050565b60005b83811015611e13578082015181840152602081019050611df8565b60008484015250505050565b6000611e2a82611dd9565b611e348185611de4565b9350611e44818560208601611df5565b611e4d81611c2e565b840191505092915050565b611e6181611bc1565b82525050565b60008115159050919050565b611e7c81611e67565b82525050565b600073ffffffffffffffffffffffffffffffffffffffff82169050919050565b6000611ead82611e82565b9050919050565b611ebd81611ea2565b82525050565b600060c0820190508181036000830152611edd8189611e1f565b90508181036020830152611ef18188611e1f565b9050611f006040830187611e58565b611f0d6060830186611e73565b611f1a6080830185611e58565b611f2760a0830184611eb4565b979650505050505050565b611f3b81611ea2565b8114611f4657600080fd5b50565b600081359050611f5881611f32565b92915050565b600060208284031215611f7457611f73611bb7565b5b6000611f8284828501611f49565b91505092915050565b6000602082019050611fa06000830184611e58565b92915050565b600080600060608486031215611fbf57611fbe611bb7565b5b600084013567ffffffffffffffff811115611fdd57611fdc611bbc565b5b611fe986828701611d3c565b935050602084013567ffffffffffffffff81111561200a57612009611bbc565b5b61201686828701611d3c565b925050604061202786828701611be2565b9150509250925092565b61203a81611e67565b811461204557600080fd5b50565b60008135905061205781612031565b92915050565b6000806040838503121561207457612073611bb7565b5b600061208285828601611be2565b925050602061209385828601612048565b9150509250929050565b6000819050919050565b60006120c26120bd6120b884611e82565b61209d565b611e82565b9050919050565b60006120d4826120a7565b9050919050565b60006120e6826120c9565b9050919050565b6120f6816120db565b82525050565b600060208201905061211160008301846120ed565b92915050565b6000612122826120c9565b9050919050565b61213281612117565b82525050565b600060208201905061214d6000830184612129565b92915050565b6000806040838503121561216a57612169611bb7565b5b600061217885828601611be2565b925050602061218985828601611be2565b9150509250929050565b600060408201905081810360008301526121ad8185611e1f565b90506121bc6020830184611e58565b9392505050565b60006040820190506121d86000830185611e58565b81810360208301526121ea8184611e1f565b90509392505050565b60006121fe82611e82565b9050919050565b61220e816121f3565b82525050565b600060e082019050612229600083018a611e58565b6122366020830189611e58565b6122436040830188612205565b6122506060830187612205565b61225d6080830186611e58565b61226a60a0830185611e73565b61227760c0830184611e73565b98975050505050505050565b600060c0820190506122986000830189611e58565b6122a56020830188612205565b81810360408301526122b78187611e1f565b905081810360608301526122cb8186611e1f565b90506122da6080830185611e58565b6122e760a0830184611e73565b979650505050505050565b6000606082019050818103600083015261230c8186611e1f565b905061231b6020830185611e58565b6123286040830184611e73565b949350505050565b600061233b826120c9565b9050919050565b61234b81612330565b82525050565b60006020820190506123666000830184612342565b92915050565b7f4f6e6c79207468652070726f76696465722063616e20746f67676c652073657260008201527f7669636520737461747573000000000000000000000000000000000000000000602082015250565b60006123c8602b83611de4565b91506123d38261236c565b604082019050919050565b600060208201905081810360008301526123f7816123bb565b9050919050565b60006040820190506124136000830185611e58565b6124206020830184611e73565b9392505050565b7f4f6e6c7920636c69656e742063616e2072657669657700000000000000000000600082015250565b600061245d601683611de4565b915061246882612427565b602082019050919050565b6000602082019050818103600083015261248c81612450565b9050919050565b7f4f72646572206d75737420626520636f6d706c65746564206265666f7265207260008201527f6576696577696e67000000000000000000000000000000000000000000000000602082015250565b60006124ef602883611de4565b91506124fa82612493565b604082019050919050565b6000602082019050818103600083015261251e816124e2565b9050919050565b7f4e487b7100000000000000000000000000000000000000000000000000000000600052602260045260246000fd5b6000600282049050600182168061256c57607f821691505b60208210810361257f5761257e612525565b5b50919050565b60008190508160005260206000209050919050565b60006020601f8301049050919050565b600082821b905092915050565b6000600883026125e77fffffffffffffffffffffffffffffffffffffffffffffffffffffffffffffffff826125aa565b6125f186836125aa565b95508019841693508086168417925050509392505050565b600061262461261f61261a84611bc1565b61209d565b611bc1565b9050919050565b6000819050919050565b61263e83612609565b61265261264a8261262b565b8484546125b7565b825550505050565b600090565b61266761265a565b612672818484612635565b505050565b5b818110156126965761268b60008261265f565b600181019050612678565b5050565b601f8211156126db576126ac81612585565b6126b58461259a565b810160208510156126c4578190505b6126d86126d08561259a565b830182612677565b50505b505050565b600082821c905092915050565b60006126fe600019846008026126e0565b1980831691505092915050565b600061271783836126ed565b9150826002028217905092915050565b61273082611dd9565b67ffffffffffffffff81111561274957612748611c3f565b5b6127538254612554565b61275e82828561269a565b600060209050601f831160018114612791576000841561277f578287015190505b612789858261270b565b8655506127f1565b601f19841661279f86612585565b60005b828110156127c7578489015182556001820191506020850194506020810190506127a2565b868310156127e457848901516127e0601f8916826126ed565b8355505b6001600288020188555050505b505050505050565b600060608201905061280e6000830186611e58565b61281b6020830185611e58565b818103604083015261282d8184611e1f565b9050949350505050565b7f4e487b7100000000000000000000000000000000000000000000000000000000600052601160045260246000fd5b600061287182611bc1565b915061287c83611bc1565b925082820190508082111561289457612893612837565b5b92915050565b60006128a582611bc1565b91507fffffffffffffffffffffffffffffffffffffffffffffffffffffffffffffffff82036128d7576128d6612837565b5b600182019050919050565b60006020820190506128f76000830184611eb4565b92915050565b600061291061290b84611cba565b611c9f565b90508281526020810184848401111561292c5761292b611c29565b5b612937848285611df5565b509392505050565b600082601f83011261295457612953611c24565b5b81516129648482602086016128fd565b91505092915050565b6000806040838503121561298457612983611bb7565b5b600083015167ffffffffffffffff8111156129a2576129a1611bbc565b5b6129ae8582860161293f565b925050602083015167ffffffffffffffff8111156129cf576129ce611bbc565b5b6129db8582860161293f565b9150509250929050565b7f50726f7669646572206e6f742072656769737465726564000000000000000000600082015250565b6000612a1b601783611de4565b9150612a26826129e5565b602082019050919050565b60006020820190508181036000830152612a4a81612a0e565b9050919050565b6000604082019050612a666000830185611eb4565b612a736020830184611e58565b9392505050565b6000608082019050612a8f6000830187611e58565b612a9c6020830186611eb4565b8181036040830152612aae8185611e1f565b9050612abd6060830184611e58565b95945050505050565b7f53657276696365206973206e6f74206163746976650000000000000000000000600082015250565b6000612afc601583611de4565b9150612b0782612ac6565b602082019050919050565b60006020820190508181036000830152612b2b81612aef565b9050919050565b6000606082019050612b476000830186611eb4565b612b546020830185611eb4565b612b616040830184611e58565b949350505050565b600081519050612b7881612031565b92915050565b600060208284031215612b9457612b93611bb7565b5b6000612ba284828501612b69565b91505092915050565b7f546f6b656e207061796d656e74206661696c6564000000000000000000000000600082015250565b6000612be1601483611de4565b9150612bec82612bab565b602082019050919050565b60006020820190508181036000830152612c1081612bd4565b9050919050565b7f496e636f72726563742045544820616d6f756e74000000000000000000000000600082015250565b6000612c4d601483611de4565b9150612c5882612c17565b602082019050919050565b60006020820190508181036000830152612c7c81612c40565b9050919050565b6000612c8e826120c9565b9050919050565b612c9e81612c83565b82525050565b6000604082019050612cb96000830185612c95565b8181036020830152612ccb8184611e1f565b90509392505050565b600060a082019050612ce96000830188611e58565b612cf66020830187611e58565b612d036040830186611eb4565b612d106060830185611e58565b612d1d6080830184611e73565b9695505050505050565b7f4e487b7100000000000000000000000000000000000000000000000000000000600052603260045260246000fd5b7f4f6e6c792070726f76696465722063616e20636f6d706c65746520746865206f60008201527f7264657200000000000000000000000000000000000000000000000000000000602082015250565b6000612db2602483611de4565b9150612dbd82612d56565b604082019050919050565b60006020820190508181036000830152612de181612da5565b9050919050565b7f4f7264657220616c726561647920636f6d706c65746564000000000000000000600082015250565b6000612e1e601783611de4565b9150612e2982612de8565b602082019050919050565b60006020820190508181036000830152612e4d81612e11565b9050919050565b6000604082019050612e696000830185612c95565b612e766020830184611e58565b9392505050565b7f546f6b656e207472616e73666572206661696c65640000000000000000000000600082015250565b6000612eb3601583611de4565b9150612ebe82612e7d565b602082019050919050565b60006020820190508181036000830152612ee281612ea6565b9050919050565b600081905092915050565b50565b6000612f04600083612ee9565b9150612f0f82612ef4565b600082019050919050565b6000612f2582612ef7565b9150819050919050565b7f455448207472616e73666572206661696c656400000000000000000000000000600082015250565b6000612f65601383611de4565b9150612f7082612f2f565b602082019050919050565b60006020820190508181036000830152612f9481612f58565b905091905056fea2646970667358221220e434e99b2c630d89369c0a4d68b3070438183cbfab49e1a53464832d3ba7b25464736f6c634300081c0033",
  "linkReferences": {},
  "deployedLinkReferences": {}
}