{
  "_format": "hh-sol-artifact-1",
  "contractName": "Twoerr",
  "sourceName": "Contracts/Twoerr.sol",
  "abi": [
    {
      "inputs": [
        {
          "internalType": "address",
          "name": "_provider",
          "type": "address"
        },
        {
          "internalType": "address",
          "name": "_client",
          "type": "address"
        }
      ],
      "stateMutability": "nonpayable",
      "type": "constructor"
    },
    {
      "anonymous": false,
      "inputs": [
        {
          "indexed": false,
          "internalType": "uint256",
          "name": "id",
          "type": "uint256"
        }
      ],
      "name": "OrderCompleted",
      "type": "event"
    },
    {
      "anonymous": false,
      "inputs": [
        {
          "indexed": false,
          "internalType": "uint256",
          "name": "id",
          "type": "uint256"
        },
        {
          "indexed": false,
          "internalType": "uint256",
          "name": "serviceId",
          "type": "uint256"
        },
        {
          "indexed": false,
          "internalType": "address",
          "name": "client",
          "type": "address"
        },
        {
          "indexed": false,
          "internalType": "uint256",
          "name": "amount",
          "type": "uint256"
        }
      ],
      "name": "OrderPlaced",
      "type": "event"
    },
    {
      "anonymous": false,
      "inputs": [
        {
          "indexed": false,
          "internalType": "uint256",
          "name": "orderId",
          "type": "uint256"
        },
        {
          "indexed": false,
          "internalType": "uint256",
          "name": "rating",
          "type": "uint256"
        },
        {
          "indexed": false,
          "internalType": "string",
          "name": "comment",
          "type": "string"
        }
      ],
      "name": "ReviewLeft",
      "type": "event"
    },
    {
      "anonymous": false,
      "inputs": [
        {
          "indexed": false,
          "internalType": "uint256",
          "name": "id",
          "type": "uint256"
        },
        {
          "indexed": false,
          "internalType": "address",
          "name": "provider",
          "type": "address"
        },
        {
          "indexed": false,
          "internalType": "string",
          "name": "title",
          "type": "string"
        },
        {
          "indexed": false,
          "internalType": "uint256",
          "name": "price",
          "type": "uint256"
        }
      ],
      "name": "ServiceCreated",
      "type": "event"
    },
    {
      "inputs": [
        {
          "components": [
            {
              "internalType": "uint256",
              "name": "id",
              "type": "uint256"
            },
            {
              "internalType": "uint256",
              "name": "serviceId",
              "type": "uint256"
            },
            {
              "internalType": "address payable",
              "name": "client",
              "type": "address"
            },
            {
              "internalType": "address payable",
              "name": "provider",
              "type": "address"
            },
            {
              "internalType": "uint256",
              "name": "price",
              "type": "uint256"
            },
            {
              "internalType": "bool",
              "name": "isCompleted",
              "type": "bool"
            }
          ],
          "internalType": "struct Twoerr.Order[]",
          "name": "_orders",
          "type": "tuple[]"
        },
        {
          "internalType": "address",
          "name": "_provider",
          "type": "address"
        }
      ],
      "name": "CalculateEarnings",
      "outputs": [
        {
          "internalType": "uint256",
          "name": "",
          "type": "uint256"
        }
      ],
      "stateMutability": "pure",
      "type": "function"
    },
    {
      "inputs": [],
      "name": "clientContract",
      "outputs": [
        {
          "internalType": "contract Client",
          "name": "",
          "type": "address"
        }
      ],
      "stateMutability": "view",
      "type": "function"
    },
    {
      "inputs": [
        {
          "internalType": "uint256",
          "name": "_orderId",
          "type": "uint256"
        }
      ],
      "name": "completeOrder",
      "outputs": [],
      "stateMutability": "nonpayable",
      "type": "function"
    },
    {
      "inputs": [
        {
          "internalType": "string",
          "name": "_title",
          "type": "string"
        },
        {
          "internalType": "string",
          "name": "_description",
          "type": "string"
        },
        {
          "internalType": "uint256",
          "name": "_price",
          "type": "uint256"
        }
      ],
      "name": "createService",
      "outputs": [],
      "stateMutability": "nonpayable",
      "type": "function"
    },
    {
      "inputs": [
        {
          "internalType": "uint256",
          "name": "_orderId",
          "type": "uint256"
        },
        {
          "internalType": "uint256",
          "name": "_rating",
          "type": "uint256"
        },
        {
          "internalType": "string",
          "name": "_comment",
          "type": "string"
        }
      ],
      "name": "leaveReview",
      "outputs": [],
      "stateMutability": "nonpayable",
      "type": "function"
    },
    {
      "inputs": [],
      "name": "orderCounter",
      "outputs": [
        {
          "internalType": "uint256",
          "name": "",
          "type": "uint256"
        }
      ],
      "stateMutability": "view",
      "type": "function"
    },
    {
      "inputs": [
        {
          "internalType": "uint256",
          "name": "",
          "type": "uint256"
        }
      ],
      "name": "orders",
      "outputs": [
        {
          "internalType": "uint256",
          "name": "id",
          "type": "uint256"
        },
        {
          "internalType": "uint256",
          "name": "serviceId",
          "type": "uint256"
        },
        {
          "internalType": "address payable",
          "name": "client",
          "type": "address"
        },
        {
          "internalType": "address payable",
          "name": "provider",
          "type": "address"
        },
        {
          "internalType": "uint256",
          "name": "price",
          "type": "uint256"
        },
        {
          "internalType": "bool",
          "name": "isCompleted",
          "type": "bool"
        }
      ],
      "stateMutability": "view",
      "type": "function"
    },
    {
      "inputs": [
        {
          "internalType": "uint256",
          "name": "_serviceId",
          "type": "uint256"
        }
      ],
      "name": "placeOrder",
      "outputs": [],
      "stateMutability": "payable",
      "type": "function"
    },
    {
      "inputs": [],
      "name": "providerContract",
      "outputs": [
        {
          "internalType": "contract Provider",
          "name": "",
          "type": "address"
        }
      ],
      "stateMutability": "view",
      "type": "function"
    },
    {
      "inputs": [
        {
          "internalType": "uint256",
          "name": "",
          "type": "uint256"
        }
      ],
      "name": "reviews",
      "outputs": [
        {
          "internalType": "uint256",
          "name": "orderId",
          "type": "uint256"
        },
        {
          "internalType": "uint256",
          "name": "rating",
          "type": "uint256"
        },
        {
          "internalType": "string",
          "name": "comment",
          "type": "string"
        }
      ],
      "stateMutability": "view",
      "type": "function"
    },
    {
      "inputs": [],
      "name": "serviceCounter",
      "outputs": [
        {
          "internalType": "uint256",
          "name": "",
          "type": "uint256"
        }
      ],
      "stateMutability": "view",
      "type": "function"
    },
    {
      "inputs": [
        {
          "internalType": "uint256",
          "name": "",
          "type": "uint256"
        }
      ],
      "name": "services",
      "outputs": [
        {
          "internalType": "uint256",
          "name": "id",
          "type": "uint256"
        },
        {
          "internalType": "address payable",
          "name": "provider",
          "type": "address"
        },
        {
          "internalType": "string",
          "name": "title",
          "type": "string"
        },
        {
          "internalType": "string",
          "name": "description",
          "type": "string"
        },
        {
          "internalType": "uint256",
          "name": "price",
          "type": "uint256"
        },
        {
          "internalType": "bool",
          "name": "isActive",
          "type": "bool"
        }
      ],
      "stateMutability": "view",
      "type": "function"
    }
  ],
  "bytecode": "0x608060405234801561001057600080fd5b506040516122fb3803806122fb8339818101604052810190610032919061011e565b81600560006101000a81548173ffffffffffffffffffffffffffffffffffffffff021916908373ffffffffffffffffffffffffffffffffffffffff16021790555080600660006101000a81548173ffffffffffffffffffffffffffffffffffffffff021916908373ffffffffffffffffffffffffffffffffffffffff160217905550505061015e565b600080fd5b600073ffffffffffffffffffffffffffffffffffffffff82169050919050565b60006100eb826100c0565b9050919050565b6100fb816100e0565b811461010657600080fd5b50565b600081519050610118816100f2565b92915050565b60008060408385031215610135576101346100bb565b5b600061014385828601610109565b925050602061015485828601610109565b9150509250929050565b61218e8061016d6000396000f3fe6080604052600436106100a75760003560e01c8063b6adaaff11610064578063b6adaaff146101c1578063b789bf52146101ea578063ba2255f414610215578063c22c4f4314610231578063e22a8d1514610273578063e83ddcea146102b0576100a7565b80632e91dd25146100ac5780637b15f1b6146100d55780637defdd73146100fe5780639b263eca14610129578063a398c19c14610154578063a85c38ef1461017f575b600080fd5b3480156100b857600080fd5b506100d360048036038101906100ce9190611331565b6102ef565b005b3480156100e157600080fd5b506100fc60048036038101906100f791906113a0565b610548565b005b34801561010a57600080fd5b50610113610827565b604051610120919061143a565b60405180910390f35b34801561013557600080fd5b5061013e61082d565b60405161014b91906114d4565b60405180910390f35b34801561016057600080fd5b50610169610853565b6040516101769190611510565b60405180910390f35b34801561018b57600080fd5b506101a660048036038101906101a1919061152b565b610879565b6040516101b896959493929190611594565b60405180910390f35b3480156101cd57600080fd5b506101e860048036038101906101e3919061152b565b610902565b005b3480156101f657600080fd5b506101ff610ac4565b60405161020c919061143a565b60405180910390f35b61022f600480360381019061022a919061152b565b610aca565b005b34801561023d57600080fd5b506102586004803603810190610253919061152b565b610ec0565b60405161026a96959493929190611674565b60405180910390f35b34801561027f57600080fd5b5061029a60048036038101906102959190611781565b611039565b6040516102a7919061143a565b60405180910390f35b3480156102bc57600080fd5b506102d760048036038101906102d2919061152b565b6110ef565b6040516102e6939291906117e1565b60405180910390f35b6000600360008581526020019081526020016000206040518060c001604052908160008201548152602001600182015481526020016002820160009054906101000a900473ffffffffffffffffffffffffffffffffffffffff1673ffffffffffffffffffffffffffffffffffffffff1673ffffffffffffffffffffffffffffffffffffffff1681526020016003820160009054906101000a900473ffffffffffffffffffffffffffffffffffffffff1673ffffffffffffffffffffffffffffffffffffffff1673ffffffffffffffffffffffffffffffffffffffff168152602001600482015481526020016005820160009054906101000a900460ff1615151515815250509050806040015173ffffffffffffffffffffffffffffffffffffffff163373ffffffffffffffffffffffffffffffffffffffff1614610468576040517f08c379a000000000000000000000000000000000000000000000000000000000815260040161045f90611891565b60405180910390fd5b8060a001516104ac576040517f08c379a00000000000000000000000000000000000000000000000000000000081526004016104a390611923565b60405180910390fd5b60405180606001604052808581526020018481526020018381525060046000868152602001908152602001600020600082015181600001556020820151816001015560408201518160020190816105039190611b45565b509050507f6fdf03e49174e21a8e85f99fe649d34a672c386e5e82f573001ac87d10f6b33c84848460405161053a939291906117e1565b60405180910390a150505050565b336000600560009054906101000a900473ffffffffffffffffffffffffffffffffffffffff1673ffffffffffffffffffffffffffffffffffffffff16630787bc27836040518263ffffffff1660e01b81526004016105a69190611c26565b600060405180830381865afa1580156105c3573d6000803e3d6000fd5b505050506040513d6000823e3d601f19601f820116820180604052508101906105ec9190611cb1565b5090506000815103610633576040517f08c379a000000000000000000000000000000000000000000000000000000000815260040161062a90611d75565b60405180910390fd5b60008081548092919061064590611dc4565b91905055506040518060c0016040528060005481526020013373ffffffffffffffffffffffffffffffffffffffff1681526020018681526020018581526020018481526020016001151581525060026000805481526020019081526020016000206000820151816000015560208201518160010160006101000a81548173ffffffffffffffffffffffffffffffffffffffff021916908373ffffffffffffffffffffffffffffffffffffffff160217905550604082015181600201908161070c9190611b45565b5060608201518160030190816107229190611b45565b506080820151816004015560a08201518160050160006101000a81548160ff021916908315150217905550905050600560009054906101000a900473ffffffffffffffffffffffffffffffffffffffff1673ffffffffffffffffffffffffffffffffffffffff16637a564df6336000546040518363ffffffff1660e01b81526004016107af929190611e0c565b600060405180830381600087803b1580156107c957600080fd5b505af11580156107dd573d6000803e3d6000fd5b505050507f6367c911a558fff2592da7ba76cf687e7e06f314b8519c034d1087e59779696d6000543387866040516108189493929190611e35565b60405180910390a15050505050565b60005481565b600560009054906101000a900473ffffffffffffffffffffffffffffffffffffffff1681565b600660009054906101000a900473ffffffffffffffffffffffffffffffffffffffff1681565b60036020528060005260406000206000915090508060000154908060010154908060020160009054906101000a900473ffffffffffffffffffffffffffffffffffffffff16908060030160009054906101000a900473ffffffffffffffffffffffffffffffffffffffff16908060040154908060050160009054906101000a900460ff16905086565b60006003600083815260200190815260200160002090508060030160009054906101000a900473ffffffffffffffffffffffffffffffffffffffff1673ffffffffffffffffffffffffffffffffffffffff163373ffffffffffffffffffffffffffffffffffffffff16146109ab576040517f08c379a00000000000000000000000000000000000000000000000000000000081526004016109a290611ef3565b60405180910390fd5b8060050160009054906101000a900460ff16156109fd576040517f08c379a00000000000000000000000000000000000000000000000000000000081526004016109f490611f5f565b60405180910390fd5b60018160050160006101000a81548160ff0219169083151502179055508060030160009054906101000a900473ffffffffffffffffffffffffffffffffffffffff1673ffffffffffffffffffffffffffffffffffffffff166108fc82600401549081150290604051600060405180830381858888f19350505050158015610a88573d6000803e3d6000fd5b507f02a7d4d9472af7118644884b9a0ee443540c0027e938dd0aa35be8ecbe946c0a82604051610ab8919061143a565b60405180910390a15050565b60015481565b6000600260008381526020019081526020016000206040518060c0016040529081600082015481526020016001820160009054906101000a900473ffffffffffffffffffffffffffffffffffffffff1673ffffffffffffffffffffffffffffffffffffffff1673ffffffffffffffffffffffffffffffffffffffff168152602001600282018054610b5a90611972565b80601f0160208091040260200160405190810160405280929190818152602001828054610b8690611972565b8015610bd35780601f10610ba857610100808354040283529160200191610bd3565b820191906000526020600020905b815481529060010190602001808311610bb657829003601f168201915b50505050508152602001600382018054610bec90611972565b80601f0160208091040260200160405190810160405280929190818152602001828054610c1890611972565b8015610c655780601f10610c3a57610100808354040283529160200191610c65565b820191906000526020600020905b815481529060010190602001808311610c4857829003601f168201915b50505050508152602001600482015481526020016005820160009054906101000a900460ff16151515158152505090508060a00151610cd9576040517f08c379a0000000000000000000000000000000000000000000000000000000008152600401610cd090611fcb565b60405180910390fd5b80608001513403610d1f576040517f08c379a0000000000000000000000000000000000000000000000000000000008152600401610d1690612037565b60405180910390fd5b60016000815480929190610d3290611dc4565b91905055506040518060c0016040528060015481526020018381526020013373ffffffffffffffffffffffffffffffffffffffff168152602001826020015173ffffffffffffffffffffffffffffffffffffffff16815260200134815260200160001515815250600360006001548152602001908152602001600020600082015181600001556020820151816001015560408201518160020160006101000a81548173ffffffffffffffffffffffffffffffffffffffff021916908373ffffffffffffffffffffffffffffffffffffffff16021790555060608201518160030160006101000a81548173ffffffffffffffffffffffffffffffffffffffff021916908373ffffffffffffffffffffffffffffffffffffffff1602179055506080820151816004015560a08201518160050160006101000a81548160ff0219169083151502179055509050507ff272b72b23241ac4dea5dac19b1157309d925f5daa5577f2795bdaaf2af7d0c5600154833334604051610eb49493929190612057565b60405180910390a15050565b60026020528060005260406000206000915090508060000154908060010160009054906101000a900473ffffffffffffffffffffffffffffffffffffffff1690806002018054610f0f90611972565b80601f0160208091040260200160405190810160405280929190818152602001828054610f3b90611972565b8015610f885780601f10610f5d57610100808354040283529160200191610f88565b820191906000526020600020905b815481529060010190602001808311610f6b57829003601f168201915b505050505090806003018054610f9d90611972565b80601f0160208091040260200160405190810160405280929190818152602001828054610fc990611972565b80156110165780601f10610feb57610100808354040283529160200191611016565b820191906000526020600020905b815481529060010190602001808311610ff957829003601f168201915b5050505050908060040154908060050160009054906101000a900460ff16905086565b6000806000905060005b858590508110156110e3578373ffffffffffffffffffffffffffffffffffffffff168686838181106110785761107761209c565b5b905060c00201606001602081019061109091906120f7565b73ffffffffffffffffffffffffffffffffffffffff16036110d6578585828181106110be576110bd61209c565b5b905060c0020160800135826110d39190612124565b91505b8080600101915050611043565b50809150509392505050565b600460205280600052604060002060009150905080600001549080600101549080600201805461111e90611972565b80601f016020809104026020016040519081016040528092919081815260200182805461114a90611972565b80156111975780601f1061116c57610100808354040283529160200191611197565b820191906000526020600020905b81548152906001019060200180831161117a57829003601f168201915b5050505050905083565b6000604051905090565b600080fd5b600080fd5b6000819050919050565b6111c8816111b5565b81146111d357600080fd5b50565b6000813590506111e5816111bf565b92915050565b600080fd5b600080fd5b6000601f19601f8301169050919050565b7f4e487b7100000000000000000000000000000000000000000000000000000000600052604160045260246000fd5b61123e826111f5565b810181811067ffffffffffffffff8211171561125d5761125c611206565b5b80604052505050565b60006112706111a1565b905061127c8282611235565b919050565b600067ffffffffffffffff82111561129c5761129b611206565b5b6112a5826111f5565b9050602081019050919050565b82818337600083830152505050565b60006112d46112cf84611281565b611266565b9050828152602081018484840111156112f0576112ef6111f0565b5b6112fb8482856112b2565b509392505050565b600082601f830112611318576113176111eb565b5b81356113288482602086016112c1565b91505092915050565b60008060006060848603121561134a576113496111ab565b5b6000611358868287016111d6565b9350506020611369868287016111d6565b925050604084013567ffffffffffffffff81111561138a576113896111b0565b5b61139686828701611303565b9150509250925092565b6000806000606084860312156113b9576113b86111ab565b5b600084013567ffffffffffffffff8111156113d7576113d66111b0565b5b6113e386828701611303565b935050602084013567ffffffffffffffff811115611404576114036111b0565b5b61141086828701611303565b9250506040611421868287016111d6565b9150509250925092565b611434816111b5565b82525050565b600060208201905061144f600083018461142b565b92915050565b600073ffffffffffffffffffffffffffffffffffffffff82169050919050565b6000819050919050565b600061149a61149561149084611455565b611475565b611455565b9050919050565b60006114ac8261147f565b9050919050565b60006114be826114a1565b9050919050565b6114ce816114b3565b82525050565b60006020820190506114e960008301846114c5565b92915050565b60006114fa826114a1565b9050919050565b61150a816114ef565b82525050565b60006020820190506115256000830184611501565b92915050565b600060208284031215611541576115406111ab565b5b600061154f848285016111d6565b91505092915050565b600061156382611455565b9050919050565b61157381611558565b82525050565b60008115159050919050565b61158e81611579565b82525050565b600060c0820190506115a9600083018961142b565b6115b6602083018861142b565b6115c3604083018761156a565b6115d0606083018661156a565b6115dd608083018561142b565b6115ea60a0830184611585565b979650505050505050565b600081519050919050565b600082825260208201905092915050565b60005b8381101561162f578082015181840152602081019050611614565b60008484015250505050565b6000611646826115f5565b6116508185611600565b9350611660818560208601611611565b611669816111f5565b840191505092915050565b600060c082019050611689600083018961142b565b611696602083018861156a565b81810360408301526116a8818761163b565b905081810360608301526116bc818661163b565b90506116cb608083018561142b565b6116d860a0830184611585565b979650505050505050565b600080fd5b600080fd5b60008083601f840112611703576117026111eb565b5b8235905067ffffffffffffffff8111156117205761171f6116e3565b5b6020830191508360c082028301111561173c5761173b6116e8565b5b9250929050565b600061174e82611455565b9050919050565b61175e81611743565b811461176957600080fd5b50565b60008135905061177b81611755565b92915050565b60008060006040848603121561179a576117996111ab565b5b600084013567ffffffffffffffff8111156117b8576117b76111b0565b5b6117c4868287016116ed565b935093505060206117d78682870161176c565b9150509250925092565b60006060820190506117f6600083018661142b565b611803602083018561142b565b8181036040830152611815818461163b565b9050949350505050565b7f4f6e6c792074686520636c69656e742063616e206c656176652061207265766960008201527f6577000000000000000000000000000000000000000000000000000000000000602082015250565b600061187b602283611600565b91506118868261181f565b604082019050919050565b600060208201905081810360008301526118aa8161186e565b9050919050565b7f4f72646572206d75737420626520636f6d706c65746564206265666f7265206c60008201527f656176696e672061207265766965770000000000000000000000000000000000602082015250565b600061190d602f83611600565b9150611918826118b1565b604082019050919050565b6000602082019050818103600083015261193c81611900565b9050919050565b7f4e487b7100000000000000000000000000000000000000000000000000000000600052602260045260246000fd5b6000600282049050600182168061198a57607f821691505b60208210810361199d5761199c611943565b5b50919050565b60008190508160005260206000209050919050565b60006020601f8301049050919050565b600082821b905092915050565b600060088302611a057fffffffffffffffffffffffffffffffffffffffffffffffffffffffffffffffff826119c8565b611a0f86836119c8565b95508019841693508086168417925050509392505050565b6000611a42611a3d611a38846111b5565b611475565b6111b5565b9050919050565b6000819050919050565b611a5c83611a27565b611a70611a6882611a49565b8484546119d5565b825550505050565b600090565b611a85611a78565b611a90818484611a53565b505050565b5b81811015611ab457611aa9600082611a7d565b600181019050611a96565b5050565b601f821115611af957611aca816119a3565b611ad3846119b8565b81016020851015611ae2578190505b611af6611aee856119b8565b830182611a95565b50505b505050565b600082821c905092915050565b6000611b1c60001984600802611afe565b1980831691505092915050565b6000611b358383611b0b565b9150826002028217905092915050565b611b4e826115f5565b67ffffffffffffffff811115611b6757611b66611206565b5b611b718254611972565b611b7c828285611ab8565b600060209050601f831160018114611baf5760008415611b9d578287015190505b611ba78582611b29565b865550611c0f565b601f198416611bbd866119a3565b60005b82811015611be557848901518255600182019150602085019450602081019050611bc0565b86831015611c025784890151611bfe601f891682611b0b565b8355505b6001600288020188555050505b505050505050565b611c2081611743565b82525050565b6000602082019050611c3b6000830184611c17565b92915050565b6000611c54611c4f84611281565b611266565b905082815260208101848484011115611c7057611c6f6111f0565b5b611c7b848285611611565b509392505050565b600082601f830112611c9857611c976111eb565b5b8151611ca8848260208601611c41565b91505092915050565b60008060408385031215611cc857611cc76111ab565b5b600083015167ffffffffffffffff811115611ce657611ce56111b0565b5b611cf285828601611c83565b925050602083015167ffffffffffffffff811115611d1357611d126111b0565b5b611d1f85828601611c83565b9150509250929050565b7f50726f7669646572206e6f742072656769737465726564000000000000000000600082015250565b6000611d5f601783611600565b9150611d6a82611d29565b602082019050919050565b60006020820190508181036000830152611d8e81611d52565b9050919050565b7f4e487b7100000000000000000000000000000000000000000000000000000000600052601160045260246000fd5b6000611dcf826111b5565b91507fffffffffffffffffffffffffffffffffffffffffffffffffffffffffffffffff8203611e0157611e00611d95565b5b600182019050919050565b6000604082019050611e216000830185611c17565b611e2e602083018461142b565b9392505050565b6000608082019050611e4a600083018761142b565b611e576020830186611c17565b8181036040830152611e69818561163b565b9050611e78606083018461142b565b95945050505050565b7f4f6e6c79207468652070726f76696465722063616e20636f6d706c657465207460008201527f6865206f72646572000000000000000000000000000000000000000000000000602082015250565b6000611edd602883611600565b9150611ee882611e81565b604082019050919050565b60006020820190508181036000830152611f0c81611ed0565b9050919050565b7f4f7264657220697320616c726561647920636f6d706c65746564000000000000600082015250565b6000611f49601a83611600565b9150611f5482611f13565b602082019050919050565b60006020820190508181036000830152611f7881611f3c565b9050919050565b7f53657276696365206973206e6f74206163746976650000000000000000000000600082015250565b6000611fb5601583611600565b9150611fc082611f7f565b602082019050919050565b60006020820190508181036000830152611fe481611fa8565b9050919050565b7f496e73756666696369656e74207061796d656e74000000000000000000000000600082015250565b6000612021601483611600565b915061202c82611feb565b602082019050919050565b6000602082019050818103600083015261205081612014565b9050919050565b600060808201905061206c600083018761142b565b612079602083018661142b565b6120866040830185611c17565b612093606083018461142b565b95945050505050565b7f4e487b7100000000000000000000000000000000000000000000000000000000600052603260045260246000fd5b6120d481611558565b81146120df57600080fd5b50565b6000813590506120f1816120cb565b92915050565b60006020828403121561210d5761210c6111ab565b5b600061211b848285016120e2565b91505092915050565b600061212f826111b5565b915061213a836111b5565b925082820190508082111561215257612151611d95565b5b9291505056fea26469706673582212202d9c35986fa2cb53dd022811f76aafb58f32986ae23e1deea4228d0855dda82064736f6c634300081c0033",
  "linkReferences": {},
  "deployedLinkReferences": {}
}