{
  "_format": "hh-sol-artifact-1",
  "contractName": "TwoerrCoin",
  "sourceName": "Contracts/TwoerrCoin.sol",
  "abi": [
    {
      "inputs": [
        {
          "internalType": "address[]",
          "name": "initialHolders",
          "type": "address[]"
        }
      ],
      "stateMutability": "nonpayable",
      "type": "constructor"
    },
    {
      "anonymous": false,
      "inputs": [
        {
          "indexed": true,
          "internalType": "address",
          "name": "owner",
          "type": "address"
        },
        {
          "indexed": true,
          "internalType": "address",
          "name": "spender",
          "type": "address"
        },
        {
          "indexed": false,
          "internalType": "uint256",
          "name": "value",
          "type": "uint256"
        }
      ],
      "name": "Approval",
      "type": "event"
    },
    {
      "anonymous": false,
      "inputs": [
        {
          "indexed": true,
          "internalType": "address",
          "name": "from",
          "type": "address"
        },
        {
          "indexed": true,
          "internalType": "address",
          "name": "to",
          "type": "address"
        },
        {
          "indexed": false,
          "internalType": "uint256",
          "name": "value",
          "type": "uint256"
        }
      ],
      "name": "Transfer",
      "type": "event"
    },
    {
      "inputs": [
        {
          "internalType": "address",
          "name": "owner",
          "type": "address"
        },
        {
          "internalType": "address",
          "name": "spender",
          "type": "address"
        }
      ],
      "name": "allowance",
      "outputs": [
        {
          "internalType": "uint256",
          "name": "",
          "type": "uint256"
        }
      ],
      "stateMutability": "view",
      "type": "function"
    },
    {
      "inputs": [
        {
          "internalType": "address",
          "name": "spender",
          "type": "address"
        },
        {
          "internalType": "uint256",
          "name": "amount",
          "type": "uint256"
        }
      ],
      "name": "approve",
      "outputs": [
        {
          "internalType": "bool",
          "name": "",
          "type": "bool"
        }
      ],
      "stateMutability": "nonpayable",
      "type": "function"
    },
    {
      "inputs": [
        {
          "internalType": "address",
          "name": "account",
          "type": "address"
        }
      ],
      "name": "balanceOf",
      "outputs": [
        {
          "internalType": "uint256",
          "name": "",
          "type": "uint256"
        }
      ],
      "stateMutability": "view",
      "type": "function"
    },
    {
      "inputs": [],
      "name": "decimals",
      "outputs": [
        {
          "internalType": "uint8",
          "name": "",
          "type": "uint8"
        }
      ],
      "stateMutability": "view",
      "type": "function"
    },
    {
      "inputs": [
        {
          "internalType": "address",
          "name": "spender",
          "type": "address"
        },
        {
          "internalType": "uint256",
          "name": "subtractedValue",
          "type": "uint256"
        }
      ],
      "name": "decreaseAllowance",
      "outputs": [
        {
          "internalType": "bool",
          "name": "",
          "type": "bool"
        }
      ],
      "stateMutability": "nonpayable",
      "type": "function"
    },
    {
      "inputs": [
        {
          "internalType": "address",
          "name": "spender",
          "type": "address"
        },
        {
          "internalType": "uint256",
          "name": "addedValue",
          "type": "uint256"
        }
      ],
      "name": "increaseAllowance",
      "outputs": [
        {
          "internalType": "bool",
          "name": "",
          "type": "bool"
        }
      ],
      "stateMutability": "nonpayable",
      "type": "function"
    },
    {
      "inputs": [
        {
          "internalType": "address",
          "name": "to",
          "type": "address"
        },
        {
          "internalType": "uint256",
          "name": "amount",
          "type": "uint256"
        }
      ],
      "name": "mint",
      "outputs": [],
      "stateMutability": "nonpayable",
      "type": "function"
    },
    {
      "inputs": [],
      "name": "name",
      "outputs": [
        {
          "internalType": "string",
          "name": "",
          "type": "string"
        }
      ],
      "stateMutability": "view",
      "type": "function"
    },
    {
      "inputs": [],
      "name": "owner",
      "outputs": [
        {
          "internalType": "address",
          "name": "",
          "type": "address"
        }
      ],
      "stateMutability": "view",
      "type": "function"
    },
    {
      "inputs": [],
      "name": "symbol",
      "outputs": [
        {
          "internalType": "string",
          "name": "",
          "type": "string"
        }
      ],
      "stateMutability": "view",
      "type": "function"
    },
    {
      "inputs": [],
      "name": "totalSupply",
      "outputs": [
        {
          "internalType": "uint256",
          "name": "",
          "type": "uint256"
        }
      ],
      "stateMutability": "view",
      "type": "function"
    },
    {
      "inputs": [
        {
          "internalType": "address",
          "name": "recipient",
          "type": "address"
        },
        {
          "internalType": "uint256",
          "name": "amount",
          "type": "uint256"
        }
      ],
      "name": "transfer",
      "outputs": [
        {
          "internalType": "bool",
          "name": "",
          "type": "bool"
        }
      ],
      "stateMutability": "nonpayable",
      "type": "function"
    },
    {
      "inputs": [
        {
          "internalType": "address",
          "name": "sender",
          "type": "address"
        },
        {
          "internalType": "address",
          "name": "recipient",
          "type": "address"
        },
        {
          "internalType": "uint256",
          "name": "amount",
          "type": "uint256"
        }
      ],
      "name": "transferFrom",
      "outputs": [
        {
          "internalType": "bool",
          "name": "",
          "type": "bool"
        }
      ],
      "stateMutability": "nonpayable",
      "type": "function"
    }
  ],
  "bytecode": "0x608060405234801561001057600080fd5b50604051612282380380612282833981810160405281019061003291906104d2565b6040518060400160405280600a81526020017f54776f657272436f696e000000000000000000000000000000000000000000008152506040518060400160405280600381526020017f545743000000000000000000000000000000000000000000000000000000000081525081600390816100ad919061073c565b5080600490816100bd919061073c565b50505033600560006101000a81548173ffffffffffffffffffffffffffffffffffffffff021916908373ffffffffffffffffffffffffffffffffffffffff160217905550600061011161018960201b60201c565b600a61011d919061097d565b61271061012a91906109c8565b9050600082518261013b9190610a39565b905060005b83518110156101805761017384828151811061015f5761015e610a6a565b5b60200260200101518361019260201b60201c565b8080600101915050610140565b50505050610b74565b60006012905090565b600073ffffffffffffffffffffffffffffffffffffffff168273ffffffffffffffffffffffffffffffffffffffff1603610201576040517f08c379a00000000000000000000000000000000000000000000000000000000081526004016101f890610af6565b60405180910390fd5b610213600083836102fd60201b60201c565b80600260008282546102259190610b16565b92505081905550806000808473ffffffffffffffffffffffffffffffffffffffff1673ffffffffffffffffffffffffffffffffffffffff168152602001908152602001600020600082825461027a9190610b16565b925050819055508173ffffffffffffffffffffffffffffffffffffffff16600073ffffffffffffffffffffffffffffffffffffffff167fddf252ad1be2c89b69c2b068fc378daa952ba7f163c4a11628f55a4df523b3ef836040516102df9190610b59565b60405180910390a36102f96000838361030260201b60201c565b5050565b505050565b505050565b6000604051905090565b600080fd5b600080fd5b600080fd5b6000601f19601f8301169050919050565b7f4e487b7100000000000000000000000000000000000000000000000000000000600052604160045260246000fd5b61036982610320565b810181811067ffffffffffffffff8211171561038857610387610331565b5b80604052505050565b600061039b610307565b90506103a78282610360565b919050565b600067ffffffffffffffff8211156103c7576103c6610331565b5b602082029050602081019050919050565b600080fd5b600073ffffffffffffffffffffffffffffffffffffffff82169050919050565b6000610408826103dd565b9050919050565b610418816103fd565b811461042357600080fd5b50565b6000815190506104358161040f565b92915050565b600061044e610449846103ac565b610391565b90508083825260208201905060208402830185811115610471576104706103d8565b5b835b8181101561049a57806104868882610426565b845260208401935050602081019050610473565b5050509392505050565b600082601f8301126104b9576104b861031b565b5b81516104c984826020860161043b565b91505092915050565b6000602082840312156104e8576104e7610311565b5b600082015167ffffffffffffffff81111561050657610505610316565b5b610512848285016104a4565b91505092915050565b600081519050919050565b7f4e487b7100000000000000000000000000000000000000000000000000000000600052602260045260246000fd5b6000600282049050600182168061056d57607f821691505b6020821081036105805761057f610526565b5b50919050565b60008190508160005260206000209050919050565b60006020601f8301049050919050565b600082821b905092915050565b6000600883026105e87fffffffffffffffffffffffffffffffffffffffffffffffffffffffffffffffff826105ab565b6105f286836105ab565b95508019841693508086168417925050509392505050565b6000819050919050565b6000819050919050565b600061063961063461062f8461060a565b610614565b61060a565b9050919050565b6000819050919050565b6106538361061e565b61066761065f82610640565b8484546105b8565b825550505050565b600090565b61067c61066f565b61068781848461064a565b505050565b5b818110156106ab576106a0600082610674565b60018101905061068d565b5050565b601f8211156106f0576106c181610586565b6106ca8461059b565b810160208510156106d9578190505b6106ed6106e58561059b565b83018261068c565b50505b505050565b600082821c905092915050565b6000610713600019846008026106f5565b1980831691505092915050565b600061072c8383610702565b9150826002028217905092915050565b6107458261051b565b67ffffffffffffffff81111561075e5761075d610331565b5b6107688254610555565b6107738282856106af565b600060209050601f8311600181146107a65760008415610794578287015190505b61079e8582610720565b865550610806565b601f1984166107b486610586565b60005b828110156107dc578489015182556001820191506020850194506020810190506107b7565b868310156107f957848901516107f5601f891682610702565b8355505b6001600288020188555050505b505050505050565b7f4e487b7100000000000000000000000000000000000000000000000000000000600052601160045260246000fd5b60008160011c9050919050565b6000808291508390505b6001851115610894578086048111156108705761086f61080e565b5b600185161561087f5780820291505b808102905061088d8561083d565b9450610854565b94509492505050565b6000826108ad5760019050610969565b816108bb5760009050610969565b81600181146108d157600281146108db5761090a565b6001915050610969565b60ff8411156108ed576108ec61080e565b5b8360020a9150848211156109045761090361080e565b5b50610969565b5060208310610133831016604e8410600b841016171561093f5782820a90508381111561093a5761093961080e565b5b610969565b61094c848484600161084a565b925090508184048111156109635761096261080e565b5b81810290505b9392505050565b600060ff82169050919050565b60006109888261060a565b915061099383610970565b92506109c07fffffffffffffffffffffffffffffffffffffffffffffffffffffffffffffffff848461089d565b905092915050565b60006109d38261060a565b91506109de8361060a565b92508282026109ec8161060a565b91508282048414831517610a0357610a0261080e565b5b5092915050565b7f4e487b7100000000000000000000000000000000000000000000000000000000600052601260045260246000fd5b6000610a448261060a565b9150610a4f8361060a565b925082610a5f57610a5e610a0a565b5b828204905092915050565b7f4e487b7100000000000000000000000000000000000000000000000000000000600052603260045260246000fd5b600082825260208201905092915050565b7f45524332303a206d696e7420746f20746865207a65726f206164647265737300600082015250565b6000610ae0601f83610a99565b9150610aeb82610aaa565b602082019050919050565b60006020820190508181036000830152610b0f81610ad3565b9050919050565b6000610b218261060a565b9150610b2c8361060a565b9250828201905080821115610b4457610b4361080e565b5b92915050565b610b538161060a565b82525050565b6000602082019050610b6e6000830184610b4a565b92915050565b6116ff80610b836000396000f3fe608060405234801561001057600080fd5b50600436106100cf5760003560e01c806340c10f191161008c57806395d89b411161006657806395d89b4114610228578063a457c2d714610246578063a9059cbb14610276578063dd62ed3e146102a6576100cf565b806340c10f19146101be57806370a08231146101da5780638da5cb5b1461020a576100cf565b806306fdde03146100d4578063095ea7b3146100f257806318160ddd1461012257806323b872dd14610140578063313ce56714610170578063395093511461018e575b600080fd5b6100dc6102d6565b6040516100e99190610eb4565b60405180910390f35b61010c60048036038101906101079190610f6f565b610368565b6040516101199190610fca565b60405180910390f35b61012a610386565b6040516101379190610ff4565b60405180910390f35b61015a6004803603810190610155919061100f565b610390565b6040516101679190610fca565b60405180910390f35b610178610488565b604051610185919061107e565b60405180910390f35b6101a860048036038101906101a39190610f6f565b610491565b6040516101b59190610fca565b60405180910390f35b6101d860048036038101906101d39190610f6f565b61053d565b005b6101f460048036038101906101ef9190611099565b6105db565b6040516102019190610ff4565b60405180910390f35b610212610623565b60405161021f91906110d5565b60405180910390f35b610230610649565b60405161023d9190610eb4565b60405180910390f35b610260600480360381019061025b9190610f6f565b6106db565b60405161026d9190610fca565b60405180910390f35b610290600480360381019061028b9190610f6f565b6107c6565b60405161029d9190610fca565b60405180910390f35b6102c060048036038101906102bb91906110f0565b6107e4565b6040516102cd9190610ff4565b60405180910390f35b6060600380546102e59061115f565b80601f01602080910402602001604051908101604052809291908181526020018280546103119061115f565b801561035e5780601f106103335761010080835404028352916020019161035e565b820191906000526020600020905b81548152906001019060200180831161034157829003601f168201915b5050505050905090565b600061037c61037561086b565b8484610873565b6001905092915050565b6000600254905090565b600061039d848484610a3c565b6000600160008673ffffffffffffffffffffffffffffffffffffffff1673ffffffffffffffffffffffffffffffffffffffff16815260200190815260200160002060006103e861086b565b73ffffffffffffffffffffffffffffffffffffffff1673ffffffffffffffffffffffffffffffffffffffff16815260200190815260200160002054905082811015610468576040517f08c379a000000000000000000000000000000000000000000000000000000000815260040161045f90611202565b60405180910390fd5b61047c8561047461086b565b858403610873565b60019150509392505050565b60006012905090565b600061053361049e61086b565b8484600160006104ac61086b565b73ffffffffffffffffffffffffffffffffffffffff1673ffffffffffffffffffffffffffffffffffffffff16815260200190815260200160002060008873ffffffffffffffffffffffffffffffffffffffff1673ffffffffffffffffffffffffffffffffffffffff1681526020019081526020016000205461052e9190611251565b610873565b6001905092915050565b600560009054906101000a900473ffffffffffffffffffffffffffffffffffffffff1673ffffffffffffffffffffffffffffffffffffffff163373ffffffffffffffffffffffffffffffffffffffff16146105cd576040517f08c379a00000000000000000000000000000000000000000000000000000000081526004016105c4906112d1565b60405180910390fd5b6105d78282610cbb565b5050565b60008060008373ffffffffffffffffffffffffffffffffffffffff1673ffffffffffffffffffffffffffffffffffffffff168152602001908152602001600020549050919050565b600560009054906101000a900473ffffffffffffffffffffffffffffffffffffffff1681565b6060600480546106589061115f565b80601f01602080910402602001604051908101604052809291908181526020018280546106849061115f565b80156106d15780601f106106a6576101008083540402835291602001916106d1565b820191906000526020600020905b8154815290600101906020018083116106b457829003601f168201915b5050505050905090565b600080600160006106ea61086b565b73ffffffffffffffffffffffffffffffffffffffff1673ffffffffffffffffffffffffffffffffffffffff16815260200190815260200160002060008573ffffffffffffffffffffffffffffffffffffffff1673ffffffffffffffffffffffffffffffffffffffff168152602001908152602001600020549050828110156107a7576040517f08c379a000000000000000000000000000000000000000000000000000000000815260040161079e90611363565b60405180910390fd5b6107bb6107b261086b565b85858403610873565b600191505092915050565b60006107da6107d361086b565b8484610a3c565b6001905092915050565b6000600160008473ffffffffffffffffffffffffffffffffffffffff1673ffffffffffffffffffffffffffffffffffffffff16815260200190815260200160002060008373ffffffffffffffffffffffffffffffffffffffff1673ffffffffffffffffffffffffffffffffffffffff16815260200190815260200160002054905092915050565b600033905090565b600073ffffffffffffffffffffffffffffffffffffffff168373ffffffffffffffffffffffffffffffffffffffff16036108e2576040517f08c379a00000000000000000000000000000000000000000000000000000000081526004016108d9906113f5565b60405180910390fd5b600073ffffffffffffffffffffffffffffffffffffffff168273ffffffffffffffffffffffffffffffffffffffff1603610951576040517f08c379a000000000000000000000000000000000000000000000000000000000815260040161094890611487565b60405180910390fd5b80600160008573ffffffffffffffffffffffffffffffffffffffff1673ffffffffffffffffffffffffffffffffffffffff16815260200190815260200160002060008473ffffffffffffffffffffffffffffffffffffffff1673ffffffffffffffffffffffffffffffffffffffff168152602001908152602001600020819055508173ffffffffffffffffffffffffffffffffffffffff168373ffffffffffffffffffffffffffffffffffffffff167f8c5be1e5ebec7d5bd14f71427d1e84f3dd0314c0f7b2291e5b200ac8c7c3b92583604051610a2f9190610ff4565b60405180910390a3505050565b600073ffffffffffffffffffffffffffffffffffffffff168373ffffffffffffffffffffffffffffffffffffffff1603610aab576040517f08c379a0000000000000000000000000000000000000000000000000000000008152600401610aa290611519565b60405180910390fd5b600073ffffffffffffffffffffffffffffffffffffffff168273ffffffffffffffffffffffffffffffffffffffff1603610b1a576040517f08c379a0000000000000000000000000000000000000000000000000000000008152600401610b11906115ab565b60405180910390fd5b610b25838383610e1a565b60008060008573ffffffffffffffffffffffffffffffffffffffff1673ffffffffffffffffffffffffffffffffffffffff16815260200190815260200160002054905081811015610bab576040517f08c379a0000000000000000000000000000000000000000000000000000000008152600401610ba29061163d565b60405180910390fd5b8181036000808673ffffffffffffffffffffffffffffffffffffffff1673ffffffffffffffffffffffffffffffffffffffff16815260200190815260200160002081905550816000808573ffffffffffffffffffffffffffffffffffffffff1673ffffffffffffffffffffffffffffffffffffffff1681526020019081526020016000206000828254610c3e9190611251565b925050819055508273ffffffffffffffffffffffffffffffffffffffff168473ffffffffffffffffffffffffffffffffffffffff167fddf252ad1be2c89b69c2b068fc378daa952ba7f163c4a11628f55a4df523b3ef84604051610ca29190610ff4565b60405180910390a3610cb5848484610e1f565b50505050565b600073ffffffffffffffffffffffffffffffffffffffff168273ffffffffffffffffffffffffffffffffffffffff1603610d2a576040517f08c379a0000000000000000000000000000000000000000000000000000000008152600401610d21906116a9565b60405180910390fd5b610d3660008383610e1a565b8060026000828254610d489190611251565b92505081905550806000808473ffffffffffffffffffffffffffffffffffffffff1673ffffffffffffffffffffffffffffffffffffffff1681526020019081526020016000206000828254610d9d9190611251565b925050819055508173ffffffffffffffffffffffffffffffffffffffff16600073ffffffffffffffffffffffffffffffffffffffff167fddf252ad1be2c89b69c2b068fc378daa952ba7f163c4a11628f55a4df523b3ef83604051610e029190610ff4565b60405180910390a3610e1660008383610e1f565b5050565b505050565b505050565b600081519050919050565b600082825260208201905092915050565b60005b83811015610e5e578082015181840152602081019050610e43565b60008484015250505050565b6000601f19601f8301169050919050565b6000610e8682610e24565b610e908185610e2f565b9350610ea0818560208601610e40565b610ea981610e6a565b840191505092915050565b60006020820190508181036000830152610ece8184610e7b565b905092915050565b600080fd5b600073ffffffffffffffffffffffffffffffffffffffff82169050919050565b6000610f0682610edb565b9050919050565b610f1681610efb565b8114610f2157600080fd5b50565b600081359050610f3381610f0d565b92915050565b6000819050919050565b610f4c81610f39565b8114610f5757600080fd5b50565b600081359050610f6981610f43565b92915050565b60008060408385031215610f8657610f85610ed6565b5b6000610f9485828601610f24565b9250506020610fa585828601610f5a565b9150509250929050565b60008115159050919050565b610fc481610faf565b82525050565b6000602082019050610fdf6000830184610fbb565b92915050565b610fee81610f39565b82525050565b60006020820190506110096000830184610fe5565b92915050565b60008060006060848603121561102857611027610ed6565b5b600061103686828701610f24565b935050602061104786828701610f24565b925050604061105886828701610f5a565b9150509250925092565b600060ff82169050919050565b61107881611062565b82525050565b6000602082019050611093600083018461106f565b92915050565b6000602082840312156110af576110ae610ed6565b5b60006110bd84828501610f24565b91505092915050565b6110cf81610efb565b82525050565b60006020820190506110ea60008301846110c6565b92915050565b6000806040838503121561110757611106610ed6565b5b600061111585828601610f24565b925050602061112685828601610f24565b9150509250929050565b7f4e487b7100000000000000000000000000000000000000000000000000000000600052602260045260246000fd5b6000600282049050600182168061117757607f821691505b60208210810361118a57611189611130565b5b50919050565b7f45524332303a207472616e7366657220616d6f756e742065786365656473206160008201527f6c6c6f77616e6365000000000000000000000000000000000000000000000000602082015250565b60006111ec602883610e2f565b91506111f782611190565b604082019050919050565b6000602082019050818103600083015261121b816111df565b9050919050565b7f4e487b7100000000000000000000000000000000000000000000000000000000600052601160045260246000fd5b600061125c82610f39565b915061126783610f39565b925082820190508082111561127f5761127e611222565b5b92915050565b7f4f6e6c7920746865206f776e65722063616e206d696e7420746f6b656e730000600082015250565b60006112bb601e83610e2f565b91506112c682611285565b602082019050919050565b600060208201905081810360008301526112ea816112ae565b9050919050565b7f45524332303a2064656372656173656420616c6c6f77616e63652062656c6f7760008201527f207a65726f000000000000000000000000000000000000000000000000000000602082015250565b600061134d602583610e2f565b9150611358826112f1565b604082019050919050565b6000602082019050818103600083015261137c81611340565b9050919050565b7f45524332303a20617070726f76652066726f6d20746865207a65726f2061646460008201527f7265737300000000000000000000000000000000000000000000000000000000602082015250565b60006113df602483610e2f565b91506113ea82611383565b604082019050919050565b6000602082019050818103600083015261140e816113d2565b9050919050565b7f45524332303a20617070726f766520746f20746865207a65726f20616464726560008201527f7373000000000000000000000000000000000000000000000000000000000000602082015250565b6000611471602283610e2f565b915061147c82611415565b604082019050919050565b600060208201905081810360008301526114a081611464565b9050919050565b7f45524332303a207472616e736665722066726f6d20746865207a65726f20616460008201527f6472657373000000000000000000000000000000000000000000000000000000602082015250565b6000611503602583610e2f565b915061150e826114a7565b604082019050919050565b60006020820190508181036000830152611532816114f6565b9050919050565b7f45524332303a207472616e7366657220746f20746865207a65726f206164647260008201527f6573730000000000000000000000000000000000000000000000000000000000602082015250565b6000611595602383610e2f565b91506115a082611539565b604082019050919050565b600060208201905081810360008301526115c481611588565b9050919050565b7f45524332303a207472616e7366657220616d6f756e742065786365656473206260008201527f616c616e63650000000000000000000000000000000000000000000000000000602082015250565b6000611627602683610e2f565b9150611632826115cb565b604082019050919050565b600060208201905081810360008301526116568161161a565b9050919050565b7f45524332303a206d696e7420746f20746865207a65726f206164647265737300600082015250565b6000611693601f83610e2f565b915061169e8261165d565b602082019050919050565b600060208201905081810360008301526116c281611686565b905091905056fea26469706673582212202c11e018e7f7873c3d1c173daf205dca684af1cb89e09d35473cac439f6a3ba764736f6c634300081c0033",
  "linkReferences": {},
  "deployedLinkReferences": {}
}